{
  "contractName": "Rahat",
  "abi": [
    {
      "inputs": [
        {
          "internalType": "contract RahatERC20",
          "name": "_erc20",
          "type": "address"
        },
        {
          "internalType": "contract RahatTriggerResponse",
          "name": "_triggerResponse",
          "type": "address"
        },
        {
          "internalType": "address",
          "name": "_admin",
          "type": "address"
        }
      ],
      "stateMutability": "nonpayable",
      "type": "constructor"
    },
    {
      "anonymous": false,
      "inputs": [
        {
          "indexed": true,
          "internalType": "address",
          "name": "vendor",
          "type": "address"
        },
        {
          "indexed": true,
          "internalType": "uint256",
          "name": "beneficiary",
          "type": "uint256"
        },
        {
          "indexed": false,
          "internalType": "uint256",
          "name": "amount",
          "type": "uint256"
        }
      ],
      "name": "ClaimAcquiredERC20",
      "type": "event"
    },
    {
      "anonymous": false,
      "inputs": [
        {
          "indexed": true,
          "internalType": "address",
          "name": "vendor",
          "type": "address"
        },
        {
          "indexed": true,
          "internalType": "uint256",
          "name": "phone",
          "type": "uint256"
        },
        {
          "indexed": false,
          "internalType": "uint256",
          "name": "amount",
          "type": "uint256"
        }
      ],
      "name": "ClaimApproved",
      "type": "event"
    },
    {
      "anonymous": false,
      "inputs": [
        {
          "indexed": true,
          "internalType": "address",
          "name": "vendor",
          "type": "address"
        },
        {
          "indexed": true,
          "internalType": "uint256",
          "name": "beneficiary",
          "type": "uint256"
        },
        {
          "indexed": false,
          "internalType": "uint256",
          "name": "amount",
          "type": "uint256"
        }
      ],
      "name": "ClaimedERC20",
      "type": "event"
    },
    {
      "anonymous": false,
      "inputs": [
        {
          "indexed": false,
          "internalType": "bytes",
          "name": "signature",
          "type": "bytes"
        },
        {
          "indexed": false,
          "internalType": "bytes32",
          "name": "digest",
          "type": "bytes32"
        },
        {
          "indexed": false,
          "internalType": "address",
          "name": "expectedSigner",
          "type": "address"
        },
        {
          "indexed": false,
          "internalType": "address",
          "name": "recoveredSigner",
          "type": "address"
        }
      ],
      "name": "InvalidSignature",
      "type": "event"
    },
    {
      "anonymous": false,
      "inputs": [
        {
          "indexed": true,
          "internalType": "bytes32",
          "name": "projectId",
          "type": "bytes32"
        },
        {
          "indexed": true,
          "internalType": "uint256",
          "name": "phone",
          "type": "uint256"
        },
        {
          "indexed": false,
          "internalType": "uint256",
          "name": "amount",
          "type": "uint256"
        }
      ],
      "name": "IssuedERC20",
      "type": "event"
    },
    {
      "anonymous": false,
      "inputs": [
        {
          "indexed": true,
          "internalType": "bytes32",
          "name": "role",
          "type": "bytes32"
        },
        {
          "indexed": true,
          "internalType": "bytes32",
          "name": "previousAdminRole",
          "type": "bytes32"
        },
        {
          "indexed": true,
          "internalType": "bytes32",
          "name": "newAdminRole",
          "type": "bytes32"
        }
      ],
      "name": "RoleAdminChanged",
      "type": "event"
    },
    {
      "anonymous": false,
      "inputs": [
        {
          "indexed": true,
          "internalType": "bytes32",
          "name": "role",
          "type": "bytes32"
        },
        {
          "indexed": true,
          "internalType": "address",
          "name": "account",
          "type": "address"
        },
        {
          "indexed": true,
          "internalType": "address",
          "name": "sender",
          "type": "address"
        }
      ],
      "name": "RoleGranted",
      "type": "event"
    },
    {
      "anonymous": false,
      "inputs": [
        {
          "indexed": true,
          "internalType": "bytes32",
          "name": "role",
          "type": "bytes32"
        },
        {
          "indexed": true,
          "internalType": "address",
          "name": "account",
          "type": "address"
        },
        {
          "indexed": true,
          "internalType": "address",
          "name": "sender",
          "type": "address"
        }
      ],
      "name": "RoleRevoked",
      "type": "event"
    },
    {
      "anonymous": false,
      "inputs": [
        {
          "indexed": true,
          "internalType": "address",
          "name": "TransferredBy",
          "type": "address"
        },
        {
          "indexed": true,
          "internalType": "address",
          "name": "vendor",
          "type": "address"
        },
        {
          "indexed": false,
          "internalType": "uint256",
          "name": "amount",
          "type": "uint256"
        }
      ],
      "name": "VendorCashTransfer",
      "type": "event"
    },
    {
      "inputs": [],
      "name": "CREATE_CLAIM",
      "outputs": [
        {
          "internalType": "bytes32",
          "name": "",
          "type": "bytes32"
        }
      ],
      "stateMutability": "view",
      "type": "function"
    },
    {
      "inputs": [],
      "name": "DEFAULT_ADMIN_ROLE",
      "outputs": [
        {
          "internalType": "bytes32",
          "name": "",
          "type": "bytes32"
        }
      ],
      "stateMutability": "view",
      "type": "function"
    },
    {
      "inputs": [],
      "name": "GET_TOKENS_FROM_CLAIM",
      "outputs": [
        {
          "internalType": "bytes32",
          "name": "",
          "type": "bytes32"
        }
      ],
      "stateMutability": "view",
      "type": "function"
    },
    {
      "inputs": [],
      "name": "ISSUE_TOKEN",
      "outputs": [
        {
          "internalType": "bytes32",
          "name": "",
          "type": "bytes32"
        }
      ],
      "stateMutability": "view",
      "type": "function"
    },
    {
      "inputs": [],
      "name": "MANAGER_ROLE",
      "outputs": [
        {
          "internalType": "bytes32",
          "name": "",
          "type": "bytes32"
        }
      ],
      "stateMutability": "view",
      "type": "function"
    },
    {
      "inputs": [],
      "name": "MOBILIZER_ROLE",
      "outputs": [
        {
          "internalType": "bytes32",
          "name": "",
          "type": "bytes32"
        }
      ],
      "stateMutability": "view",
      "type": "function"
    },
    {
      "inputs": [],
      "name": "SERVER_ROLE",
      "outputs": [
        {
          "internalType": "bytes32",
          "name": "",
          "type": "bytes32"
        }
      ],
      "stateMutability": "view",
      "type": "function"
    },
    {
      "inputs": [],
      "name": "VENDOR_ROLE",
      "outputs": [
        {
          "internalType": "bytes32",
          "name": "",
          "type": "bytes32"
        }
      ],
      "stateMutability": "view",
      "type": "function"
    },
    {
      "inputs": [],
      "name": "erc20",
      "outputs": [
        {
          "internalType": "contract RahatERC20",
          "name": "",
          "type": "address"
        }
      ],
      "stateMutability": "view",
      "type": "function"
    },
    {
      "inputs": [
        {
          "internalType": "uint256",
          "name": "",
          "type": "uint256"
        }
      ],
      "name": "erc20Balance",
      "outputs": [
        {
          "internalType": "uint256",
          "name": "",
          "type": "uint256"
        }
      ],
      "stateMutability": "view",
      "type": "function"
    },
    {
      "inputs": [
        {
          "internalType": "uint256",
          "name": "",
          "type": "uint256"
        }
      ],
      "name": "erc20Issued",
      "outputs": [
        {
          "internalType": "uint256",
          "name": "",
          "type": "uint256"
        }
      ],
      "stateMutability": "view",
      "type": "function"
    },
    {
      "inputs": [
        {
          "internalType": "address",
          "name": "",
          "type": "address"
        }
      ],
      "name": "erc20IssuedBy",
      "outputs": [
        {
          "internalType": "uint256",
          "name": "",
          "type": "uint256"
        }
      ],
      "stateMutability": "view",
      "type": "function"
    },
    {
      "inputs": [
        {
          "internalType": "bytes32",
          "name": "role",
          "type": "bytes32"
        }
      ],
      "name": "getRoleAdmin",
      "outputs": [
        {
          "internalType": "bytes32",
          "name": "",
          "type": "bytes32"
        }
      ],
      "stateMutability": "view",
      "type": "function"
    },
    {
      "inputs": [
        {
          "internalType": "bytes32",
          "name": "role",
          "type": "bytes32"
        },
        {
          "internalType": "address",
          "name": "account",
          "type": "address"
        }
      ],
      "name": "grantRole",
      "outputs": [],
      "stateMutability": "nonpayable",
      "type": "function"
    },
    {
      "inputs": [
        {
          "internalType": "bytes32",
          "name": "role",
          "type": "bytes32"
        },
        {
          "internalType": "address",
          "name": "account",
          "type": "address"
        }
      ],
      "name": "hasRole",
      "outputs": [
        {
          "internalType": "bool",
          "name": "",
          "type": "bool"
        }
      ],
      "stateMutability": "view",
      "type": "function"
    },
    {
      "inputs": [
        {
          "internalType": "uint256",
          "name": "",
          "type": "uint256"
        }
      ],
      "name": "isBanked",
      "outputs": [
        {
          "internalType": "bool",
          "name": "",
          "type": "bool"
        }
      ],
      "stateMutability": "view",
      "type": "function"
    },
    {
      "inputs": [
        {
          "internalType": "bytes[]",
          "name": "data",
          "type": "bytes[]"
        }
      ],
      "name": "multicall",
      "outputs": [
        {
          "internalType": "bytes[]",
          "name": "results",
          "type": "bytes[]"
        }
      ],
      "stateMutability": "nonpayable",
      "type": "function"
    },
    {
      "inputs": [
        {
          "internalType": "address",
          "name": "",
          "type": "address"
        }
      ],
      "name": "nonces",
      "outputs": [
        {
          "internalType": "uint256",
          "name": "",
          "type": "uint256"
        }
      ],
      "stateMutability": "view",
      "type": "function"
    },
    {
      "inputs": [
        {
          "internalType": "address",
          "name": "",
          "type": "address"
        },
        {
          "internalType": "bytes32",
          "name": "",
          "type": "bytes32"
        }
      ],
      "name": "recentERC20Claims",
      "outputs": [
        {
          "internalType": "uint256",
          "name": "amount",
          "type": "uint256"
        },
        {
          "internalType": "bytes32",
          "name": "otpHash",
          "type": "bytes32"
        },
        {
          "internalType": "bool",
          "name": "isReleased",
          "type": "bool"
        },
        {
          "internalType": "uint256",
          "name": "date",
          "type": "uint256"
        }
      ],
      "stateMutability": "view",
      "type": "function"
    },
    {
      "inputs": [
        {
          "internalType": "bytes32",
          "name": "role",
          "type": "bytes32"
        },
        {
          "internalType": "address",
          "name": "account",
          "type": "address"
        }
      ],
      "name": "renounceRole",
      "outputs": [],
      "stateMutability": "nonpayable",
      "type": "function"
    },
    {
      "inputs": [
        {
          "internalType": "bytes32",
          "name": "role",
          "type": "bytes32"
        },
        {
          "internalType": "address",
          "name": "account",
          "type": "address"
        }
      ],
      "name": "revokeRole",
      "outputs": [],
      "stateMutability": "nonpayable",
      "type": "function"
    },
    {
      "inputs": [],
      "name": "triggerResponse",
      "outputs": [
        {
          "internalType": "contract RahatTriggerResponse",
          "name": "",
          "type": "address"
        }
      ],
      "stateMutability": "view",
      "type": "function"
    },
    {
      "inputs": [
        {
          "internalType": "address",
          "name": "",
          "type": "address"
        }
      ],
      "name": "vendorCashDispatched",
      "outputs": [
        {
          "internalType": "uint256",
          "name": "",
          "type": "uint256"
        }
      ],
      "stateMutability": "view",
      "type": "function"
    },
    {
      "inputs": [
        {
          "internalType": "address",
          "name": "",
          "type": "address"
        }
      ],
      "name": "vendorCashReceived",
      "outputs": [
        {
          "internalType": "uint256",
          "name": "",
          "type": "uint256"
        }
      ],
      "stateMutability": "view",
      "type": "function"
    },
    {
      "inputs": [
        {
          "internalType": "bytes4",
          "name": "interfaceId",
          "type": "bytes4"
        }
      ],
      "name": "supportsInterface",
      "outputs": [
        {
          "internalType": "bool",
          "name": "",
          "type": "bool"
        }
      ],
      "stateMutability": "view",
      "type": "function"
    },
    {
      "inputs": [
        {
          "internalType": "address",
          "name": "_account",
          "type": "address"
        }
      ],
      "name": "addAdmin",
      "outputs": [],
      "stateMutability": "nonpayable",
      "type": "function"
    },
    {
      "inputs": [
        {
          "internalType": "address",
          "name": "_account",
          "type": "address"
        }
      ],
      "name": "isAdmin",
      "outputs": [
        {
          "internalType": "bool",
          "name": "",
          "type": "bool"
        }
      ],
      "stateMutability": "view",
      "type": "function"
    },
    {
      "inputs": [
        {
          "internalType": "address",
          "name": "_account",
          "type": "address"
        }
      ],
      "name": "addServer",
      "outputs": [],
      "stateMutability": "nonpayable",
      "type": "function"
    },
    {
      "inputs": [
        {
          "internalType": "address",
          "name": "_account",
          "type": "address"
        }
      ],
      "name": "addVendor",
      "outputs": [],
      "stateMutability": "nonpayable",
      "type": "function"
    },
    {
      "inputs": [
        {
          "internalType": "address",
          "name": "_account",
          "type": "address"
        }
      ],
      "name": "isVendor",
      "outputs": [
        {
          "internalType": "bool",
          "name": "",
          "type": "bool"
        }
      ],
      "stateMutability": "view",
      "type": "function"
    },
    {
      "inputs": [
        {
          "internalType": "address",
          "name": "_account",
          "type": "address"
        },
        {
          "internalType": "string",
          "name": "_projectId",
          "type": "string"
        }
      ],
      "name": "addMobilizer",
      "outputs": [],
      "stateMutability": "nonpayable",
      "type": "function"
    },
    {
      "inputs": [
        {
          "internalType": "uint256",
          "name": "_phone",
          "type": "uint256"
        },
        {
          "internalType": "bool",
          "name": "_isBanked",
          "type": "bool"
        }
      ],
      "name": "setAsBankedBeneficiary",
      "outputs": [],
      "stateMutability": "nonpayable",
      "type": "function"
    },
    {
      "inputs": [
        {
          "internalType": "uint256",
          "name": "_phone",
          "type": "uint256"
        },
        {
          "internalType": "bytes32",
          "name": "_projectId",
          "type": "bytes32"
        }
      ],
      "name": "suspendBeneficiary",
      "outputs": [],
      "stateMutability": "nonpayable",
      "type": "function"
    },
    {
      "inputs": [
        {
          "internalType": "bytes32",
          "name": "_projectId",
          "type": "bytes32"
        },
        {
          "internalType": "uint256",
          "name": "_projectCapital",
          "type": "uint256"
        }
      ],
      "name": "updateProjectBudget",
      "outputs": [],
      "stateMutability": "nonpayable",
      "type": "function"
    },
    {
      "inputs": [
        {
          "internalType": "bytes32",
          "name": "_projectId",
          "type": "bytes32"
        }
      ],
      "name": "getProjectBalance",
      "outputs": [
        {
          "internalType": "uint256",
          "name": "_balance",
          "type": "uint256"
        }
      ],
      "stateMutability": "view",
      "type": "function"
    },
    {
      "inputs": [
        {
          "internalType": "string",
          "name": "_projectId",
          "type": "string"
        },
        {
          "internalType": "uint256",
          "name": "_phone",
          "type": "uint256"
        },
        {
          "internalType": "uint256",
          "name": "_amount",
          "type": "uint256"
        }
      ],
      "name": "issueERC20ToBeneficiary",
      "outputs": [],
      "stateMutability": "nonpayable",
      "type": "function"
    },
    {
      "inputs": [
        {
          "internalType": "uint256",
          "name": "_phone",
          "type": "uint256"
        },
        {
          "internalType": "uint256",
          "name": "_tokens",
          "type": "uint256"
        }
      ],
      "name": "createERC20Claim",
      "outputs": [],
      "stateMutability": "nonpayable",
      "type": "function"
    },
    {
      "inputs": [
        {
          "internalType": "address",
          "name": "_vendor",
          "type": "address"
        },
        {
          "internalType": "uint256",
          "name": "_phone",
          "type": "uint256"
        },
        {
          "internalType": "bytes32",
          "name": "_otpHash",
          "type": "bytes32"
        },
        {
          "internalType": "uint256",
          "name": "_timeToLive",
          "type": "uint256"
        }
      ],
      "name": "approveERC20Claim",
      "outputs": [],
      "stateMutability": "nonpayable",
      "type": "function"
    },
    {
      "inputs": [
        {
          "internalType": "uint256",
          "name": "_phone",
          "type": "uint256"
        },
        {
          "internalType": "string",
          "name": "_otp",
          "type": "string"
        }
      ],
      "name": "getERC20FromClaim",
      "outputs": [],
      "stateMutability": "nonpayable",
      "type": "function"
    },
    {
      "inputs": [
        {
          "internalType": "uint256",
          "name": "_phone",
          "type": "uint256"
        },
        {
          "internalType": "address",
          "name": "_address",
          "type": "address"
        },
        {
          "internalType": "uint256",
          "name": "_amount",
          "type": "uint256"
        }
      ],
      "name": "transferTokenToVendorByAdmin",
      "outputs": [],
      "stateMutability": "nonpayable",
      "type": "function"
    },
    {
      "inputs": [
        {
          "internalType": "address",
          "name": "_address",
          "type": "address"
        },
        {
          "internalType": "uint256",
          "name": "_amount",
          "type": "uint256"
        }
      ],
      "name": "transferCashToVendor",
      "outputs": [],
      "stateMutability": "nonpayable",
      "type": "function"
    },
    {
      "inputs": [
        {
          "internalType": "address",
          "name": "_address",
          "type": "address"
        }
      ],
      "name": "getVendorCashBalance",
      "outputs": [
        {
          "internalType": "uint256",
          "name": "",
          "type": "uint256"
        }
      ],
      "stateMutability": "view",
      "type": "function"
    },
    {
      "inputs": [
        {
          "internalType": "uint256",
          "name": "_data",
          "type": "uint256"
        }
      ],
      "name": "findHash",
      "outputs": [
        {
          "internalType": "bytes32",
          "name": "",
          "type": "bytes32"
        }
      ],
      "stateMutability": "pure",
      "type": "function"
    },
    {
      "inputs": [
        {
          "internalType": "string",
          "name": "_data",
          "type": "string"
        }
      ],
      "name": "findHash",
      "outputs": [
        {
          "internalType": "bytes32",
          "name": "",
          "type": "bytes32"
        }
      ],
      "stateMutability": "pure",
      "type": "function"
    },
    {
      "inputs": [
        {
          "internalType": "uint256[]",
          "name": "_array",
          "type": "uint256[]"
        }
      ],
      "name": "getArraySum",
      "outputs": [
        {
          "internalType": "uint256",
          "name": "sum",
          "type": "uint256"
        }
      ],
      "stateMutability": "pure",
      "type": "function"
    }
  ],
  "bytecode": "0x60806040523480156200001157600080fd5b5060405162002f9238038062002f92833981016040819052620000349162000487565b62000041600033620000e5565b6200004e600082620000e5565b6200006a60008051602062002f728339815191526000620000f5565b620000977f0aaf57387812c7f832412470a57567b5648a930069be49aa9c98d04f88520d346000620000f5565b620000b260008051602062002f728339815191523362000140565b50600280546001600160a01b039384166001600160a01b0319918216179091556003805492909316911617905562000643565b620000f182826200016f565b5050565b600082815260208190526040808220600101805490849055905190918391839186917fbd79b86ffe0ab8e8776151514217cd7cacd52c909f66475c3af44e129f0b00ff9190a4505050565b6000828152602081905260409020600101546200015e8133620001f7565b6200016a83836200016f565b505050565b6200017b828262000283565b620000f1576000828152602081815260408083206001600160a01b03851684529091529020805460ff19166001179055620001b33390565b6001600160a01b0316816001600160a01b0316837f2f8788117e7eff1d82e926ec794901d17c78024a50270940304540a733656f0d60405160405180910390a45050565b62000203828262000283565b620000f15762000229816001600160a01b03166014620002ae60201b620019391760201c565b6200023f83602062001939620002ae821b17811c565b6040516020016200025292919062000501565b60408051601f198184030181529082905262461bcd60e51b82526200027a916004016200057a565b60405180910390fd5b6000828152602081815260408083206001600160a01b038516845290915290205460ff165b92915050565b60606000620002bf836002620005c5565b620002cc906002620005e7565b6001600160401b03811115620002e657620002e6620005fd565b6040519080825280601f01601f19166020018201604052801562000311576020820181803683370190505b509050600360fc1b816000815181106200032f576200032f62000613565b60200101906001600160f81b031916908160001a905350600f60fb1b8160018151811062000361576200036162000613565b60200101906001600160f81b031916908160001a905350600062000387846002620005c5565b62000394906001620005e7565b90505b600181111562000416576f181899199a1a9b1b9c1cb0b131b232b360811b85600f1660108110620003cc57620003cc62000613565b1a60f81b828281518110620003e557620003e562000613565b60200101906001600160f81b031916908160001a90535060049490941c936200040e8162000629565b905062000397565b508315620004675760405162461bcd60e51b815260206004820181905260248201527f537472696e67733a20686578206c656e67746820696e73756666696369656e7460448201526064016200027a565b9392505050565b6001600160a01b03811681146200048457600080fd5b50565b6000806000606084860312156200049d57600080fd5b8351620004aa816200046e565b6020850151909350620004bd816200046e565b6040850151909250620004d0816200046e565b809150509250925092565b60005b83811015620004f8578181015183820152602001620004de565b50506000910152565b7f416363657373436f6e74726f6c3a206163636f756e74200000000000000000008152600083516200053b816017850160208801620004db565b7001034b99036b4b9b9b4b733903937b6329607d1b60179184019182015283516200056e816028840160208801620004db565b01602801949350505050565b60208152600082518060208401526200059b816040850160208701620004db565b601f01601f19169190910160400192915050565b634e487b7160e01b600052601160045260246000fd5b6000816000190483118215151615620005e257620005e2620005af565b500290565b80820180821115620002a857620002a8620005af565b634e487b7160e01b600052604160045260246000fd5b634e487b7160e01b600052603260045260246000fd5b6000816200063b576200063b620005af565b506000190190565b61291f80620006536000396000f3fe608060405234801561001057600080fd5b506004361061023f5760003560e01c80636017bc991161013c57806394343cd2116100be57806394343cd2146105835780639ea69350146105aa578063a217fddf146105bd578063a8c09ab5146105c5578063ac9650d8146105e5578063c0d955d614610605578063cf784eda14610618578063d1e6716714610638578063d547741f146106a4578063eaad46f5146106b7578063ec87621c146106ca578063ee54d54f146106f157600080fd5b80636017bc991461047257806364a2f7d91461048557806370480275146104a857806370c75107146104bb578063785e9e86146104ce5780637ecebe00146104e1578063838c0f291461050157806388257567146105215780638bbab5c71461053457806391d148541461055b578063926a694d1461056e57600080fd5b80632f2ff15d116101c55780632f2ff15d1461037a5780633098b74b1461038d578063351c3d0b146103a057806336568abe146103c057806337d027b8146103d35780633fc16810146103fe57806345e0f75314610411578063494101ff146104245780634c91b44e14610437578063546fcaa41461044c5780635cbd99d41461045f57600080fd5b806301ffc9a714610244578063055ee0701461026c57806318cf28341461029a578063237c9db3146102af5780632384e105146102cf578063248a9ca3146102f657806324d7806c1461031957806327fa7a201461032c57806329312a9c146103415780632aef0c30146103545780632d41d55914610367575b600080fd5b610257610252366004611fe0565b610704565b60405190151581526020015b60405180910390f35b61028c61027a36600461200a565b60046020526000908152604090205481565b604051908152602001610263565b61028c6000805160206128a383398151915281565b61028c6102bd36600461203f565b600d6020526000908152604090205481565b61028c7fcfa8166f1bb1b8818c3767a9ffd776afbbe3409a468070bb860831e01b56549981565b61028c61030436600461200a565b60009081526020819052604090206001015490565b61025761032736600461203f565b610715565b61033f61033a36600461210f565b610721565b005b61033f61034f366004612155565b6109f7565b61033f61036236600461217f565b610ad2565b61033f6103753660046121a1565b610ba6565b61033f6103883660046121da565b610e8d565b61028c61039b366004612206565b610eb8565b61028c6103ae36600461200a565b60056020526000908152604090205481565b61033f6103ce3660046121da565b610f04565b6003546103e6906001600160a01b031681565b6040516001600160a01b039091168152602001610263565b61033f61040c3660046122b9565b610f82565b61033f61041f36600461203f565b610fc9565b61028c61043236600461200a565b61100b565b61028c60008051602061288383398151915281565b61033f61045a3660046122e9565b611043565b61033f61046d36600461203f565b6111be565b61028c61048036600461203f565b6111fd565b61025761049336600461200a565b60066020526000908152604090205460ff1681565b61033f6104b636600461203f565b61122b565b61028c6104c936600461231e565b61125d565b6002546103e6906001600160a01b031681565b61028c6104ef36600461203f565b60016020526000908152604090205481565b61028c61050f36600461203f565b600f6020526000908152604090205481565b61033f61052f36600461217f565b611270565b61028c7f043620c1e1c33ecf60d9dadc62571b96554338b68ef3636e715e52a286bea92e81565b6102576105693660046121da565b6112ba565b61028c60008051602061286383398151915281565b61028c7f8ff5d84bbad5f252f2ee1916646e221e55645205d2f803ebe6a7d6ba8fa4185d81565b61033f6105b836600461217f565b6112e3565b61028c600081565b61028c6105d336600461203f565b600e6020526000908152604090205481565b6105f86105f3366004612352565b6115a4565b6040516102639190612416565b61033f610613366004612478565b611698565b61028c61062636600461200a565b6000908152600a602052604090205490565b61067e610646366004612155565b601060209081526000928352604080842090915290825290208054600182015460028301546003909301549192909160ff9091169084565b604080519485526020850193909352901515918301919091526060820152608001610263565b61033f6106b23660046121da565b61188f565b61033f6106c53660046124c5565b6118b5565b61028c7faf290d8680820aad922855f39b306097b20e28774d6c1ad35a20325630c3a02c81565b6102576106ff36600461203f565b61191f565b600061070f82611adb565b92915050565b600061070f81836112ba565b81600061072d8261100b565b600083815260056020526040812054919250036107655760405162461bcd60e51b815260040161075c906124fc565b60405180910390fd5b61077d600080516020612863833981519152336112ba565b6107995760405162461bcd60e51b815260040161075c90612549565b60006107a48561100b565b336000908152601060209081526040808320848452909152902060028101549192509060ff166108225760405162461bcd60e51b815260206004820152602360248201527f52414841543a20436c61696d20686173206e6f74206265656e2072656c65617360448201526232b21760e91b606482015260840161075c565b42816003015410156108805760405162461bcd60e51b815260206004820152602160248201527f52414841543a20436c61696d2068617320616c726561647920657870697265646044820152601760f91b606482015260840161075c565b600061088b8661125d565b33600090815260106020908152604080832087845290915290206001015490915081146108f65760405162461bcd60e51b81526020600482015260196024820152782920a420aa1d1027aa28103234b2103737ba1036b0ba31b41760391b604482015260640161075c565b610904878360000154611b10565b81546002808401805460ff19169055600080855560038501555460405163a9059cbb60e01b81526001600160a01b039091169063a9059cbb9061094d9033908590600401612593565b6020604051808303816000875af115801561096c573d6000803e3d6000fd5b505050506040513d601f19601f8201168201806040525081019061099091906125ac565b50336000908152600f6020526040812080548392906109b09084906125df565b9091555050604051818152889033907fe4de809bf00bba73c562150b76ba81e5af05183458342bfdb09a7c9e303813e5906020015b60405180910390a35050505050505050565b610a026000336112ba565b80610a205750610a20600080516020612883833981519152336112ba565b610a3c5760405162461bcd60e51b815260040161075c906125f2565b610a458261191f565b610a615760405162461bcd60e51b815260040161075c90612648565b6001600160a01b0382166000908152600e602052604081208054839290610a899084906125df565b90915550506040518181526001600160a01b0383169033907f9fbc3bf6429b64ebe6191e57114a0b60139c4e352c5c8812d15216d87409106e9060200160405180910390a35050565b610add6000336112ba565b610af95760405162461bcd60e51b815260040161075c9061268a565b816000610b058261100b565b60008381526005602052604081205491925003610b345760405162461bcd60e51b815260040161075c906124fc565b600084815260056020908152604080832054868452600a9092528220805491928392610b619084906125df565b909155505060008581526005602090815260408083208390556004909152902054610b8d9082906126c1565b6000958652600460205260409095209490945550505050565b826000610bb28261100b565b60008381526005602052604081205491925003610be15760405162461bcd60e51b815260040161075c906124fc565b610bf96000805160206128a3833981519152336112ba565b610c585760405162461bcd60e51b815260206004820152602a60248201527f52414841543a2053656e646572206d75737420626520616e20617574686f72696044820152693d32b21039b2b93b32b960b11b606482015260840161075c565b6000610c638661100b565b6001600160a01b038816600090815260106020908152604080832084845290915281206003810154929350919003610ceb5760405162461bcd60e51b815260206004820152602560248201527f52414841543a20436c61696d20686173206e6f74206265656e2063726561746560448201526419081e595d60da1b606482015260840161075c565b62015180851115610d565760405162461bcd60e51b815260206004820152602f60248201527f52414841543a54696d6520546f204c6976652073686f756c64206265206c657360448201526e73207468616e20323420686f75727360881b606482015260840161075c565b6003810154610d6890620151806125df565b421115610dc35760405162461bcd60e51b815260206004820152602360248201527f52414841543a20436c61696d206973206f6c646572207468616e20323420686f60448201526275727360e81b606482015260840161075c565b600281015460ff1615610e285760405162461bcd60e51b815260206004820152602760248201527f52414841543a20436c61696d2068617320616c7265616479206265656e2072656044820152663632b0b9b2b21760c91b606482015260840161075c565b600180820187905560028201805460ff19169091179055610e4985426125df565b6003820155805460405190815287906001600160a01b038a16907f05ca75b0d90f1dd046ad3b8c1ec4a461042c3d33518b9b67d9feafc7d8d3c6cf906020016109e5565b600082815260208190526040902060010154610ea98133611b7d565b610eb38383611be1565b505050565b6000805b8251811015610efe57828181518110610ed757610ed76126d4565b602002602001015182610eea91906125df565b915080610ef6816126ea565b915050610ebc565b50919050565b6001600160a01b0381163314610f745760405162461bcd60e51b815260206004820152602f60248201527f416363657373436f6e74726f6c3a2063616e206f6e6c792072656e6f756e636560448201526e103937b632b9903337b91039b2b63360891b606482015260840161075c565b610f7e8282611c65565b5050565b610f8d6000336112ba565b610fa95760405162461bcd60e51b815260040161075c9061268a565b600091825260066020526040909120805460ff1916911515919091179055565b610fd46000336112ba565b610ff05760405162461bcd60e51b815260040161075c9061268a565b61100860008051602061286383398151915282610e8d565b50565b600061101682611cca565b6040516020016110269190612703565b604051602081830303815290604052805190602001209050919050565b82600061104f8261100b565b6000838152600560205260408120549192500361107e5760405162461bcd60e51b815260040161075c906124fc565b6110896000336112ba565b6110a55760405162461bcd60e51b815260040161075c9061268a565b6110ae8461191f565b6110ca5760405162461bcd60e51b815260040161075c90612648565b6110d48584611b10565b60025460405163a9059cbb60e01b81526001600160a01b039091169063a9059cbb906111069087908790600401612593565b6020604051808303816000875af1158015611125573d6000803e3d6000fd5b505050506040513d601f19601f8201168201806040525081019061114991906125ac565b506001600160a01b0384166000908152600f6020526040812080548592906111729084906125df565b909155505060405183815285906001600160a01b038616907fe4de809bf00bba73c562150b76ba81e5af05183458342bfdb09a7c9e303813e59060200160405180910390a35050505050565b6111c96000336112ba565b6111e55760405162461bcd60e51b815260040161075c9061268a565b6110086000805160206128a383398151915282610e8d565b6001600160a01b0381166000908152600f6020908152604080832054600e90925282205461070f91906126c1565b6112366000336112ba565b6112525760405162461bcd60e51b815260040161075c9061268a565b611008600082610e8d565b6000816040516020016110269190612703565b6000828152600a60205260408120805483929061128e9084906125df565b9091555050600082815260096020526040812080548392906112b19084906125df565b90915550505050565b6000918252602082815260408084206001600160a01b0393909316845291905290205460ff1690565b8160006112ef8261100b565b6000838152600560205260408120549192500361131e5760405162461bcd60e51b815260040161075c906124fc565b611336600080516020612863833981519152336112ba565b6113525760405162461bcd60e51b815260040161075c90612549565b600360009054906101000a90046001600160a01b03166001600160a01b031663b8f7a6656040518163ffffffff1660e01b8152600401602060405180830381865afa1580156113a5573d6000803e3d6000fd5b505050506040513d601f19601f820116820180604052508101906113c991906125ac565b61143b5760405162461bcd60e51b815260206004820152603f60248201527f5468697320726573706f6e736520686173206e6f74206265656e20616374697660448201527f61746564207965742c20706c6561736520636f6e746163742061646d696e2e00606482015260840161075c565b60008481526006602052604090205460ff16156114a65760405162461bcd60e51b8152602060048201526024808201527f43616e6e6f7420636c61696d2066726f6d2062616e6b65642062656e656669636044820152636961727960e01b606482015260840161075c565b60006114b18561100b565b6000868152600560205260409020549091508411156115385760405162461bcd60e51b815260206004820152603c60248201527f52414841543a20416d6f756e742072657175657374656420697320677265617460448201527f6572207468616e2062656e65666963696172792062616c616e63652e00000000606482015260840161075c565b33600090815260106020908152604080832084845282529182902060028101805460ff191690558681554260038201559151868152879132917f79ef0b2282f5e45718748b37d5a89727c1544ad2f78b126efa97c32ac1f1d232910160405180910390a3505050505050565b6060816001600160401b038111156115be576115be61205a565b6040519080825280602002602001820160405280156115f157816020015b60608152602001906001900390816115dc5790505b50905060005b828110156116915761166130858584818110611615576116156126d4565b9050602002810190611627919061271f565b8080601f016020809104026020016040519081016040528093929190818152602001838380828437600092019190915250611dd292505050565b828281518110611673576116736126d4565b60200260200101819052508080611689906126ea565b9150506115f7565b5092915050565b6116a36000336112ba565b806116c157506116c1600080516020612883833981519152336112ba565b6116dd5760405162461bcd60e51b815260040161075c906125f2565b60006116e88461125d565b9050611702600080516020612883833981519152336112ba565b1561177f576000818152600b6020526040902061171f9033611df7565b61177f5760405162461bcd60e51b815260206004820152602b60248201527f6d6f62696c697a6572206973206e6f74206f6e626f617264656420746f20676960448201526a1d995b881c1c9bda9958dd60aa1b606482015260840161075c565b336000908152600d60205260408120805484929061179e9084906125df565b90915550506000818152600a60205260409020548211156118205760405162461bcd60e51b815260206004820152603660248201527f52414841543a20416d6f756e742069732067726561746572207468616e2072656044820152751b585a5b9a5b99c8141c9bda9958dd08109d5919d95d60521b606482015260840161075c565b6000818152600a60205260408120805484929061183e9084906126c1565b9091555061184e90508383611e19565b82817f707197b34e0edb88707154f8a8ea9f3c8d891eb60a28dac25cc79bf23c3aa5c18460405161188191815260200190565b60405180910390a350505050565b6000828152602081905260409020600101546118ab8133611b7d565b610eb38383611c65565b6118c06000336112ba565b6118dc5760405162461bcd60e51b815260040161075c9061268a565b60006118e78261125d565b905061190160008051602061288383398151915284610e8d565b6000818152600b602052604090206119199084611e6f565b50505050565b600061070f600080516020612863833981519152836112ba565b6060600061194883600261276c565b6119539060026125df565b6001600160401b0381111561196a5761196a61205a565b6040519080825280601f01601f191660200182016040528015611994576020820181803683370190505b509050600360fc1b816000815181106119af576119af6126d4565b60200101906001600160f81b031916908160001a905350600f60fb1b816001815181106119de576119de6126d4565b60200101906001600160f81b031916908160001a9053506000611a0284600261276c565b611a0d9060016125df565b90505b6001811115611a85576f181899199a1a9b1b9c1cb0b131b232b360811b85600f1660108110611a4157611a416126d4565b1a60f81b828281518110611a5757611a576126d4565b60200101906001600160f81b031916908160001a90535060049490941c93611a7e8161278b565b9050611a10565b508315611ad45760405162461bcd60e51b815260206004820181905260248201527f537472696e67733a20686578206c656e67746820696e73756666696369656e74604482015260640161075c565b9392505050565b60006001600160e01b03198216637965db0b60e01b148061070f57506301ffc9a760e01b6001600160e01b031983161461070f565b816000611b1c8261100b565b60008381526005602052604081205491925003611b4b5760405162461bcd60e51b815260040161075c906124fc565b600084815260056020526040902054611b659084906126c1565b60009485526005602052604090942093909355505050565b611b8782826112ba565b610f7e57611b9f816001600160a01b03166014611939565b611baa836020611939565b604051602001611bbb9291906127a2565b60408051601f198184030181529082905262461bcd60e51b825261075c91600401612811565b611beb82826112ba565b610f7e576000828152602081815260408083206001600160a01b03851684529091529020805460ff19166001179055611c213390565b6001600160a01b0316816001600160a01b0316837f2f8788117e7eff1d82e926ec794901d17c78024a50270940304540a733656f0d60405160405180910390a45050565b611c6f82826112ba565b15610f7e576000828152602081815260408083206001600160a01b0385168085529252808320805460ff1916905551339285917ff6391f5c32d9c69d2a47ea670b442974b53935d1edc7fd64eb21e047a839171b9190a45050565b606081600003611cf15750506040805180820190915260018152600360fc1b602082015290565b8160005b8115611d1b5780611d05816126ea565b9150611d149050600a8361283a565b9150611cf5565b6000816001600160401b03811115611d3557611d3561205a565b6040519080825280601f01601f191660200182016040528015611d5f576020820181803683370190505b5090505b8415611dca57611d746001836126c1565b9150611d81600a8661284e565b611d8c9060306125df565b60f81b818381518110611da157611da16126d4565b60200101906001600160f81b031916908160001a905350611dc3600a8661283a565b9450611d63565b949350505050565b6060611ad483836040518060600160405280602781526020016128c360279139611e84565b6001600160a01b03811660009081526001830160205260408120541515611ad4565b600082815260056020526040902054611e339082906125df565b600083815260056020908152604080832093909355600490522054611e599082906125df565b6000928352600460205260409092209190915550565b6000611ad4836001600160a01b038416611f58565b6060833b611ee35760405162461bcd60e51b815260206004820152602660248201527f416464726573733a2064656c65676174652063616c6c20746f206e6f6e2d636f6044820152651b9d1c9858dd60d21b606482015260840161075c565b600080856001600160a01b031685604051611efe9190612703565b600060405180830381855af49150503d8060008114611f39576040519150601f19603f3d011682016040523d82523d6000602084013e611f3e565b606091505b5091509150611f4e828286611fa7565b9695505050505050565b6000818152600183016020526040812054611f9f5750815460018181018455600084815260208082209093018490558454848252828601909352604090209190915561070f565b50600061070f565b60608315611fb6575081611ad4565b825115611fc65782518084602001fd5b8160405162461bcd60e51b815260040161075c9190612811565b600060208284031215611ff257600080fd5b81356001600160e01b031981168114611ad457600080fd5b60006020828403121561201c57600080fd5b5035919050565b80356001600160a01b038116811461203a57600080fd5b919050565b60006020828403121561205157600080fd5b611ad482612023565b634e487b7160e01b600052604160045260246000fd5b604051601f8201601f191681016001600160401b03811182821017156120985761209861205a565b604052919050565b600082601f8301126120b157600080fd5b81356001600160401b038111156120ca576120ca61205a565b6120dd601f8201601f1916602001612070565b8181528460208386010111156120f257600080fd5b816020850160208301376000918101602001919091529392505050565b6000806040838503121561212257600080fd5b8235915060208301356001600160401b0381111561213f57600080fd5b61214b858286016120a0565b9150509250929050565b6000806040838503121561216857600080fd5b61217183612023565b946020939093013593505050565b6000806040838503121561219257600080fd5b50508035926020909101359150565b600080600080608085870312156121b757600080fd5b6121c085612023565b966020860135965060408601359560600135945092505050565b600080604083850312156121ed57600080fd5b823591506121fd60208401612023565b90509250929050565b6000602080838503121561221957600080fd5b82356001600160401b038082111561223057600080fd5b818501915085601f83011261224457600080fd5b8135818111156122565761225661205a565b8060051b9150612267848301612070565b818152918301840191848101908884111561228157600080fd5b938501935b8385101561229f57843582529385019390850190612286565b98975050505050505050565b801515811461100857600080fd5b600080604083850312156122cc57600080fd5b8235915060208301356122de816122ab565b809150509250929050565b6000806000606084860312156122fe57600080fd5b8335925061230e60208501612023565b9150604084013590509250925092565b60006020828403121561233057600080fd5b81356001600160401b0381111561234657600080fd5b611dca848285016120a0565b6000806020838503121561236557600080fd5b82356001600160401b038082111561237c57600080fd5b818501915085601f83011261239057600080fd5b81358181111561239f57600080fd5b8660208260051b85010111156123b457600080fd5b60209290920196919550909350505050565b60005b838110156123e15781810151838201526020016123c9565b50506000910152565b600081518084526124028160208601602086016123c6565b601f01601f19169290920160200192915050565b6000602080830181845280855180835260408601915060408160051b870101925083870160005b8281101561246b57603f198886030184526124598583516123ea565b9450928501929085019060010161243d565b5092979650505050505050565b60008060006060848603121561248d57600080fd5b83356001600160401b038111156124a357600080fd5b6124af868287016120a0565b9660208601359650604090950135949350505050565b600080604083850312156124d857600080fd5b6124e183612023565b915060208301356001600160401b0381111561213f57600080fd5b6020808252602d908201527f52414841543a204e6f20616e7920746f6b656e2077617320697373756564207460408201526c37903a3434b990373ab6b132b960991b606082015260800190565b6020808252602a908201527f52414841543a2053656e646572204d757374206265206120726567697374657260408201526932b2103b32b73237b91760b11b606082015260800190565b6001600160a01b03929092168252602082015260400190565b6000602082840312156125be57600080fd5b8151611ad4816122ab565b634e487b7160e01b600052601160045260246000fd5b8082018082111561070f5761070f6125c9565b60208082526036908201527f52414841543a2053656e646572204d757374206265206120726567697374657260408201527532b21020b236b4b71027b91026b7b134b634bd32b91760511b606082015260800190565b60208082526022908201527f5472616e7366657220746f206d7573742062652076656e646f72206164647265604082015261737360f01b606082015260800190565b6020808252601f908201527f52414841543a2053656e646572206d75737420626520616e2061646d696e2e00604082015260600190565b8181038181111561070f5761070f6125c9565b634e487b7160e01b600052603260045260246000fd5b6000600182016126fc576126fc6125c9565b5060010190565b600082516127158184602087016123c6565b9190910192915050565b6000808335601e1984360301811261273657600080fd5b8301803591506001600160401b0382111561275057600080fd5b60200191503681900382131561276557600080fd5b9250929050565b6000816000190483118215151615612786576127866125c9565b500290565b60008161279a5761279a6125c9565b506000190190565b76020b1b1b2b9b9a1b7b73a3937b61d1030b1b1b7bab73a1604d1b8152600083516127d48160178501602088016123c6565b7001034b99036b4b9b9b4b733903937b6329607d1b60179184019182015283516128058160288401602088016123c6565b01602801949350505050565b602081526000611ad460208301846123ea565b634e487b7160e01b600052601260045260246000fd5b60008261284957612849612824565b500490565b60008261285d5761285d612824565b50069056fe0aaf57387812c7f832412470a57567b5648a930069be49aa9c98d04f88520d34be9e90431f28bd12a87a51b26b014cab620a8a4819bf73d87369ccbe6800a76ccaa7f6290f33308266ee2988386694ac9bc3612b5df272e3502129925a64f997416464726573733a206c6f772d6c6576656c2064656c65676174652063616c6c206661696c6564a264697066735822122077ba580e42b1a07d875d22d3073f75b1bebb2e50cf786d0100f19b3eee7ab1e964736f6c63430008100033caa7f6290f33308266ee2988386694ac9bc3612b5df272e3502129925a64f997",
  "immutableReferences": {},
  "source": "//SPDX-License-Identifier: LGPL-3.0\r\n//TODO add balance of beneficiary per project\r\n//TODO suspend mobilizer and vendor\r\n//TODO test tokenissue by mobilizer\r\n//TODO test otp set by server account and otp submission by vendor account\r\n//TODO revole roles\r\n\r\npragma solidity ^0.8.16;\r\nimport \"./RahatERC20.sol\";\r\nimport \"./RahatTriggerResponse.sol\";\r\nimport \"@openzeppelin/contracts/utils/structs/EnumerableSet.sol\";\r\nimport \"@openzeppelin/contracts/utils/cryptography/ECDSA.sol\";\r\nimport \"@openzeppelin/contracts/utils/Multicall.sol\";\r\n\r\ncontract Rahat is AccessControl, Multicall {\r\n  using Strings for uint256;\r\n  using EnumerableSet for EnumerableSet.Bytes32Set;\r\n  using EnumerableSet for EnumerableSet.AddressSet;\r\n  using EnumerableSet for EnumerableSet.UintSet;\r\n  using ECDSA for bytes32;\r\n\r\n  //***** Events *********//\r\n  event ClaimedERC20(\r\n    address indexed vendor,\r\n    uint256 indexed beneficiary,\r\n    uint256 amount\r\n  );\r\n  event ClaimApproved(\r\n    address indexed vendor,\r\n    uint256 indexed phone,\r\n    uint256 amount\r\n  );\r\n  event IssuedERC20(\r\n    bytes32 indexed projectId,\r\n    uint256 indexed phone,\r\n    uint256 amount\r\n  );\r\n  event ClaimAcquiredERC20(\r\n    address indexed vendor,\r\n    uint256 indexed beneficiary,\r\n    uint256 amount\r\n  );\r\n  event VendorCashTransfer(\r\n    address indexed TransferredBy,\r\n    address indexed vendor,\r\n    uint256 amount\r\n  );\r\n  event InvalidSignature(\r\n    bytes signature,\r\n    bytes32 digest,\r\n    address expectedSigner,\r\n    address recoveredSigner\r\n  );\r\n\r\n  //event BalanceAdjusted(uint256 indexed phone, uint256 amount, string reason);\r\n\r\n  //***** Constant Variables (Roles) *********//\r\n  bytes32 public constant SERVER_ROLE = keccak256(\"SERVER\");\r\n  bytes32 public constant VENDOR_ROLE = keccak256(\"VENDOR\");\r\n  bytes32 public constant MANAGER_ROLE = keccak256(\"MANAGER\");\r\n  bytes32 public constant MOBILIZER_ROLE = keccak256(\"MOBILIZER\");\r\n  bytes32 public constant ISSUE_TOKEN = keccak256(\"issueToken\");\r\n  bytes32 public constant CREATE_CLAIM = keccak256(\"createClaim\");\r\n  bytes32 public constant GET_TOKENS_FROM_CLAIM = keccak256(\r\n    \"getTokensFromClaim\"\r\n  );\r\n\r\n  mapping(address => uint256) public nonces; //delegated users nonces\r\n\r\n  //***** Variables (State) *********//\r\n  //AidToken public tokenContract;\r\n  RahatERC20 public erc20;\r\n  RahatTriggerResponse public triggerResponse;\r\n\r\n  ///@notice track total issued tokens of each benefiicary phone\r\n  mapping(uint256 => uint256) public erc20Issued; //phone=>balance\r\n\r\n  /// @notice track balances of each beneficiary phone\r\n  mapping(uint256 => uint256) public erc20Balance; //phone=>balance\r\n\r\n  mapping(uint256 => bool) public isBanked;\r\n\r\n  /// @notice track projectBalances\r\n  //bytes32[] public projectId;\r\n  EnumerableSet.Bytes32Set private projectId;\r\n  mapping(bytes32 => uint256) totalProjectErc20Issued;\r\n  mapping(bytes32 => uint256) remainingProjectErc20Balances;\r\n  mapping(bytes32 => EnumerableSet.AddressSet) projectMobilizers;\r\n  mapping(bytes32 => EnumerableSet.AddressSet) projectVendors;\r\n\r\n  mapping(address => uint256) public erc20IssuedBy;\r\n\r\n  //For Cash-camp\r\n  mapping(address => uint256) public vendorCashReceived;\r\n  mapping(address => uint256) public vendorCashDispatched;\r\n\r\n  struct claim {\r\n    uint256 amount;\r\n    bytes32 otpHash;\r\n    bool isReleased;\r\n    uint256 date;\r\n  }\r\n  /// @dev vendorAddress => phone => claim\r\n  mapping(address => mapping(bytes32 => claim)) public recentERC20Claims;\r\n\r\n  //***** Constructor *********//\r\n  constructor(\r\n    RahatERC20 _erc20,\r\n    RahatTriggerResponse _triggerResponse,\r\n    address _admin\r\n  ) {\r\n    _setupRole(DEFAULT_ADMIN_ROLE, msg.sender);\r\n    _setupRole(DEFAULT_ADMIN_ROLE, _admin);\r\n    _setRoleAdmin(SERVER_ROLE, DEFAULT_ADMIN_ROLE);\r\n    _setRoleAdmin(VENDOR_ROLE, DEFAULT_ADMIN_ROLE);\r\n    grantRole(SERVER_ROLE, msg.sender);\r\n    erc20 = _erc20;\r\n    triggerResponse = _triggerResponse;\r\n  }\r\n\r\n  function supportsInterface(bytes4 interfaceId)\r\n    public\r\n    view\r\n    virtual\r\n    override(AccessControl)\r\n    returns (bool)\r\n  {\r\n    return super.supportsInterface(interfaceId);\r\n  }\r\n\r\n  //***** Modifiers *********//\r\n  modifier OnlyServer() {\r\n    require(\r\n      hasRole(SERVER_ROLE, msg.sender),\r\n      \"RAHAT: Sender must be an authorized server\"\r\n    );\r\n    _;\r\n  }\r\n  modifier OnlyAdmin {\r\n    require(\r\n      hasRole(DEFAULT_ADMIN_ROLE, msg.sender),\r\n      \"RAHAT: Sender must be an admin.\"\r\n    );\r\n    _;\r\n  }\r\n  modifier IsBeneficiary(uint256 _phone) {\r\n    bytes32 _benId = findHash(_phone);\r\n    require(\r\n      erc20Balance[_phone] != 0,\r\n      \"RAHAT: No any token was issued to this number\"\r\n    );\r\n    _;\r\n  }\r\n  modifier OnlyVendor {\r\n    require(\r\n      hasRole(VENDOR_ROLE, msg.sender),\r\n      \"RAHAT: Sender Must be a registered vendor.\"\r\n    );\r\n    _;\r\n  }\r\n  modifier OnlyAdminOrMobilizer {\r\n    require(\r\n      (hasRole(DEFAULT_ADMIN_ROLE, msg.sender) ||\r\n        hasRole(MOBILIZER_ROLE, msg.sender)),\r\n      \"RAHAT: Sender Must be a registered Admin Or Mobilizer.\"\r\n    );\r\n    _;\r\n  }\r\n\r\n  //***** Methods *********//\r\n  //Access Control Management\r\n  /// @notice add admin of the this contract\r\n  /// @param _account address of the new admin\r\n  function addAdmin(address _account) external OnlyAdmin {\r\n    grantRole(DEFAULT_ADMIN_ROLE, _account);\r\n  }\r\n\r\n  function isAdmin(address _account) external view returns(bool){\r\n    return hasRole(DEFAULT_ADMIN_ROLE, _account);\r\n  }\r\n\r\n  /// @notice add server account for this contract\r\n  /// @param _account address of the new server account\r\n  function addServer(address _account) external OnlyAdmin {\r\n    grantRole(SERVER_ROLE, _account);\r\n  }\r\n\r\n  /// @notice add vendors\r\n  /// @param _account address of the new vendor\r\n  function addVendor(address _account) external OnlyAdmin {\r\n    grantRole(VENDOR_ROLE, _account);\r\n  }\r\n\r\n  function isVendor(address _account) public view returns(bool){\r\n    return hasRole(VENDOR_ROLE, _account);\r\n  }\r\n\r\n  /// @notice add vendors\r\n  /// @param _account address of the new vendor\r\n  /// @param _projectId projectId\r\n  function addMobilizer(address _account, string memory _projectId)\r\n    external\r\n    OnlyAdmin\r\n  {\r\n    bytes32 _id = findHash(_projectId);\r\n    grantRole(MOBILIZER_ROLE, _account);\r\n    projectMobilizers[_id].add(_account);\r\n  }\r\n\r\n  /// @notice set IsBanked Beneficiary\r\n  /// @param _phone beneficiary phone number\r\n  /// @param _isBanked true/false\r\n  function setAsBankedBeneficiary(uint256 _phone, bool _isBanked)\r\n    external\r\n    OnlyAdmin\r\n  {\r\n    isBanked[_phone] = _isBanked;\r\n  }\r\n\r\n  // function suspendMobilizer() public {}\r\n\r\n  // function suspendVendor() public {}\r\n\r\n  //Beneficiary Management\r\n  /// @notice suspend the benficiary by deducting all the balance beneficiary owns\r\n  /// @param _phone phone number of the Beneficiary\r\n  /// @param _projectId projectId beneficiary is involved in\r\n  function suspendBeneficiary(uint256 _phone, bytes32 _projectId)\r\n    public\r\n    OnlyAdmin\r\n    IsBeneficiary(_phone)\r\n  {\r\n    //  bytes32 _benId = findHash(_phone);\r\n\r\n    uint256 _balance = erc20Balance[_phone];\r\n    remainingProjectErc20Balances[_projectId] += _balance;\r\n    erc20Balance[_phone] = 0;\r\n    erc20Issued[_phone] = erc20Issued[_phone] - _balance;\r\n  }\r\n\r\n  /// @notice adds the token from beneficiary\r\n  function adjustTokenAdd(uint256 _phone, uint256 _amount) private {\r\n    // bytes32 _benId = findHash(_phone);\r\n    erc20Balance[_phone] = erc20Balance[_phone] + _amount;\r\n    erc20Issued[_phone] = erc20Issued[_phone] + _amount;\r\n    //emit BalanceAdjusted(_phone, _amount, _reason);\r\n  }\r\n\r\n  /// @notice deducts the token from beneficiary\r\n  function adjustTokenDeduct(uint256 _phone, uint256 _amount)\r\n    private\r\n    IsBeneficiary(_phone)\r\n  {\r\n    //bytes32 _benId = findHash(_phone);\r\n    erc20Balance[_phone] = erc20Balance[_phone] - _amount;\r\n    //emit BalanceAdjusted(_phone, _amount, _reason);\r\n  }\r\n\r\n  /// @notice update a project balance.\r\n  /// @notice called by rahatdmin contract\r\n  /// @param _projectId Id of the project to assign budget\r\n  /// @param _projectCapital amount of budget to be added to project\r\n  function updateProjectBudget(bytes32 _projectId, uint256 _projectCapital)\r\n    external\r\n  {\r\n    remainingProjectErc20Balances[_projectId] += _projectCapital;\r\n    totalProjectErc20Issued[_projectId] += _projectCapital;\r\n  }\r\n\r\n  /// @notice get the current balance of project\r\n  function getProjectBalance(bytes32 _projectId)\r\n    external\r\n    view\r\n    returns (uint256 _balance)\r\n  {\r\n    return remainingProjectErc20Balances[_projectId];\r\n  }\r\n\r\n  function verifyVendor(bytes32 _hash, bytes memory _signature)\r\n    internal\r\n    view\r\n    returns (address)\r\n  {\r\n    address _signer = _hash.recover(_signature);\r\n    require(hasRole(VENDOR_ROLE, _signer), \"Signer should be Mobilizer\");\r\n    return _signer;\r\n  }\r\n\r\n  function verifyMobilizer(bytes32 _hash, bytes memory _signature)\r\n    internal\r\n    view\r\n    returns (address)\r\n  {\r\n    address _signer = _hash.recover(_signature);\r\n    require(hasRole(MOBILIZER_ROLE, _signer), \"Signer should be Mobilizer\");\r\n    return _signer;\r\n  }\r\n\r\n  /// @notice Issue tokens to beneficiary\r\n  /// @param _projectId Id of the project beneficiary is involved in\r\n  /// @param _phone phone number of the beneficiary\r\n  /// @param _amount Amount of token to be assigned to beneficiary\r\n  function issueERC20ToBeneficiary(\r\n    string memory _projectId,\r\n    uint256 _phone,\r\n    uint256 _amount\r\n  ) public OnlyAdminOrMobilizer {\r\n    bytes32 _id = findHash(_projectId);\r\n\r\n    if (hasRole(MOBILIZER_ROLE, msg.sender)) {\r\n      require(\r\n        projectMobilizers[_id].contains(msg.sender),\r\n        \"mobilizer is not onboarded to given project\"\r\n      );\r\n    }\r\n    erc20IssuedBy[msg.sender] += _amount;\r\n\r\n    require(\r\n      remainingProjectErc20Balances[_id] >= _amount,\r\n      \"RAHAT: Amount is greater than remaining Project Budget\"\r\n    );\r\n    remainingProjectErc20Balances[_id] -= _amount;\r\n    adjustTokenAdd(_phone, _amount);\r\n\r\n    emit IssuedERC20(_id, _phone, _amount);\r\n  }\r\n\r\n  /// @notice request a token to beneficiary by vendor\r\n  /// @param _phone Phone number of beneficiary to whom token is requested\r\n  /// @param _tokens Number of tokens to request\r\n  function createERC20Claim(uint256 _phone, uint256 _tokens)\r\n    public\r\n    IsBeneficiary(_phone)\r\n    OnlyVendor\r\n  {\r\n    require(\r\n      triggerResponse.isLive(),\r\n      \"This response has not been activated yet, please contact admin.\"\r\n    );\r\n    require(!isBanked[_phone], \"Cannot claim from banked beneficiary\");\r\n\r\n    bytes32 _benId = findHash(_phone);\r\n    require(\r\n      erc20Balance[_phone] >= _tokens,\r\n      \"RAHAT: Amount requested is greater than beneficiary balance.\"\r\n    );\r\n\r\n    claim storage ac = recentERC20Claims[msg.sender][_benId];\r\n    ac.isReleased = false;\r\n    ac.amount = _tokens;\r\n    ac.date = block.timestamp;\r\n    emit ClaimedERC20(tx.origin, _phone, _tokens);\r\n  }\r\n\r\n  /// @notice Approve the requested claim from serverside and set the otp hash\r\n  /// @param _vendor Address of the vendor who requested the token from beneficiary\r\n  /// @param _phone Phone number of the beneficiary, to whom token request was sent\r\n  /// @param _otpHash Hash of OTP sent to beneficiary by server\r\n  /// @param _timeToLive Validity of OTP in seconds\r\n  function approveERC20Claim(\r\n    address _vendor,\r\n    uint256 _phone,\r\n    bytes32 _otpHash,\r\n    uint256 _timeToLive\r\n  ) public IsBeneficiary(_phone) OnlyServer {\r\n    bytes32 _benId = findHash(_phone);\r\n    claim storage ac = recentERC20Claims[_vendor][_benId];\r\n    require(ac.date != 0, \"RAHAT: Claim has not been created yet\");\r\n    require(\r\n      _timeToLive <= 86400,\r\n      \"RAHAT:Time To Live should be less than 24 hours\"\r\n    );\r\n    require(\r\n      block.timestamp <= ac.date + 86400,\r\n      \"RAHAT: Claim is older than 24 hours\"\r\n    );\r\n    require(!ac.isReleased, \"RAHAT: Claim has already been released.\");\r\n    ac.otpHash = _otpHash;\r\n    ac.isReleased = true;\r\n    ac.date = block.timestamp + _timeToLive;\r\n    emit ClaimApproved(_vendor, _phone, ac.amount);\r\n  }\r\n\r\n  /// @notice Retrieve tokens that was requested to beneficiary by entering OTP\r\n  /// @param _phone Phone Number of the beneficiary, to whom token request was sent\r\n  /// @param _otp OTP sent by the server\r\n  function getERC20FromClaim(uint256 _phone, string memory _otp)\r\n    public\r\n    IsBeneficiary(_phone)\r\n    OnlyVendor\r\n  {\r\n    bytes32 _benId = findHash(_phone);\r\n    claim storage ac = recentERC20Claims[msg.sender][_benId];\r\n    require(ac.isReleased, \"RAHAT: Claim has not been released.\");\r\n    require(ac.date >= block.timestamp, \"RAHAT: Claim has already expired.\");\r\n    bytes32 otpHash = findHash(_otp);\r\n    require(\r\n      recentERC20Claims[msg.sender][_benId].otpHash == otpHash,\r\n      \"RAHAT: OTP did not match.\"\r\n    );\r\n    adjustTokenDeduct(_phone, ac.amount);\r\n    uint256 amt = ac.amount;\r\n    ac.isReleased = false;\r\n    ac.amount = 0;\r\n    ac.date = 0;\r\n    erc20.transfer(msg.sender, amt);\r\n    vendorCashDispatched[msg.sender] += amt;\r\n    emit ClaimAcquiredERC20(msg.sender, _phone, amt);\r\n  }\r\n\r\n  /// @notice Admin function to transfer beneficiary token to vendor\r\n  /// @param _phone Phone number of beneficiary to whom token is requested\r\n  /// @param _address vendor's address\r\n  /// @param _amount Number of tokens to request\r\n  function transferTokenToVendorByAdmin(uint256 _phone, address _address, uint256 _amount) \r\n    public IsBeneficiary(_phone) OnlyAdmin {\r\n      require(isVendor(_address), \"Transfer to must be vendor address\");\r\n      adjustTokenDeduct(_phone, _amount);\r\n      erc20.transfer(_address, _amount);\r\n      vendorCashDispatched[_address] += _amount;\r\n      emit ClaimAcquiredERC20(_address, _phone, _amount);\r\n  }\r\n\r\n  function transferCashToVendor(address _address, uint256 _amount) \r\n    public OnlyAdminOrMobilizer {\r\n      require(isVendor(_address), \"Transfer to must be vendor address\");\r\n      vendorCashReceived[_address] += _amount;\r\n      emit VendorCashTransfer(msg.sender, _address, _amount);\r\n  }\r\n\r\n  function getVendorCashBalance(address _address) \r\n    public view returns (uint256) {\r\n      return vendorCashReceived[_address] - vendorCashDispatched[_address];\r\n  }\r\n\r\n  /// @notice generates the hash of the given string\r\n  /// @param _data String of which hash is to be generated\r\n  function findHash(string memory _data) public pure returns (bytes32) {\r\n    return keccak256(abi.encodePacked(_data));\r\n  }\r\n\r\n  /// @notice generates the hash of the given string\r\n  /// @param _data String of which hash is to be generated\r\n  function findHash(uint256 _data) public pure returns (bytes32) {\r\n    return keccak256(abi.encodePacked(_data.toString()));\r\n  }\r\n\r\n  /// @notice Generates the sum of all the integers in array\r\n  /// @param _array Array of uint\r\n  function getArraySum(uint256[] memory _array)\r\n    public\r\n    pure\r\n    returns (uint256 sum)\r\n  {\r\n    sum = 0;\r\n    for (uint256 i = 0; i < _array.length; i++) {\r\n      sum += _array[i];\r\n    }\r\n    return sum;\r\n  }\r\n}\r\n",
  "sourcePath": "S:\\Projects\\rahat\\unicef-np\\rahat-contracts\\src\\contracts\\Rahat.sol",
  "compiler": {
    "name": "solc",
    "version": "0.8.16+commit.07a7930e.Emscripten.clang"
  },
  "schemaVersion": "3.4.10",
  "updatedAt": "2022-11-22T08:38:18.957Z",
  "devdoc": {
    "kind": "dev",
    "methods": {
      "addAdmin(address)": {
        "params": {
          "_account": "address of the new admin"
        }
      },
      "addMobilizer(address,string)": {
        "params": {
          "_account": "address of the new vendor",
          "_projectId": "projectId"
        }
      },
      "addServer(address)": {
        "params": {
          "_account": "address of the new server account"
        }
      },
      "addVendor(address)": {
        "params": {
          "_account": "address of the new vendor"
        }
      },
      "approveERC20Claim(address,uint256,bytes32,uint256)": {
        "params": {
          "_otpHash": "Hash of OTP sent to beneficiary by server",
          "_phone": "Phone number of the beneficiary, to whom token request was sent",
          "_timeToLive": "Validity of OTP in seconds",
          "_vendor": "Address of the vendor who requested the token from beneficiary"
        }
      },
      "createERC20Claim(uint256,uint256)": {
        "params": {
          "_phone": "Phone number of beneficiary to whom token is requested",
          "_tokens": "Number of tokens to request"
        }
      },
      "findHash(string)": {
        "params": {
          "_data": "String of which hash is to be generated"
        }
      },
      "findHash(uint256)": {
        "params": {
          "_data": "String of which hash is to be generated"
        }
      },
      "getArraySum(uint256[])": {
        "params": {
          "_array": "Array of uint"
        }
      },
      "getERC20FromClaim(uint256,string)": {
        "params": {
          "_otp": "OTP sent by the server",
          "_phone": "Phone Number of the beneficiary, to whom token request was sent"
        }
      },
      "getRoleAdmin(bytes32)": {
        "details": "Returns the admin role that controls `role`. See {grantRole} and {revokeRole}. To change a role's admin, use {_setRoleAdmin}."
      },
      "grantRole(bytes32,address)": {
        "details": "Grants `role` to `account`. If `account` had not been already granted `role`, emits a {RoleGranted} event. Requirements: - the caller must have ``role``'s admin role."
      },
      "hasRole(bytes32,address)": {
        "details": "Returns `true` if `account` has been granted `role`."
      },
      "issueERC20ToBeneficiary(string,uint256,uint256)": {
        "params": {
          "_amount": "Amount of token to be assigned to beneficiary",
          "_phone": "phone number of the beneficiary",
          "_projectId": "Id of the project beneficiary is involved in"
        }
      },
      "multicall(bytes[])": {
        "details": "Receives and executes a batch of function calls on this contract."
      },
      "renounceRole(bytes32,address)": {
        "details": "Revokes `role` from the calling account. Roles are often managed via {grantRole} and {revokeRole}: this function's purpose is to provide a mechanism for accounts to lose their privileges if they are compromised (such as when a trusted device is misplaced). If the calling account had been revoked `role`, emits a {RoleRevoked} event. Requirements: - the caller must be `account`."
      },
      "revokeRole(bytes32,address)": {
        "details": "Revokes `role` from `account`. If `account` had been granted `role`, emits a {RoleRevoked} event. Requirements: - the caller must have ``role``'s admin role."
      },
      "setAsBankedBeneficiary(uint256,bool)": {
        "params": {
          "_isBanked": "true/false",
          "_phone": "beneficiary phone number"
        }
      },
      "supportsInterface(bytes4)": {
        "details": "See {IERC165-supportsInterface}."
      },
      "suspendBeneficiary(uint256,bytes32)": {
        "params": {
          "_phone": "phone number of the Beneficiary",
          "_projectId": "projectId beneficiary is involved in"
        }
      },
      "transferTokenToVendorByAdmin(uint256,address,uint256)": {
        "params": {
          "_address": "vendor's address",
          "_amount": "Number of tokens to request",
          "_phone": "Phone number of beneficiary to whom token is requested"
        }
      },
      "updateProjectBudget(bytes32,uint256)": {
        "params": {
          "_projectCapital": "amount of budget to be added to project",
          "_projectId": "Id of the project to assign budget"
        }
      }
    },
    "stateVariables": {
      "recentERC20Claims": {
        "details": "vendorAddress => phone => claim"
      }
    },
    "version": 1
  },
  "userdoc": {
    "kind": "user",
    "methods": {
      "addAdmin(address)": {
        "notice": "add admin of the this contract"
      },
      "addMobilizer(address,string)": {
        "notice": "add vendors"
      },
      "addServer(address)": {
        "notice": "add server account for this contract"
      },
      "addVendor(address)": {
        "notice": "add vendors"
      },
      "approveERC20Claim(address,uint256,bytes32,uint256)": {
        "notice": "Approve the requested claim from serverside and set the otp hash"
      },
      "createERC20Claim(uint256,uint256)": {
        "notice": "request a token to beneficiary by vendor"
      },
      "erc20Balance(uint256)": {
        "notice": "track balances of each beneficiary phone"
      },
      "erc20Issued(uint256)": {
        "notice": "track total issued tokens of each benefiicary phone"
      },
      "findHash(string)": {
        "notice": "generates the hash of the given string"
      },
      "findHash(uint256)": {
        "notice": "generates the hash of the given string"
      },
      "getArraySum(uint256[])": {
        "notice": "Generates the sum of all the integers in array"
      },
      "getERC20FromClaim(uint256,string)": {
        "notice": "Retrieve tokens that was requested to beneficiary by entering OTP"
      },
      "getProjectBalance(bytes32)": {
        "notice": "get the current balance of project"
      },
      "issueERC20ToBeneficiary(string,uint256,uint256)": {
        "notice": "Issue tokens to beneficiary"
      },
      "setAsBankedBeneficiary(uint256,bool)": {
        "notice": "set IsBanked Beneficiary"
      },
      "suspendBeneficiary(uint256,bytes32)": {
        "notice": "suspend the benficiary by deducting all the balance beneficiary owns"
      },
      "transferTokenToVendorByAdmin(uint256,address,uint256)": {
        "notice": "Admin function to transfer beneficiary token to vendor"
      },
      "updateProjectBudget(bytes32,uint256)": {
        "notice": "update a project balance.called by rahatdmin contract"
      }
    },
    "version": 1
  }
}