{
  "contractName": "RahatAdmin",
  "abi": [
    {
      "inputs": [
        {
          "internalType": "contract RahatERC20",
          "name": "_erc20",
          "type": "address"
        },
        {
          "internalType": "contract Rahat",
          "name": "_rahatContract",
          "type": "address"
        },
        {
          "internalType": "address",
          "name": "_admin",
          "type": "address"
        }
      ],
      "stateMutability": "nonpayable",
      "type": "constructor"
    },
    {
      "anonymous": false,
      "inputs": [
        {
          "indexed": false,
          "internalType": "bool",
          "name": "success",
          "type": "bool"
        }
      ],
      "name": "Minted",
      "type": "event"
    },
    {
      "anonymous": false,
      "inputs": [
        {
          "indexed": true,
          "internalType": "bytes32",
          "name": "projectId",
          "type": "bytes32"
        },
        {
          "indexed": false,
          "internalType": "uint256",
          "name": "projectCapital",
          "type": "uint256"
        },
        {
          "indexed": false,
          "internalType": "string",
          "name": "tag",
          "type": "string"
        }
      ],
      "name": "ProjectERC20BudgetUpdated",
      "type": "event"
    },
    {
      "inputs": [
        {
          "internalType": "address",
          "name": "_account",
          "type": "address"
        }
      ],
      "name": "addOwner",
      "outputs": [
        {
          "internalType": "bool",
          "name": "",
          "type": "bool"
        }
      ],
      "stateMutability": "nonpayable",
      "type": "function"
    },
    {
      "inputs": [
        {
          "internalType": "address",
          "name": "_token",
          "type": "address"
        },
        {
          "internalType": "address",
          "name": "_spender",
          "type": "address"
        },
        {
          "internalType": "uint256",
          "name": "_amount",
          "type": "uint256"
        }
      ],
      "name": "approveToken",
      "outputs": [],
      "stateMutability": "nonpayable",
      "type": "function"
    },
    {
      "inputs": [],
      "name": "cashToken",
      "outputs": [
        {
          "internalType": "contract RahatERC20",
          "name": "",
          "type": "address"
        }
      ],
      "stateMutability": "view",
      "type": "function"
    },
    {
      "inputs": [],
      "name": "erc20",
      "outputs": [
        {
          "internalType": "contract RahatERC20",
          "name": "",
          "type": "address"
        }
      ],
      "stateMutability": "view",
      "type": "function"
    },
    {
      "inputs": [],
      "name": "listAdmins",
      "outputs": [
        {
          "internalType": "address[]",
          "name": "",
          "type": "address[]"
        }
      ],
      "stateMutability": "view",
      "type": "function"
    },
    {
      "inputs": [
        {
          "internalType": "address",
          "name": "",
          "type": "address"
        }
      ],
      "name": "owner",
      "outputs": [
        {
          "internalType": "bool",
          "name": "",
          "type": "bool"
        }
      ],
      "stateMutability": "view",
      "type": "function"
    },
    {
      "inputs": [
        {
          "internalType": "bytes32",
          "name": "",
          "type": "bytes32"
        }
      ],
      "name": "projectERC20Capital",
      "outputs": [
        {
          "internalType": "uint256",
          "name": "",
          "type": "uint256"
        }
      ],
      "stateMutability": "view",
      "type": "function"
    },
    {
      "inputs": [
        {
          "internalType": "bytes32",
          "name": "",
          "type": "bytes32"
        }
      ],
      "name": "projectExists",
      "outputs": [
        {
          "internalType": "bool",
          "name": "",
          "type": "bool"
        }
      ],
      "stateMutability": "view",
      "type": "function"
    },
    {
      "inputs": [
        {
          "internalType": "uint256",
          "name": "",
          "type": "uint256"
        }
      ],
      "name": "projectId",
      "outputs": [
        {
          "internalType": "bytes32",
          "name": "",
          "type": "bytes32"
        }
      ],
      "stateMutability": "view",
      "type": "function"
    },
    {
      "inputs": [],
      "name": "rahatContract",
      "outputs": [
        {
          "internalType": "contract Rahat",
          "name": "",
          "type": "address"
        }
      ],
      "stateMutability": "view",
      "type": "function"
    },
    {
      "inputs": [
        {
          "internalType": "address",
          "name": "_account",
          "type": "address"
        }
      ],
      "name": "removeOwner",
      "outputs": [
        {
          "internalType": "bool",
          "name": "",
          "type": "bool"
        }
      ],
      "stateMutability": "nonpayable",
      "type": "function"
    },
    {
      "inputs": [
        {
          "internalType": "address",
          "name": "_token",
          "type": "address"
        },
        {
          "internalType": "address",
          "name": "_from",
          "type": "address"
        },
        {
          "internalType": "address",
          "name": "_to",
          "type": "address"
        },
        {
          "internalType": "uint256",
          "name": "_amount",
          "type": "uint256"
        }
      ],
      "name": "transferFromToken",
      "outputs": [],
      "stateMutability": "nonpayable",
      "type": "function"
    },
    {
      "inputs": [
        {
          "internalType": "address",
          "name": "_token",
          "type": "address"
        },
        {
          "internalType": "address",
          "name": "_to",
          "type": "address"
        },
        {
          "internalType": "uint256",
          "name": "_amount",
          "type": "uint256"
        }
      ],
      "name": "transferToken",
      "outputs": [],
      "stateMutability": "nonpayable",
      "type": "function"
    },
    {
      "inputs": [
        {
          "internalType": "string",
          "name": "_projectId",
          "type": "string"
        },
        {
          "internalType": "uint256",
          "name": "_projectCapital",
          "type": "uint256"
        }
      ],
      "name": "setProjectBudget_ERC20",
      "outputs": [],
      "stateMutability": "nonpayable",
      "type": "function"
    },
    {
      "inputs": [
        {
          "internalType": "string",
          "name": "_projectId",
          "type": "string"
        }
      ],
      "name": "getProjecERC20Balance",
      "outputs": [
        {
          "internalType": "uint256",
          "name": "_balance",
          "type": "uint256"
        }
      ],
      "stateMutability": "view",
      "type": "function"
    },
    {
      "inputs": [
        {
          "internalType": "address",
          "name": "_token",
          "type": "address"
        },
        {
          "internalType": "address",
          "name": "_from",
          "type": "address"
        },
        {
          "internalType": "uint256",
          "name": "_amount",
          "type": "uint256"
        }
      ],
      "name": "claimToken",
      "outputs": [],
      "stateMutability": "nonpayable",
      "type": "function"
    },
    {
      "inputs": [
        {
          "internalType": "address",
          "name": "_address",
          "type": "address"
        },
        {
          "internalType": "uint256",
          "name": "_amount",
          "type": "uint256"
        }
      ],
      "name": "mintERC20",
      "outputs": [],
      "stateMutability": "nonpayable",
      "type": "function"
    }
  ],
  "bytecode": "0x608060405234801561001057600080fd5b506040516112e13803806112e183398101604081905261002f91610096565b600380546001600160a01b03199081166001600160a01b03958616179091556005805490911692841692909217909155166000908152600260205260409020805460ff191660011790556100e3565b6001600160a01b038116811461009357600080fd5b50565b6000806000606084860312156100ab57600080fd5b83516100b68161007e565b60208501519093506100c78161007e565b60408501519092506100d88161007e565b809150509250925092565b6111ef806100f26000396000f3fe608060405234801561001057600080fd5b50600436106100eb5760003560e01c80637065cb48116100925780637065cb48146101e5578063785e9e86146101f85780637c4ca9cc1461020b578063a591afbe1461021e578063a722468714610233578063da3e339714610246578063f5537ede14610259578063f7597a4f1461026c578063fb3c0d701461028c57600080fd5b8063125bfb66146100f0578063173825d914610105578063179680b11461012d57806334854e2f1461014057806338975895146101615780634dd1f816146101845780634ff1a56914610197578063666e1b39146101c2575b600080fd5b6101036100fe366004610de8565b61029f565b005b610118610113366004610e24565b610313565b60405190151581526020015b60405180910390f35b61010361013b366004610ee2565b610377565b61015361014e366004610f27565b6107ab565b604051908152602001610124565b61011861016f366004610f64565b60076020526000908152604090205460ff1681565b610153610192366004610f64565b61088c565b6005546101aa906001600160a01b031681565b6040516001600160a01b039091168152602001610124565b6101186101d0366004610e24565b60026020526000908152604090205460ff1681565b6101186101f3366004610e24565b6108ad565b6003546101aa906001600160a01b031681565b610103610219366004610f7d565b610909565b6102266109ad565b6040516101249190610fa7565b6004546101aa906001600160a01b031681565b610103610254366004610de8565b6109be565b610103610267366004610de8565b610a5e565b61015361027a366004610f64565b60086020526000908152604090205481565b61010361029a366004610ff4565b610abb565b3360009081526002602052604090205460ff166102d75760405162461bcd60e51b81526004016102ce9061103f565b60405180910390fd5b6004546001600160a01b031661030357600480546001600160a01b0319166001600160a01b0385161790555b61030e838383610b64565b505050565b3360009081526002602052604081205460ff166103425760405162461bcd60e51b81526004016102ce9061103f565b6001600160a01b0382166000908152600260205260408120805460ff1916905561036c9083610bc3565b50600190505b919050565b3360009081526002602052604090205460ff166103a65760405162461bcd60e51b81526004016102ce9061103f565b8160006103b282610be1565b60008181526007602052604090205490915060ff16156105965760006103d785610be1565b9050836008600083815260200190815260200160002060008282546103fc919061109c565b90915550506003546005546040516340c10f1960e01b81526001600160a01b03928316926340c10f19926104379291169088906004016110af565b6020604051808303816000875af1158015610456573d6000803e3d6000fd5b505050506040513d601f19601f8201168201806040525081019061047a91906110c8565b506004805460055460405163095ea7b360e01b81526001600160a01b039283169363095ea7b3936104af9316918991016110af565b6020604051808303816000875af11580156104ce573d6000803e3d6000fd5b505050506040513d601f19601f820116820180604052508101906104f291906110e1565b50600554604051638825756760e01b815260048101839052602481018690526001600160a01b0390911690638825756790604401600060405180830381600087803b15801561054057600080fd5b505af1158015610554573d6000803e3d6000fd5b50505050807ffb81835777f5c1e6fd7d6eb84fa729934ae66884bf599bb714743f575ec7b577856040516105889190611103565b60405180910390a2506107a5565b6006805460018181019092557ff652222313e28459528d920b65115c16c04f3efc82aaedc97be59f3f377c0d3f018290556000828152600760205260408120805460ff19169092179091556105ea85610be1565b90508360086000838152602001908152602001600020600082825461060f919061109c565b90915550506003546005546040516340c10f1960e01b81526001600160a01b03928316926340c10f199261064a9291169088906004016110af565b6020604051808303816000875af1158015610669573d6000803e3d6000fd5b505050506040513d601f19601f8201168201806040525081019061068d91906110c8565b506004805460055460405163095ea7b360e01b81526001600160a01b039283169363095ea7b3936106c29316918991016110af565b6020604051808303816000875af11580156106e1573d6000803e3d6000fd5b505050506040513d601f19601f8201168201806040525081019061070591906110e1565b50600554604051638825756760e01b815260048101839052602481018690526001600160a01b0390911690638825756790604401600060405180830381600087803b15801561075357600080fd5b505af1158015610767573d6000803e3d6000fd5b50505050807ffb81835777f5c1e6fd7d6eb84fa729934ae66884bf599bb714743f575ec7b5778560405161079b9190611103565b60405180910390a2505b50505050565b6000806107b783610be1565b60008181526007602052604090205490915060ff166108185760405162461bcd60e51b815260206004820152601e60248201527f52414841545f41444d494e3a20496e76616c69642050726f6a6563744944000060448201526064016102ce565b6005546040516367bc276d60e11b8152600481018390526001600160a01b039091169063cf784eda90602401602060405180830381865afa158015610861573d6000803e3d6000fd5b505050506040513d601f19601f8201168201806040525081019061088591906110c8565b9392505050565b6006818154811061089c57600080fd5b600091825260209091200154905081565b3360009081526002602052604081205460ff166108dc5760405162461bcd60e51b81526004016102ce9061103f565b6001600160a01b0382166000908152600260205260408120805460ff1916600117905561036c9083610c11565b3360009081526002602052604090205460ff166109385760405162461bcd60e51b81526004016102ce9061103f565b6003546040516340c10f1960e01b81526001600160a01b03909116906340c10f199061096a90859085906004016110af565b6020604051808303816000875af1158015610989573d6000803e3d6000fd5b505050506040513d601f19601f8201168201806040525081019061030e91906110c8565b60606109b96000610c26565b905090565b3360009081526002602052604090205460ff166109ed5760405162461bcd60e51b81526004016102ce9061103f565b60405163095ea7b360e01b81526001600160a01b0384169063095ea7b390610a1b90859085906004016110af565b6020604051808303816000875af1158015610a3a573d6000803e3d6000fd5b505050506040513d601f19601f820116820180604052508101906107a591906110e1565b3360009081526002602052604090205460ff16610a8d5760405162461bcd60e51b81526004016102ce9061103f565b60405163a9059cbb60e01b81526001600160a01b0384169063a9059cbb90610a1b90859085906004016110af565b3360009081526002602052604090205460ff16610aea5760405162461bcd60e51b81526004016102ce9061103f565b6040516323b872dd60e01b81526001600160a01b038516906323b872dd90610b1a90869086908690600401611127565b6020604051808303816000875af1158015610b39573d6000803e3d6000fd5b505050506040513d601f19601f82011682018060405250810190610b5d91906110e1565b5050505050565b3360009081526002602052604090205460ff16610b935760405162461bcd60e51b81526004016102ce9061103f565b6040516323b872dd60e01b81526001600160a01b038416906323b872dd90610a1b90859030908690600401611127565b6000610bd8836001600160a01b038416610c33565b90505b92915050565b600081604051602001610bf4919061114b565b604051602081830303815290604052805190602001209050919050565b6000610bd8836001600160a01b038416610d26565b6060600061088583610d75565b60008181526001830160205260408120548015610d1c576000610c5760018361117a565b8554909150600090610c6b9060019061117a565b9050818114610cd0576000866000018281548110610c8b57610c8b61118d565b9060005260206000200154905080876000018481548110610cae57610cae61118d565b6000918252602080832090910192909255918252600188019052604090208390555b8554869080610ce157610ce16111a3565b600190038181906000526020600020016000905590558560010160008681526020019081526020016000206000905560019350505050610bdb565b6000915050610bdb565b6000818152600183016020526040812054610d6d57508154600181810184556000848152602080822090930184905584548482528286019093526040902091909155610bdb565b506000610bdb565b606081600001805480602002602001604051908101604052809291908181526020018280548015610dc557602002820191906000526020600020905b815481526020019060010190808311610db1575b50505050509050919050565b80356001600160a01b038116811461037257600080fd5b600080600060608486031215610dfd57600080fd5b610e0684610dd1565b9250610e1460208501610dd1565b9150604084013590509250925092565b600060208284031215610e3657600080fd5b610bd882610dd1565b634e487b7160e01b600052604160045260246000fd5b600082601f830112610e6657600080fd5b813567ffffffffffffffff80821115610e8157610e81610e3f565b604051601f8301601f19908116603f01168101908282118183101715610ea957610ea9610e3f565b81604052838152866020858801011115610ec257600080fd5b836020870160208301376000602085830101528094505050505092915050565b60008060408385031215610ef557600080fd5b823567ffffffffffffffff811115610f0c57600080fd5b610f1885828601610e55565b95602094909401359450505050565b600060208284031215610f3957600080fd5b813567ffffffffffffffff811115610f5057600080fd5b610f5c84828501610e55565b949350505050565b600060208284031215610f7657600080fd5b5035919050565b60008060408385031215610f9057600080fd5b610f9983610dd1565b946020939093013593505050565b6020808252825182820181905260009190848201906040850190845b81811015610fe85783516001600160a01b031683529284019291840191600101610fc3565b50909695505050505050565b6000806000806080858703121561100a57600080fd5b61101385610dd1565b935061102160208601610dd1565b925061102f60408601610dd1565b9396929550929360600135925050565b60208082526027908201527f4f6e6c79206f776e65722063616e20657865637574652074686973207472616e60408201526639b0b1ba34b7b760c91b606082015260800190565b634e487b7160e01b600052601160045260246000fd5b80820180821115610bdb57610bdb611086565b6001600160a01b03929092168252602082015260400190565b6000602082840312156110da57600080fd5b5051919050565b6000602082840312156110f357600080fd5b8151801515811461088557600080fd5b9081526040602082018190526003908201526218591960ea1b606082015260800190565b6001600160a01b039384168152919092166020820152604081019190915260600190565b6000825160005b8181101561116c5760208186018101518583015201611152565b506000920191825250919050565b81810381811115610bdb57610bdb611086565b634e487b7160e01b600052603260045260246000fd5b634e487b7160e01b600052603160045260246000fdfea26469706673582212209aadd73cb830d29171aab746fd8dcbce8026f5ff2836b450200d4ce3d640919f64736f6c63430008100033",
  "immutableReferences": {},
  "source": "//SPDX-License-Identifier: LGPL-3.0\r\n\r\npragma solidity ^0.8.16;\r\n\r\nimport \"./RahatERC20.sol\";\r\nimport \"./Rahat.sol\";\r\nimport \"../libraries/AbstractERC20Func.sol\";\r\n\r\n/// @title Rahat Admin contract - owns all the tokens initially minted\r\n/// @author Rumsan Associates\r\n/// @notice You can use this contract to manage Rahat tokens and projects\r\n/// @dev All function calls are only executed by contract owner\r\ncontract RahatAdmin is AbstractERC20Func {\r\n  using EnumerableSet for EnumerableSet.UintSet;\r\n\r\n  event ProjectERC20BudgetUpdated(\r\n    bytes32 indexed projectId,\r\n    uint256 projectCapital,\r\n    string tag\r\n  );\r\n\r\n  event Minted(bool success);\r\n\r\n  // uint256 public mintData ;\r\n  // bool public mintSuccess =false;\r\n\r\n  RahatERC20 public erc20;\r\n  RahatERC20 public cashToken;\r\n  Rahat public rahatContract;\r\n\r\n  /// @notice list of projects\r\n  bytes32[] public projectId;\r\n\r\n  /// @notice check if projectId exists or not;\r\n  mapping(bytes32 => bool) public projectExists;\r\n\r\n  /// @notice assign budgets to project\r\n  mapping(bytes32 => uint256) public projectERC20Capital;\r\n\r\n  modifier CheckProject(string memory _projectId) {\r\n    bytes32 _id = findHash(_projectId);\r\n    if (projectExists[_id]) {\r\n      _;\r\n    } else {\r\n      projectId.push(_id);\r\n      projectExists[_id] = true;\r\n      _;\r\n    }\r\n  }\r\n\r\n  /// @notice All the supply is allocated to this contract\r\n  /// @dev deploys AidToken and Rahat contract by sending supply to this contract\r\n  constructor(\r\n    RahatERC20 _erc20,\r\n    Rahat _rahatContract,\r\n    address _admin\r\n  ) {\r\n    erc20 = _erc20;\r\n    rahatContract = _rahatContract;\r\n    owner[_admin] = true;\r\n  }\r\n\r\n  /// @notice allocate token to projects\r\n  /// @dev Allocates token to the given projectId, Creates project and transfer tokens to Rahat contract.\r\n  /// @param _projectId Unique Id of Project\r\n  /// @param _projectCapital Budget Allocated to project\r\n  function setProjectBudget_ERC20(\r\n    string memory _projectId,\r\n    uint256 _projectCapital\r\n  ) public OnlyOwner CheckProject(_projectId) {\r\n    bytes32 _id = findHash(_projectId);\r\n    projectERC20Capital[_id] += _projectCapital;\r\n    erc20.mint(address(rahatContract), _projectCapital);\r\n    cashToken.approve(address(rahatContract), _projectCapital);\r\n    rahatContract.updateProjectBudget(_id, _projectCapital);\r\n    emit ProjectERC20BudgetUpdated(_id, _projectCapital, \"add\");\r\n  }\r\n\r\n  /// @notice get the current balance of project\r\n  /// @param _projectId Unique Id of project\r\n  function getProjecERC20Balance(string memory _projectId)\r\n    public\r\n    view\r\n    returns (uint256 _balance)\r\n  {\r\n    bytes32 _id = findHash(_projectId);\r\n    require(projectExists[_id], \"RAHAT_ADMIN: Invalid ProjectID\");\r\n    return (rahatContract.getProjectBalance(_id));\r\n  }\r\n\r\n  function claimToken(address _token, address _from, uint256 _amount) public override OnlyOwner {\r\n    if(address(cashToken) == address(0)) cashToken = RahatERC20(_token);\r\n    super.claimToken(_token, _from, _amount);\r\n  }\r\n\r\n  // // TODO:   //SANTOSH - Can't we take default error of transferring?\r\n  // /// @notice take out token from this contract\r\n  // /// @param _amount Amount to withdraw token from this contract\r\n  // function withdrawToken(uint256 _amount) public OnlyOwner {\r\n  // \trequire(erc20.transfer(msg.sender, _amount), 'RAHAT_ADMIN: Error while calling token contract');\r\n  // }\r\n\r\n  /// @notice mint new tokens\r\n  /// @param _address address to send the minted tokens\r\n  /// @param _amount Amount of token to Mint\r\n  function mintERC20(address _address, uint256 _amount) public OnlyOwner {\r\n    erc20.mint(_address, _amount);\r\n  }\r\n\r\n  /// @notice generates the hash of the given string\r\n  /// @param _data String of which hash is to be generated\r\n  function findHash(string memory _data) private pure returns (bytes32) {\r\n    return keccak256(abi.encodePacked(_data));\r\n  }\r\n}\r\n",
  "sourcePath": "S:\\Projects\\rahat\\unicef-np\\rahat-contracts\\src\\contracts\\RahatAdmin.sol",
  "compiler": {
    "name": "solc",
    "version": "0.8.16+commit.07a7930e.Emscripten.clang"
  },
  "schemaVersion": "3.4.10",
  "updatedAt": "2022-11-29T09:54:09.692Z",
  "devdoc": {
    "author": "Rumsan Associates",
    "details": "All function calls are only executed by contract owner",
    "kind": "dev",
    "methods": {
      "addOwner(address)": {
        "params": {
          "_account": "address of new owner"
        }
      },
      "constructor": {
        "details": "deploys AidToken and Rahat contract by sending supply to this contract"
      },
      "getProjecERC20Balance(string)": {
        "params": {
          "_projectId": "Unique Id of project"
        }
      },
      "mintERC20(address,uint256)": {
        "params": {
          "_address": "address to send the minted tokens",
          "_amount": "Amount of token to Mint"
        }
      },
      "removeOwner(address)": {
        "params": {
          "_account": "address of existing owner"
        }
      },
      "setProjectBudget_ERC20(string,uint256)": {
        "details": "Allocates token to the given projectId, Creates project and transfer tokens to Rahat contract.",
        "params": {
          "_projectCapital": "Budget Allocated to project",
          "_projectId": "Unique Id of Project"
        }
      }
    },
    "title": "Rahat Admin contract - owns all the tokens initially minted",
    "version": 1
  },
  "userdoc": {
    "kind": "user",
    "methods": {
      "addOwner(address)": {
        "notice": "Add an account to the owner role"
      },
      "constructor": {
        "notice": "All the supply is allocated to this contract"
      },
      "getProjecERC20Balance(string)": {
        "notice": "get the current balance of project"
      },
      "mintERC20(address,uint256)": {
        "notice": "mint new tokens"
      },
      "projectERC20Capital(bytes32)": {
        "notice": "assign budgets to project"
      },
      "projectExists(bytes32)": {
        "notice": "check if projectId exists or not;"
      },
      "projectId(uint256)": {
        "notice": "list of projects"
      },
      "removeOwner(address)": {
        "notice": "Remove an account from the owner role"
      },
      "setProjectBudget_ERC20(string,uint256)": {
        "notice": "allocate token to projects"
      }
    },
    "notice": "You can use this contract to manage Rahat tokens and projects",
    "version": 1
  }
}