{
  "contractName": "Rahat",
  "abi": [
    {
      "inputs": [
        {
          "internalType": "contract RahatERC20",
          "name": "_erc20",
          "type": "address"
        },
        {
          "internalType": "contract RahatRegistry",
          "name": "_registry",
          "type": "address"
        },
        {
          "internalType": "contract RahatTriggerResponse",
          "name": "_triggerResponse",
          "type": "address"
        },
        {
          "internalType": "address",
          "name": "_admin",
          "type": "address"
        }
      ],
      "stateMutability": "nonpayable",
      "type": "constructor"
    },
    {
      "anonymous": false,
      "inputs": [
        {
          "indexed": true,
          "internalType": "address",
          "name": "vendor",
          "type": "address"
        },
        {
          "indexed": true,
          "internalType": "uint256",
          "name": "beneficiary",
          "type": "uint256"
        },
        {
          "indexed": false,
          "internalType": "uint256",
          "name": "amount",
          "type": "uint256"
        }
      ],
      "name": "ClaimAcquiredERC20",
      "type": "event"
    },
    {
      "anonymous": false,
      "inputs": [
        {
          "indexed": true,
          "internalType": "address",
          "name": "vendor",
          "type": "address"
        },
        {
          "indexed": true,
          "internalType": "uint256",
          "name": "phone",
          "type": "uint256"
        },
        {
          "indexed": false,
          "internalType": "uint256",
          "name": "amount",
          "type": "uint256"
        }
      ],
      "name": "ClaimApproved",
      "type": "event"
    },
    {
      "anonymous": false,
      "inputs": [
        {
          "indexed": true,
          "internalType": "address",
          "name": "vendor",
          "type": "address"
        },
        {
          "indexed": true,
          "internalType": "uint256",
          "name": "beneficiary",
          "type": "uint256"
        },
        {
          "indexed": false,
          "internalType": "uint256",
          "name": "amount",
          "type": "uint256"
        }
      ],
      "name": "ClaimedERC20",
      "type": "event"
    },
    {
      "anonymous": false,
      "inputs": [
        {
          "indexed": false,
          "internalType": "bytes",
          "name": "signature",
          "type": "bytes"
        },
        {
          "indexed": false,
          "internalType": "bytes32",
          "name": "digest",
          "type": "bytes32"
        },
        {
          "indexed": false,
          "internalType": "address",
          "name": "expectedSigner",
          "type": "address"
        },
        {
          "indexed": false,
          "internalType": "address",
          "name": "recoveredSigner",
          "type": "address"
        }
      ],
      "name": "InvalidSignature",
      "type": "event"
    },
    {
      "anonymous": false,
      "inputs": [
        {
          "indexed": true,
          "internalType": "bytes32",
          "name": "projectId",
          "type": "bytes32"
        },
        {
          "indexed": true,
          "internalType": "uint256",
          "name": "phone",
          "type": "uint256"
        },
        {
          "indexed": false,
          "internalType": "uint256",
          "name": "amount",
          "type": "uint256"
        }
      ],
      "name": "IssuedERC20",
      "type": "event"
    },
    {
      "anonymous": false,
      "inputs": [
        {
          "indexed": true,
          "internalType": "bytes32",
          "name": "role",
          "type": "bytes32"
        },
        {
          "indexed": true,
          "internalType": "bytes32",
          "name": "previousAdminRole",
          "type": "bytes32"
        },
        {
          "indexed": true,
          "internalType": "bytes32",
          "name": "newAdminRole",
          "type": "bytes32"
        }
      ],
      "name": "RoleAdminChanged",
      "type": "event"
    },
    {
      "anonymous": false,
      "inputs": [
        {
          "indexed": true,
          "internalType": "bytes32",
          "name": "role",
          "type": "bytes32"
        },
        {
          "indexed": true,
          "internalType": "address",
          "name": "account",
          "type": "address"
        },
        {
          "indexed": true,
          "internalType": "address",
          "name": "sender",
          "type": "address"
        }
      ],
      "name": "RoleGranted",
      "type": "event"
    },
    {
      "anonymous": false,
      "inputs": [
        {
          "indexed": true,
          "internalType": "bytes32",
          "name": "role",
          "type": "bytes32"
        },
        {
          "indexed": true,
          "internalType": "address",
          "name": "account",
          "type": "address"
        },
        {
          "indexed": true,
          "internalType": "address",
          "name": "sender",
          "type": "address"
        }
      ],
      "name": "RoleRevoked",
      "type": "event"
    },
    {
      "inputs": [],
      "name": "CREATE_CLAIM",
      "outputs": [
        {
          "internalType": "bytes32",
          "name": "",
          "type": "bytes32"
        }
      ],
      "stateMutability": "view",
      "type": "function"
    },
    {
      "inputs": [],
      "name": "DEFAULT_ADMIN_ROLE",
      "outputs": [
        {
          "internalType": "bytes32",
          "name": "",
          "type": "bytes32"
        }
      ],
      "stateMutability": "view",
      "type": "function"
    },
    {
      "inputs": [],
      "name": "GET_TOKENS_FROM_CLAIM",
      "outputs": [
        {
          "internalType": "bytes32",
          "name": "",
          "type": "bytes32"
        }
      ],
      "stateMutability": "view",
      "type": "function"
    },
    {
      "inputs": [],
      "name": "ISSUE_TOKEN",
      "outputs": [
        {
          "internalType": "bytes32",
          "name": "",
          "type": "bytes32"
        }
      ],
      "stateMutability": "view",
      "type": "function"
    },
    {
      "inputs": [],
      "name": "MANAGER_ROLE",
      "outputs": [
        {
          "internalType": "bytes32",
          "name": "",
          "type": "bytes32"
        }
      ],
      "stateMutability": "view",
      "type": "function"
    },
    {
      "inputs": [],
      "name": "MOBILIZER_ROLE",
      "outputs": [
        {
          "internalType": "bytes32",
          "name": "",
          "type": "bytes32"
        }
      ],
      "stateMutability": "view",
      "type": "function"
    },
    {
      "inputs": [],
      "name": "SERVER_ROLE",
      "outputs": [
        {
          "internalType": "bytes32",
          "name": "",
          "type": "bytes32"
        }
      ],
      "stateMutability": "view",
      "type": "function"
    },
    {
      "inputs": [],
      "name": "VENDOR_ROLE",
      "outputs": [
        {
          "internalType": "bytes32",
          "name": "",
          "type": "bytes32"
        }
      ],
      "stateMutability": "view",
      "type": "function"
    },
    {
      "inputs": [
        {
          "internalType": "address",
          "name": "_account",
          "type": "address"
        }
      ],
      "name": "addOwner",
      "outputs": [
        {
          "internalType": "bool",
          "name": "",
          "type": "bool"
        }
      ],
      "stateMutability": "nonpayable",
      "type": "function"
    },
    {
      "inputs": [
        {
          "internalType": "address",
          "name": "_token",
          "type": "address"
        },
        {
          "internalType": "address",
          "name": "_spender",
          "type": "address"
        },
        {
          "internalType": "uint256",
          "name": "_amount",
          "type": "uint256"
        }
      ],
      "name": "approveToken",
      "outputs": [],
      "stateMutability": "nonpayable",
      "type": "function"
    },
    {
      "inputs": [],
      "name": "cashToken",
      "outputs": [
        {
          "internalType": "contract RahatERC20",
          "name": "",
          "type": "address"
        }
      ],
      "stateMutability": "view",
      "type": "function"
    },
    {
      "inputs": [
        {
          "internalType": "address",
          "name": "_token",
          "type": "address"
        },
        {
          "internalType": "address",
          "name": "_from",
          "type": "address"
        },
        {
          "internalType": "uint256",
          "name": "_amount",
          "type": "uint256"
        }
      ],
      "name": "claimToken",
      "outputs": [],
      "stateMutability": "nonpayable",
      "type": "function"
    },
    {
      "inputs": [],
      "name": "erc20",
      "outputs": [
        {
          "internalType": "contract RahatERC20",
          "name": "",
          "type": "address"
        }
      ],
      "stateMutability": "view",
      "type": "function"
    },
    {
      "inputs": [
        {
          "internalType": "uint256",
          "name": "",
          "type": "uint256"
        }
      ],
      "name": "erc20Balance",
      "outputs": [
        {
          "internalType": "uint256",
          "name": "",
          "type": "uint256"
        }
      ],
      "stateMutability": "view",
      "type": "function"
    },
    {
      "inputs": [
        {
          "internalType": "uint256",
          "name": "",
          "type": "uint256"
        }
      ],
      "name": "erc20Issued",
      "outputs": [
        {
          "internalType": "uint256",
          "name": "",
          "type": "uint256"
        }
      ],
      "stateMutability": "view",
      "type": "function"
    },
    {
      "inputs": [
        {
          "internalType": "address",
          "name": "",
          "type": "address"
        }
      ],
      "name": "erc20IssuedBy",
      "outputs": [
        {
          "internalType": "uint256",
          "name": "",
          "type": "uint256"
        }
      ],
      "stateMutability": "view",
      "type": "function"
    },
    {
      "inputs": [
        {
          "internalType": "bytes32",
          "name": "role",
          "type": "bytes32"
        }
      ],
      "name": "getRoleAdmin",
      "outputs": [
        {
          "internalType": "bytes32",
          "name": "",
          "type": "bytes32"
        }
      ],
      "stateMutability": "view",
      "type": "function"
    },
    {
      "inputs": [
        {
          "internalType": "bytes32",
          "name": "role",
          "type": "bytes32"
        },
        {
          "internalType": "address",
          "name": "account",
          "type": "address"
        }
      ],
      "name": "grantRole",
      "outputs": [],
      "stateMutability": "nonpayable",
      "type": "function"
    },
    {
      "inputs": [
        {
          "internalType": "bytes32",
          "name": "role",
          "type": "bytes32"
        },
        {
          "internalType": "address",
          "name": "account",
          "type": "address"
        }
      ],
      "name": "hasRole",
      "outputs": [
        {
          "internalType": "bool",
          "name": "",
          "type": "bool"
        }
      ],
      "stateMutability": "view",
      "type": "function"
    },
    {
      "inputs": [
        {
          "internalType": "uint256",
          "name": "",
          "type": "uint256"
        }
      ],
      "name": "isBanked",
      "outputs": [
        {
          "internalType": "bool",
          "name": "",
          "type": "bool"
        }
      ],
      "stateMutability": "view",
      "type": "function"
    },
    {
      "inputs": [],
      "name": "listAdmins",
      "outputs": [
        {
          "internalType": "address[]",
          "name": "",
          "type": "address[]"
        }
      ],
      "stateMutability": "view",
      "type": "function"
    },
    {
      "inputs": [
        {
          "internalType": "bytes[]",
          "name": "data",
          "type": "bytes[]"
        }
      ],
      "name": "multicall",
      "outputs": [
        {
          "internalType": "bytes[]",
          "name": "results",
          "type": "bytes[]"
        }
      ],
      "stateMutability": "nonpayable",
      "type": "function"
    },
    {
      "inputs": [
        {
          "internalType": "address",
          "name": "",
          "type": "address"
        }
      ],
      "name": "nonces",
      "outputs": [
        {
          "internalType": "uint256",
          "name": "",
          "type": "uint256"
        }
      ],
      "stateMutability": "view",
      "type": "function"
    },
    {
      "inputs": [
        {
          "internalType": "address",
          "name": "",
          "type": "address"
        }
      ],
      "name": "owner",
      "outputs": [
        {
          "internalType": "bool",
          "name": "",
          "type": "bool"
        }
      ],
      "stateMutability": "view",
      "type": "function"
    },
    {
      "inputs": [
        {
          "internalType": "address",
          "name": "",
          "type": "address"
        },
        {
          "internalType": "bytes32",
          "name": "",
          "type": "bytes32"
        }
      ],
      "name": "recentERC20Claims",
      "outputs": [
        {
          "internalType": "uint256",
          "name": "amount",
          "type": "uint256"
        },
        {
          "internalType": "bytes32",
          "name": "otpHash",
          "type": "bytes32"
        },
        {
          "internalType": "bool",
          "name": "isReleased",
          "type": "bool"
        },
        {
          "internalType": "uint256",
          "name": "date",
          "type": "uint256"
        }
      ],
      "stateMutability": "view",
      "type": "function"
    },
    {
      "inputs": [],
      "name": "registry",
      "outputs": [
        {
          "internalType": "contract RahatRegistry",
          "name": "",
          "type": "address"
        }
      ],
      "stateMutability": "view",
      "type": "function"
    },
    {
      "inputs": [
        {
          "internalType": "bytes32",
          "name": "",
          "type": "bytes32"
        }
      ],
      "name": "remainingProjectErc20Balances",
      "outputs": [
        {
          "internalType": "uint256",
          "name": "",
          "type": "uint256"
        }
      ],
      "stateMutability": "view",
      "type": "function"
    },
    {
      "inputs": [
        {
          "internalType": "address",
          "name": "_account",
          "type": "address"
        }
      ],
      "name": "removeOwner",
      "outputs": [
        {
          "internalType": "bool",
          "name": "",
          "type": "bool"
        }
      ],
      "stateMutability": "nonpayable",
      "type": "function"
    },
    {
      "inputs": [
        {
          "internalType": "bytes32",
          "name": "role",
          "type": "bytes32"
        },
        {
          "internalType": "address",
          "name": "account",
          "type": "address"
        }
      ],
      "name": "renounceRole",
      "outputs": [],
      "stateMutability": "nonpayable",
      "type": "function"
    },
    {
      "inputs": [
        {
          "internalType": "bytes32",
          "name": "role",
          "type": "bytes32"
        },
        {
          "internalType": "address",
          "name": "account",
          "type": "address"
        }
      ],
      "name": "revokeRole",
      "outputs": [],
      "stateMutability": "nonpayable",
      "type": "function"
    },
    {
      "inputs": [
        {
          "internalType": "bytes32",
          "name": "",
          "type": "bytes32"
        }
      ],
      "name": "totalProjectErc20Issued",
      "outputs": [
        {
          "internalType": "uint256",
          "name": "",
          "type": "uint256"
        }
      ],
      "stateMutability": "view",
      "type": "function"
    },
    {
      "inputs": [
        {
          "internalType": "address",
          "name": "_token",
          "type": "address"
        },
        {
          "internalType": "address",
          "name": "_from",
          "type": "address"
        },
        {
          "internalType": "address",
          "name": "_to",
          "type": "address"
        },
        {
          "internalType": "uint256",
          "name": "_amount",
          "type": "uint256"
        }
      ],
      "name": "transferFromToken",
      "outputs": [],
      "stateMutability": "nonpayable",
      "type": "function"
    },
    {
      "inputs": [
        {
          "internalType": "address",
          "name": "_token",
          "type": "address"
        },
        {
          "internalType": "address",
          "name": "_to",
          "type": "address"
        },
        {
          "internalType": "uint256",
          "name": "_amount",
          "type": "uint256"
        }
      ],
      "name": "transferToken",
      "outputs": [],
      "stateMutability": "nonpayable",
      "type": "function"
    },
    {
      "inputs": [],
      "name": "triggerResponse",
      "outputs": [
        {
          "internalType": "contract RahatTriggerResponse",
          "name": "",
          "type": "address"
        }
      ],
      "stateMutability": "view",
      "type": "function"
    },
    {
      "inputs": [
        {
          "internalType": "bytes4",
          "name": "interfaceId",
          "type": "bytes4"
        }
      ],
      "name": "supportsInterface",
      "outputs": [
        {
          "internalType": "bool",
          "name": "",
          "type": "bool"
        }
      ],
      "stateMutability": "view",
      "type": "function"
    },
    {
      "inputs": [
        {
          "internalType": "address",
          "name": "_account",
          "type": "address"
        }
      ],
      "name": "addAdmin",
      "outputs": [],
      "stateMutability": "nonpayable",
      "type": "function"
    },
    {
      "inputs": [
        {
          "internalType": "address",
          "name": "_account",
          "type": "address"
        }
      ],
      "name": "isAdmin",
      "outputs": [
        {
          "internalType": "bool",
          "name": "",
          "type": "bool"
        }
      ],
      "stateMutability": "view",
      "type": "function"
    },
    {
      "inputs": [
        {
          "internalType": "address",
          "name": "_account",
          "type": "address"
        }
      ],
      "name": "addServer",
      "outputs": [],
      "stateMutability": "nonpayable",
      "type": "function"
    },
    {
      "inputs": [
        {
          "internalType": "address",
          "name": "_account",
          "type": "address"
        }
      ],
      "name": "addVendor",
      "outputs": [
        {
          "internalType": "address",
          "name": "",
          "type": "address"
        }
      ],
      "stateMutability": "nonpayable",
      "type": "function"
    },
    {
      "inputs": [
        {
          "internalType": "address",
          "name": "_account",
          "type": "address"
        }
      ],
      "name": "isVendor",
      "outputs": [
        {
          "internalType": "bool",
          "name": "",
          "type": "bool"
        }
      ],
      "stateMutability": "view",
      "type": "function"
    },
    {
      "inputs": [
        {
          "internalType": "address",
          "name": "_account",
          "type": "address"
        },
        {
          "internalType": "string",
          "name": "_projectId",
          "type": "string"
        }
      ],
      "name": "addMobilizer",
      "outputs": [],
      "stateMutability": "nonpayable",
      "type": "function"
    },
    {
      "inputs": [
        {
          "internalType": "uint256",
          "name": "_phone",
          "type": "uint256"
        },
        {
          "internalType": "bool",
          "name": "_isBanked",
          "type": "bool"
        }
      ],
      "name": "setAsBankedBeneficiary",
      "outputs": [],
      "stateMutability": "nonpayable",
      "type": "function"
    },
    {
      "inputs": [
        {
          "internalType": "uint256",
          "name": "_phone",
          "type": "uint256"
        },
        {
          "internalType": "bytes32",
          "name": "_projectId",
          "type": "bytes32"
        }
      ],
      "name": "suspendBeneficiary",
      "outputs": [],
      "stateMutability": "nonpayable",
      "type": "function"
    },
    {
      "inputs": [
        {
          "internalType": "bytes32",
          "name": "_projectId",
          "type": "bytes32"
        },
        {
          "internalType": "uint256",
          "name": "_projectCapital",
          "type": "uint256"
        }
      ],
      "name": "updateProjectBudget",
      "outputs": [],
      "stateMutability": "nonpayable",
      "type": "function"
    },
    {
      "inputs": [
        {
          "internalType": "bytes32",
          "name": "_projectId",
          "type": "bytes32"
        }
      ],
      "name": "getProjectBalance",
      "outputs": [
        {
          "internalType": "uint256",
          "name": "_balance",
          "type": "uint256"
        }
      ],
      "stateMutability": "view",
      "type": "function"
    },
    {
      "inputs": [
        {
          "internalType": "string",
          "name": "_projectId",
          "type": "string"
        },
        {
          "internalType": "uint256",
          "name": "_phone",
          "type": "uint256"
        },
        {
          "internalType": "uint256",
          "name": "_amount",
          "type": "uint256"
        }
      ],
      "name": "issueERC20ToBeneficiary",
      "outputs": [],
      "stateMutability": "nonpayable",
      "type": "function"
    },
    {
      "inputs": [
        {
          "internalType": "uint256",
          "name": "_phone",
          "type": "uint256"
        },
        {
          "internalType": "uint256",
          "name": "_tokens",
          "type": "uint256"
        }
      ],
      "name": "createERC20Claim",
      "outputs": [],
      "stateMutability": "nonpayable",
      "type": "function"
    },
    {
      "inputs": [
        {
          "internalType": "address",
          "name": "_vendor",
          "type": "address"
        },
        {
          "internalType": "uint256",
          "name": "_phone",
          "type": "uint256"
        },
        {
          "internalType": "bytes32",
          "name": "_otpHash",
          "type": "bytes32"
        },
        {
          "internalType": "uint256",
          "name": "_timeToLive",
          "type": "uint256"
        }
      ],
      "name": "approveERC20Claim",
      "outputs": [],
      "stateMutability": "nonpayable",
      "type": "function"
    },
    {
      "inputs": [
        {
          "internalType": "uint256",
          "name": "_phone",
          "type": "uint256"
        },
        {
          "internalType": "string",
          "name": "_otp",
          "type": "string"
        }
      ],
      "name": "getERC20FromClaim",
      "outputs": [],
      "stateMutability": "nonpayable",
      "type": "function"
    },
    {
      "inputs": [
        {
          "internalType": "uint256",
          "name": "_phone",
          "type": "uint256"
        },
        {
          "internalType": "address",
          "name": "_vendorAddress",
          "type": "address"
        },
        {
          "internalType": "uint256",
          "name": "_amount",
          "type": "uint256"
        }
      ],
      "name": "transferTokenToVendorByAdmin",
      "outputs": [],
      "stateMutability": "nonpayable",
      "type": "function"
    },
    {
      "inputs": [
        {
          "internalType": "address",
          "name": "_vendorAddress",
          "type": "address"
        },
        {
          "internalType": "uint256",
          "name": "_amount",
          "type": "uint256"
        }
      ],
      "name": "transferCashToVendor",
      "outputs": [],
      "stateMutability": "nonpayable",
      "type": "function"
    },
    {
      "inputs": [
        {
          "internalType": "address",
          "name": "_token",
          "type": "address"
        },
        {
          "internalType": "address",
          "name": "_from",
          "type": "address"
        },
        {
          "internalType": "bytes32",
          "name": "_projectId",
          "type": "bytes32"
        },
        {
          "internalType": "uint256",
          "name": "_amount",
          "type": "uint256"
        }
      ],
      "name": "claimTokenForProject",
      "outputs": [],
      "stateMutability": "nonpayable",
      "type": "function"
    },
    {
      "inputs": [
        {
          "internalType": "address",
          "name": "_vendorAddress",
          "type": "address"
        }
      ],
      "name": "vendorBalance",
      "outputs": [
        {
          "internalType": "address",
          "name": "walletAddress",
          "type": "address"
        },
        {
          "internalType": "uint256",
          "name": "cashAllowance",
          "type": "uint256"
        },
        {
          "internalType": "uint256",
          "name": "cashBalance",
          "type": "uint256"
        },
        {
          "internalType": "uint256",
          "name": "tokenBalance",
          "type": "uint256"
        }
      ],
      "stateMutability": "view",
      "type": "function"
    },
    {
      "inputs": [
        {
          "internalType": "uint256",
          "name": "_phone",
          "type": "uint256"
        }
      ],
      "name": "beneficiaryBalance",
      "outputs": [
        {
          "internalType": "address",
          "name": "walletAddress",
          "type": "address"
        },
        {
          "internalType": "uint256",
          "name": "cashBalance",
          "type": "uint256"
        },
        {
          "internalType": "uint256",
          "name": "tokenBalance",
          "type": "uint256"
        }
      ],
      "stateMutability": "view",
      "type": "function"
    },
    {
      "inputs": [
        {
          "internalType": "uint256",
          "name": "_data",
          "type": "uint256"
        }
      ],
      "name": "findHash",
      "outputs": [
        {
          "internalType": "bytes32",
          "name": "",
          "type": "bytes32"
        }
      ],
      "stateMutability": "pure",
      "type": "function"
    },
    {
      "inputs": [
        {
          "internalType": "string",
          "name": "_data",
          "type": "string"
        }
      ],
      "name": "findHash",
      "outputs": [
        {
          "internalType": "bytes32",
          "name": "",
          "type": "bytes32"
        }
      ],
      "stateMutability": "pure",
      "type": "function"
    },
    {
      "inputs": [
        {
          "internalType": "address",
          "name": "_data",
          "type": "address"
        }
      ],
      "name": "findHash",
      "outputs": [
        {
          "internalType": "bytes32",
          "name": "",
          "type": "bytes32"
        }
      ],
      "stateMutability": "pure",
      "type": "function"
    },
    {
      "inputs": [
        {
          "internalType": "uint256[]",
          "name": "_array",
          "type": "uint256[]"
        }
      ],
      "name": "getArraySum",
      "outputs": [
        {
          "internalType": "uint256",
          "name": "sum",
          "type": "uint256"
        }
      ],
      "stateMutability": "pure",
      "type": "function"
    }
  ],
  "bytecode": "0x60806040523480156200001157600080fd5b5060405162004cd538038062004cd58339810160408190526200003491620004b4565b6200004160003362000112565b6200004e60008262000112565b6200006a60008051602062004cb5833981519152600062000122565b620000977f0aaf57387812c7f832412470a57567b5648a930069be49aa9c98d04f88520d34600062000122565b620000b260008051602062004cb5833981519152336200016d565b600580546001600160a01b03199081166001600160a01b0396871617909155600780548216948616949094179093556008805490931691841691909117909155166000908152600360205260409020805460ff1916600117905562000684565b6200011e82826200019c565b5050565b600082815260208190526040808220600101805490849055905190918391839186917fbd79b86ffe0ab8e8776151514217cd7cacd52c909f66475c3af44e129f0b00ff9190a4505050565b6000828152602081905260409020600101546200018b813362000224565b6200019783836200019c565b505050565b620001a88282620002b0565b6200011e576000828152602081815260408083206001600160a01b03851684529091529020805460ff19166001179055620001e03390565b6001600160a01b0316816001600160a01b0316837f2f8788117e7eff1d82e926ec794901d17c78024a50270940304540a733656f0d60405160405180910390a45050565b620002308282620002b0565b6200011e5762000256816001600160a01b03166014620002db60201b620027231760201c565b6200026c83602062002723620002db821b17811c565b6040516020016200027f92919062000542565b60408051601f198184030181529082905262461bcd60e51b8252620002a791600401620005bb565b60405180910390fd5b6000828152602081815260408083206001600160a01b038516845290915290205460ff165b92915050565b60606000620002ec83600262000606565b620002f990600262000628565b6001600160401b038111156200031357620003136200063e565b6040519080825280601f01601f1916602001820160405280156200033e576020820181803683370190505b509050600360fc1b816000815181106200035c576200035c62000654565b60200101906001600160f81b031916908160001a905350600f60fb1b816001815181106200038e576200038e62000654565b60200101906001600160f81b031916908160001a9053506000620003b484600262000606565b620003c190600162000628565b90505b600181111562000443576f181899199a1a9b1b9c1cb0b131b232b360811b85600f1660108110620003f957620003f962000654565b1a60f81b82828151811062000412576200041262000654565b60200101906001600160f81b031916908160001a90535060049490941c936200043b816200066a565b9050620003c4565b508315620004945760405162461bcd60e51b815260206004820181905260248201527f537472696e67733a20686578206c656e67746820696e73756666696369656e746044820152606401620002a7565b9392505050565b6001600160a01b0381168114620004b157600080fd5b50565b60008060008060808587031215620004cb57600080fd5b8451620004d8816200049b565b6020860151909450620004eb816200049b565b6040860151909350620004fe816200049b565b606086015190925062000511816200049b565b939692955090935050565b60005b83811015620005395781810151838201526020016200051f565b50506000910152565b7f416363657373436f6e74726f6c3a206163636f756e74200000000000000000008152600083516200057c8160178501602088016200051c565b7001034b99036b4b9b9b4b733903937b6329607d1b6017918401918201528351620005af8160288401602088016200051c565b01602801949350505050565b6020815260008251806020840152620005dc8160408501602087016200051c565b601f01601f19169190910160400192915050565b634e487b7160e01b600052601160045260246000fd5b6000816000190483118215151615620006235762000623620005f0565b500290565b80820180821115620002d557620002d5620005f0565b634e487b7160e01b600052604160045260246000fd5b634e487b7160e01b600052603260045260246000fd5b6000816200067c576200067c620005f0565b506000190190565b61462180620006946000396000f3fe60806040523480156200001157600080fd5b50600436106200030d5760003560e01c80637065cb48116200019f578063a591afbe11620000f2578063a591afbe14620007f1578063a6d63e59146200080a578063a72246871462000821578063ac9650d81462000835578063c0d955d6146200085b578063cf784eda1462000872578063d1e671671462000895578063d547741f1462000905578063da3e3397146200091c578063e18007621462000933578063eaad46f51462000970578063ec87621c1462000987578063ee54d54f14620009af578063f5537ede14620009c6578063fb3c0d7014620009dd57600080fd5b80637065cb48146200068957806370c7510714620006a0578063785e9e8614620006b75780637b10399914620006cb5780637ecebe0014620006df5780638825756714620007025780638bbab5c714620007195780638d846f2c146200074157806391d148541462000764578063920fd178146200077b578063926a694d146200079257806394343cd214620007a95780639ea6935014620007d1578063a217fddf14620007e857600080fd5b806330772c10116200026457806330772c1014620004b25780633098b74b14620004f4578063351c3d0b146200050b57806336568abe146200052e57806337d027b814620005455780633fc16810146200056857806345e0f753146200057f578063494101ff14620005965780634c91b44e14620005ad578063546fcaa414620005d55780635cbd99d414620005ec57806364a2f7d91462000603578063666e1b3914620006295780636e905496146200064f57806370480275146200067257600080fd5b806301ffc9a71462000312578063055ee070146200033e578063125bfb661462000370578063173825d9146200038957806318cf283414620003a0578063237c9db314620003b75780632384e10514620003da578063248a9ca3146200040257806324d7806c146200042857806327fa7a20146200043f57806329312a9c14620004565780632aef0c30146200046d5780632d41d55914620004845780632f2ff15d146200049b575b600080fd5b62000329620003233660046200326e565b620009f4565b60405190151581526020015b60405180910390f35b620003616200034f3660046200329a565b60096020526000908152604090205481565b60405190815260200162000335565b6200038762000381366004620032ca565b62000a07565b005b620003296200039a36600462003310565b62000ac0565b62000361600080516020620045a583398151915281565b62000361620003c836600462003310565b60126020526000908152604090205481565b620003617fcfa8166f1bb1b8818c3767a9ffd776afbbe3409a468070bb860831e01b56549981565b62000361620004133660046200329a565b60009081526020819052604090206001015490565b620003296200043936600462003310565b62000b28565b6200038762000450366004620033ef565b62000b36565b620003876200046736600462003439565b62000e09565b620003876200047e36600462003468565b62000ff9565b62000387620004953660046200348b565b620010db565b62000387620004ac366004620034c9565b620013db565b620004c9620004c336600462003310565b62001405565b604080516001600160a01b039095168552602085019390935291830152606082015260800162000335565b6200036162000505366004620034fc565b620015fd565b620003616200051c3660046200329a565b600a6020526000908152604090205481565b620003876200053f366004620034c9565b62001652565b60085462000559906001600160a01b031681565b604051620003359190620035ac565b6200038762000579366004620035cf565b620016d4565b620005596200059036600462003310565b62001720565b62000361620005a73660046200329a565b62001953565b620003617fbe9e90431f28bd12a87a51b26b014cab620a8a4819bf73d87369ccbe6800a76c81565b62000387620005e6366004620035f7565b6200198f565b62000387620005fd36600462003310565b62001b3f565b62000329620006143660046200329a565b600b6020526000908152604090205460ff1681565b620003296200063a36600462003310565b60036020526000908152604090205460ff1681565b62000361620006603660046200329a565b600e6020526000908152604090205481565b620003876200068336600462003310565b62001b89565b620003296200069a36600462003310565b62001be6565b62000361620006b136600462003621565b62001c4a565b60055462000559906001600160a01b031681565b60075462000559906001600160a01b031681565b62000361620006f036600462003310565b60046020526000908152604090205481565b620003876200071336600462003468565b62001c5f565b620003617f043620c1e1c33ecf60d9dadc62571b96554338b68ef3636e715e52a286bea92e81565b62000361620007523660046200329a565b600f6020526000908152604090205481565b6200032962000775366004620034c9565b62001cad565b620003616200078c36600462003310565b62001cd6565b620003616000805160206200458583398151915281565b620003617f8ff5d84bbad5f252f2ee1916646e221e55645205d2f803ebe6a7d6ba8fa4185d81565b62000387620007e236600462003468565b62001cf9565b62000361600081565b620007fb62001fdc565b60405162000335919062003659565b620003876200081b366004620036a8565b62001fef565b60065462000559906001600160a01b031681565b6200084c62000846366004620036f3565b620020ab565b604051620003359190620037c0565b620003876200086c36600462003826565b620021b2565b62000361620008833660046200329a565b6000908152600f602052604090205490565b620008de620008a636600462003439565b601360209081526000928352604080842090915290825290208054600182015460028301546003909301549192909160ff9091169084565b60408051948552602085019390935290151591830191909152606082015260800162000335565b6200038762000916366004620034c9565b620023d2565b620003876200092d366004620032ca565b620023fc565b6200094a620009443660046200329a565b6200245e565b604080516001600160a01b03909416845260208401929092529082015260600162000335565b620003876200098136600462003877565b62002572565b620003617faf290d8680820aad922855f39b306097b20e28774d6c1ad35a20325630c3a02c81565b62000329620009c036600462003310565b620025f3565b62000387620009d7366004620032ca565b62002610565b62000387620009ee366004620038b4565b62002672565b600062000a0182620028e3565b92915050565b3360009081526003602052604090205460ff1662000a425760405162461bcd60e51b815260040162000a39906200390c565b60405180910390fd5b6040516323b872dd60e01b81526001600160a01b038416906323b872dd9062000a749085903090869060040162003953565b6020604051808303816000875af115801562000a94573d6000803e3d6000fd5b505050506040513d601f19601f8201168201806040525081019062000aba919062003977565b50505050565b3360009081526003602052604081205460ff1662000af25760405162461bcd60e51b815260040162000a39906200390c565b6001600160a01b0382166000908152600360205260409020805460ff1916905562000b1f6001836200291a565b50600192915050565b600062000a01818362001cad565b81600062000b448262001953565b6000838152600a60205260408120549192500362000b765760405162461bcd60e51b815260040162000a399062003997565b62000b91600080516020620045858339815191523362001cad565b62000bb05760405162461bcd60e51b815260040162000a3990620039e4565b600062000bbd8562001953565b336000908152601360209081526040808320848452909152902060028101549192509060ff1662000c3d5760405162461bcd60e51b815260206004820152602360248201527f52414841543a20436c61696d20686173206e6f74206265656e2072656c65617360448201526232b21760e91b606482015260840162000a39565b428160030154101562000c9d5760405162461bcd60e51b815260206004820152602160248201527f52414841543a20436c61696d2068617320616c726561647920657870697265646044820152601760f91b606482015260840162000a39565b600062000caa8662001c4a565b336000908152601360209081526040808320878452909152902060010154909150811462000d175760405162461bcd60e51b81526020600482015260196024820152782920a420aa1d1027aa28103234b2103737ba1036b0ba31b41760391b604482015260640162000a39565b62000d2787836000015462002931565b815460028301805460ff191690556000808455600384015560055460405163a9059cbb60e01b81526001600160a01b039091169063a9059cbb9062000d73903390859060040162003a2e565b6020604051808303816000875af115801562000d93573d6000803e3d6000fd5b505050506040513d601f19601f8201168201806040525081019062000db9919062003977565b5062000dc7338983620029a5565b604051818152889033907fe4de809bf00bba73c562150b76ba81e5af05183458342bfdb09a7c9e303813e5906020015b60405180910390a35050505050505050565b62000e1660003362001cad565b62000e355760405162461bcd60e51b815260040162000a399062003a47565b6007546001600160a01b03166338a699a462000e518462001cd6565b6040518263ffffffff1660e01b815260040162000e7091815260200190565b602060405180830381865afa15801562000e8e573d6000803e3d6000fd5b505050506040513d601f19601f8201168201806040525081019062000eb4919062003977565b62000f025760405162461bcd60e51b815260206004820152601d60248201527f76656e646f722077616c6c6574206e6f7420726567697374657265642e000000604482015260640162000a39565b6006546007546001600160a01b039182169163095ea7b3911663bde87f2e62000f2b8662001cd6565b6040518263ffffffff1660e01b815260040162000f4a91815260200190565b602060405180830381865afa15801562000f68573d6000803e3d6000fd5b505050506040513d601f19601f8201168201806040525081019062000f8e919062003a7e565b836040518363ffffffff1660e01b815260040162000fae92919062003a2e565b6020604051808303816000875af115801562000fce573d6000803e3d6000fd5b505050506040513d601f19601f8201168201806040525081019062000ff4919062003977565b505050565b6200100660003362001cad565b620010255760405162461bcd60e51b815260040162000a399062003a47565b816000620010338262001953565b6000838152600a602052604081205491925003620010655760405162461bcd60e51b815260040162000a399062003997565b6000848152600a6020908152604080832054868452600f90925282208054919283926200109490849062003ab4565b90915550506000858152600a602090815260408083208390556009909152902054620010c290829062003aca565b6000958652600960205260409095209490945550505050565b826000620010e98262001953565b6000838152600a6020526040812054919250036200111b5760405162461bcd60e51b815260040162000a399062003997565b62001136600080516020620045a58339815191523362001cad565b620011975760405162461bcd60e51b815260206004820152602a60248201527f52414841543a2053656e646572206d75737420626520616e20617574686f72696044820152693d32b21039b2b93b32b960b11b606482015260840162000a39565b6000620011a48662001953565b6001600160a01b0388166000908152601360209081526040808320848452909152812060038101549293509190036200122e5760405162461bcd60e51b815260206004820152602560248201527f52414841543a20436c61696d20686173206e6f74206265656e2063726561746560448201526419081e595d60da1b606482015260840162000a39565b620151808511156200129b5760405162461bcd60e51b815260206004820152602f60248201527f52414841543a54696d6520546f204c6976652073686f756c64206265206c657360448201526e73207468616e20323420686f75727360881b606482015260840162000a39565b6003810154620012af906201518062003ab4565b4211156200130c5760405162461bcd60e51b815260206004820152602360248201527f52414841543a20436c61696d206973206f6c646572207468616e20323420686f60448201526275727360e81b606482015260840162000a39565b600281015460ff1615620013735760405162461bcd60e51b815260206004820152602760248201527f52414841543a20436c61696d2068617320616c7265616479206265656e2072656044820152663632b0b9b2b21760c91b606482015260840162000a39565b600180820187905560028201805460ff1916909117905562001396854262003ab4565b6003820155805460405190815287906001600160a01b038a16907f05ca75b0d90f1dd046ad3b8c1ec4a461042c3d33518b9b67d9feafc7d8d3c6cf9060200162000df7565b600082815260208190526040902060010154620013f9813362002b14565b62000ff4838362002b83565b6007546000908190819081906001600160a01b031663bde87f2e6200142a8762001cd6565b6040518263ffffffff1660e01b81526004016200144991815260200190565b602060405180830381865afa15801562001467573d6000803e3d6000fd5b505050506040513d601f19601f820116820180604052508101906200148d919062003a7e565b600654604051636eb1769f60e11b81523060048201526001600160a01b03808416602483015292965091169063dd62ed3e90604401602060405180830381865afa158015620014e0573d6000803e3d6000fd5b505050506040513d601f19601f8201168201806040525081019062001506919062003ae0565b6006546040516370a0823160e01b81529194506001600160a01b0316906370a082319062001539908790600401620035ac565b602060405180830381865afa15801562001557573d6000803e3d6000fd5b505050506040513d601f19601f820116820180604052508101906200157d919062003ae0565b6005546040516370a0823160e01b81529193506001600160a01b0316906370a0823190620015b0908890600401620035ac565b602060405180830381865afa158015620015ce573d6000803e3d6000fd5b505050506040513d601f19601f82011682018060405250810190620015f4919062003ae0565b90509193509193565b6000805b82518110156200164c5782818151811062001620576200162062003afa565b60200260200101518262001635919062003ab4565b915080620016438162003b10565b91505062001601565b50919050565b6001600160a01b0381163314620016c45760405162461bcd60e51b815260206004820152602f60248201527f416363657373436f6e74726f6c3a2063616e206f6e6c792072656e6f756e636560448201526e103937b632b9903337b91039b2b63360891b606482015260840162000a39565b620016d0828262002c0b565b5050565b620016e160003362001cad565b620017005760405162461bcd60e51b815260040162000a399062003a47565b6000918252600b6020526040909120805460ff1916911515919091179055565b60006200172e813362001cad565b6200174d5760405162461bcd60e51b815260040162000a399062003a47565b6000806200175b8462001cd6565b600754604051635ef43f9760e11b8152600481018390529192506000916001600160a01b039091169063bde87f2e90602401602060405180830381865afa158015620017ab573d6000803e3d6000fd5b505050506040513d601f19601f82011682018060405250810190620017d1919062003a7e565b90506001600160a01b03811615620017ec57809250620018ba565b30604051620017fb9062003260565b620018079190620035ac565b604051809103906000f08015801562001824573d6000803e3d6000fd5b506007549093506001600160a01b031663b3fd13a9620018448762001cd6565b6040516001600160e01b031960e084901b16815260048101919091526001600160a01b03861660248201526044016020604051808303816000875af115801562001892573d6000803e3d6000fd5b505050506040513d601f19601f82011682018060405250810190620018b8919062003977565b505b604051630e0cb96960e31b81526001600160a01b03841690637065cb4890620018e8908890600401620035ac565b6020604051808303816000875af115801562001908573d6000803e3d6000fd5b505050506040513d601f19601f820116820180604052508101906200192e919062003977565b506200194a6000805160206200458583398151915286620013db565b50909392505050565b6000620019608262002c73565b60405160200162001972919062003b2c565b604051602081830303815290604052805190602001209050919050565b8260006200199d8262001953565b6000838152600a602052604081205491925003620019cf5760405162461bcd60e51b815260040162000a399062003997565b620019dc60003362001cad565b620019fb5760405162461bcd60e51b815260040162000a399062003a47565b62001a0684620025f3565b62001a5f5760405162461bcd60e51b815260206004820152602260248201527f5472616e7366657220746f206d7573742062652076656e646f72206164647265604482015261737360f01b606482015260840162000a39565b62001a6b858462002931565b62001a78848685620029a5565b60055460405163a9059cbb60e01b81526001600160a01b039091169063a9059cbb9062001aac908790879060040162003a2e565b6020604051808303816000875af115801562001acc573d6000803e3d6000fd5b505050506040513d601f19601f8201168201806040525081019062001af2919062003977565b5084846001600160a01b03167fe4de809bf00bba73c562150b76ba81e5af05183458342bfdb09a7c9e303813e58560405162001b3091815260200190565b60405180910390a35050505050565b62001b4c60003362001cad565b62001b6b5760405162461bcd60e51b815260040162000a399062003a47565b62001b86600080516020620045a583398151915282620013db565b50565b62001b9660003362001cad565b62001bb55760405162461bcd60e51b815260040162000a399062003a47565b62001bc2600082620013db565b6001600160a01b03166000908152600360205260409020805460ff19166001179055565b3360009081526003602052604081205460ff1662001c185760405162461bcd60e51b815260040162000a39906200390c565b6001600160a01b0382166000908152600360205260409020805460ff1916600190811790915562000b1f908362002d93565b60008160405160200162001972919062003b2c565b6000828152600f60205260408120805483929062001c7f90849062003ab4565b90915550506000828152600e60205260408120805483929062001ca490849062003ab4565b90915550505050565b6000918252602082815260408084206001600160a01b0393909316845291905290205460ff1690565b6040516001600160601b0319606083901b16602082015260009060340162001972565b81600062001d078262001953565b6000838152600a60205260408120549192500362001d395760405162461bcd60e51b815260040162000a399062003997565b62001d54600080516020620045858339815191523362001cad565b62001d735760405162461bcd60e51b815260040162000a3990620039e4565b600860009054906101000a90046001600160a01b03166001600160a01b031663b8f7a6656040518163ffffffff1660e01b8152600401602060405180830381865afa15801562001dc7573d6000803e3d6000fd5b505050506040513d601f19601f8201168201806040525081019062001ded919062003977565b62001e615760405162461bcd60e51b815260206004820152603f60248201527f5468697320726573706f6e736520686173206e6f74206265656e20616374697660448201527f61746564207965742c20706c6561736520636f6e746163742061646d696e2e00606482015260840162000a39565b6000848152600b602052604090205460ff161562001ece5760405162461bcd60e51b8152602060048201526024808201527f43616e6e6f7420636c61696d2066726f6d2062616e6b65642062656e656669636044820152636961727960e01b606482015260840162000a39565b62001eda338462002daa565b600062001ee78562001953565b6000868152600a602052604090205490915084111562001f705760405162461bcd60e51b815260206004820152603c60248201527f52414841543a20416d6f756e742072657175657374656420697320677265617460448201527f6572207468616e2062656e65666963696172792062616c616e63652e00000000606482015260840162000a39565b33600090815260136020908152604080832084845282529182902060028101805460ff191690558681554260038201559151868152879132917f79ef0b2282f5e45718748b37d5a89727c1544ad2f78b126efa97c32ac1f1d232910160405180910390a3505050505050565b606062001fea600162002f01565b905090565b3360009081526003602052604090205460ff16620020215760405162461bcd60e51b815260040162000a39906200390c565b6006546001600160a01b03166200204e57600680546001600160a01b0319166001600160a01b0386161790555b6200205b84848362000a07565b6000828152600f6020526040812080548392906200207b90849062003ab4565b90915550506000828152600e602052604081208054839290620020a090849062003ab4565b909155505050505050565b6060816001600160401b03811115620020c857620020c862003330565b604051908082528060200260200182016040528015620020fd57816020015b6060815260200190600190039081620020e75790505b50905060005b82811015620021ab57620021753085858481811062002126576200212662003afa565b90506020028101906200213a919062003b4a565b8080601f01602080910402602001604051908101604052809392919081815260200183838082843760009201919091525062002f1092505050565b8282815181106200218a576200218a62003afa565b60200260200101819052508080620021a29062003b10565b91505062002103565b5092915050565b620021bf60003362001cad565b620021de5760405162461bcd60e51b815260040162000a399062003a47565b6000620021eb8462001c4a565b6007549091506001600160a01b03166338a699a46200220a8562001953565b6040518263ffffffff1660e01b81526004016200222991815260200190565b602060405180830381865afa15801562002247573d6000803e3d6000fd5b505050506040513d601f19601f820116820180604052508101906200226d919062003977565b620022b95760405162461bcd60e51b815260206004820152601b60248201527a2132b732b334b1b4b0b93c903737ba103932b3b4b9ba32b932b21760291b604482015260640162000a39565b3360009081526012602052604081208054849290620022da90849062003ab4565b90915550506000818152600f60205260409020548211156200235e5760405162461bcd60e51b815260206004820152603660248201527f52414841543a20416d6f756e742069732067726561746572207468616e2072656044820152751b585a5b9a5b99c8141c9bda9958dd08109d5919d95d60521b606482015260840162000a39565b6000818152600f6020526040812080548492906200237e90849062003aca565b90915550620023909050838362002f38565b82817f707197b34e0edb88707154f8a8ea9f3c8d891eb60a28dac25cc79bf23c3aa5c184604051620023c491815260200190565b60405180910390a350505050565b600082815260208190526040902060010154620023f0813362002b14565b62000ff4838362002c0b565b3360009081526003602052604090205460ff166200242e5760405162461bcd60e51b815260040162000a39906200390c565b60405163095ea7b360e01b81526001600160a01b0384169063095ea7b39062000a74908590859060040162003a2e565b600754600090819081906001600160a01b031663bde87f2e620024818662001953565b6040518263ffffffff1660e01b8152600401620024a091815260200190565b602060405180830381865afa158015620024be573d6000803e3d6000fd5b505050506040513d601f19601f82011682018060405250810190620024e4919062003a7e565b6006546040516370a0823160e01b81529194506001600160a01b0316906370a082319062002517908690600401620035ac565b602060405180830381865afa15801562002535573d6000803e3d6000fd5b505050506040513d601f19601f820116820180604052508101906200255b919062003ae0565b6000948552600a6020526040909420549294915050565b6200257f60003362001cad565b6200259e5760405162461bcd60e51b815260040162000a399062003a47565b6000620025ab8262001c4a565b9050620025d97fbe9e90431f28bd12a87a51b26b014cab620a8a4819bf73d87369ccbe6800a76c84620013db565b600081815260106020526040902062000aba908462002d93565b600062000a01600080516020620045858339815191528362001cad565b3360009081526003602052604090205460ff16620026425760405162461bcd60e51b815260040162000a39906200390c565b60405163a9059cbb60e01b81526001600160a01b0384169063a9059cbb9062000a74908590859060040162003a2e565b3360009081526003602052604090205460ff16620026a45760405162461bcd60e51b815260040162000a39906200390c565b6040516323b872dd60e01b81526001600160a01b038516906323b872dd90620026d69086908690869060040162003953565b6020604051808303816000875af1158015620026f6573d6000803e3d6000fd5b505050506040513d601f19601f820116820180604052508101906200271c919062003977565b5050505050565b606060006200273483600262003b9a565b6200274190600262003ab4565b6001600160401b038111156200275b576200275b62003330565b6040519080825280601f01601f19166020018201604052801562002786576020820181803683370190505b509050600360fc1b81600081518110620027a457620027a462003afa565b60200101906001600160f81b031916908160001a905350600f60fb1b81600181518110620027d657620027d662003afa565b60200101906001600160f81b031916908160001a9053506000620027fc84600262003b9a565b6200280990600162003ab4565b90505b60018111156200288b576f181899199a1a9b1b9c1cb0b131b232b360811b85600f166010811062002841576200284162003afa565b1a60f81b8282815181106200285a576200285a62003afa565b60200101906001600160f81b031916908160001a90535060049490941c93620028838162003bbc565b90506200280c565b508315620028dc5760405162461bcd60e51b815260206004820181905260248201527f537472696e67733a20686578206c656e67746820696e73756666696369656e74604482015260640162000a39565b9392505050565b60006001600160e01b03198216637965db0b60e01b148062000a0157506301ffc9a760e01b6001600160e01b031983161462000a01565b6000620028dc836001600160a01b03841662002f92565b8160006200293f8262001953565b6000838152600a602052604081205491925003620029715760405162461bcd60e51b815260040162000a399062003997565b6000848152600a60205260409020546200298d90849062003aca565b6000948552600a602052604090942093909355505050565b6007546000906001600160a01b031663bde87f2e620029c48662001cd6565b6040518263ffffffff1660e01b8152600401620029e391815260200190565b602060405180830381865afa15801562002a01573d6000803e3d6000fd5b505050506040513d601f19601f8201168201806040525081019062002a27919062003a7e565b6006546007549192506001600160a01b038084169263f5537ede928216911663bde87f2e62002a568862001953565b6040518263ffffffff1660e01b815260040162002a7591815260200190565b602060405180830381865afa15801562002a93573d6000803e3d6000fd5b505050506040513d601f19601f8201168201806040525081019062002ab9919062003a7e565b856040518463ffffffff1660e01b815260040162002ada9392919062003953565b600060405180830381600087803b15801562002af557600080fd5b505af115801562002b0a573d6000803e3d6000fd5b5050505050505050565b62002b20828262001cad565b620016d05762002b3b816001600160a01b0316601462002723565b62002b4883602062002723565b60405160200162002b5b92919062003bd6565b60408051601f198184030181529082905262461bcd60e51b825262000a399160040162003c49565b62002b8f828262001cad565b620016d0576000828152602081815260408083206001600160a01b03851684529091529020805460ff1916600117905562002bc73390565b6001600160a01b0316816001600160a01b0316837f2f8788117e7eff1d82e926ec794901d17c78024a50270940304540a733656f0d60405160405180910390a45050565b62002c17828262001cad565b15620016d0576000828152602081815260408083206001600160a01b0385168085529252808320805460ff1916905551339285917ff6391f5c32d9c69d2a47ea670b442974b53935d1edc7fd64eb21e047a839171b9190a45050565b60608160000362002c9b5750506040805180820190915260018152600360fc1b602082015290565b8160005b811562002ccb578062002cb28162003b10565b915062002cc39050600a8362003c74565b915062002c9f565b6000816001600160401b0381111562002ce85762002ce862003330565b6040519080825280601f01601f19166020018201604052801562002d13576020820181803683370190505b5090505b841562002d8b5762002d2b60018362003aca565b915062002d3a600a8662003c8b565b62002d4790603062003ab4565b60f81b81838151811062002d5f5762002d5f62003afa565b60200101906001600160f81b031916908160001a90535062002d83600a8662003c74565b945062002d17565b949350505050565b6000620028dc836001600160a01b03841662003096565b6006546007546000916001600160a01b03908116916370a08231911663bde87f2e62002dd68762001cd6565b6040518263ffffffff1660e01b815260040162002df591815260200190565b602060405180830381865afa15801562002e13573d6000803e3d6000fd5b505050506040513d601f19601f8201168201806040525081019062002e39919062003a7e565b6040518263ffffffff1660e01b815260040162002e579190620035ac565b602060405180830381865afa15801562002e75573d6000803e3d6000fd5b505050506040513d601f19601f8201168201806040525081019062002e9b919062003ae0565b90508181101562000ff45760405162461bcd60e51b815260206004820152602960248201527f56656e646f7220646f6573206e6f74206861766520656e6f7567682063617368604482015268103130b630b731b29760b91b606482015260840162000a39565b60606000620028dc83620030e8565b6060620028dc8383604051806060016040528060278152602001620045c56027913962003146565b6000828152600a602052604090205462002f5490829062003ab4565b6000838152600a602090815260408083209390935560099052205462002f7c90829062003ab4565b6000928352600960205260409092209190915550565b600081815260018301602052604081205480156200308b57600062002fb960018362003aca565b855490915060009062002fcf9060019062003aca565b90508181146200303b57600086600001828154811062002ff35762002ff362003afa565b906000526020600020015490508087600001848154811062003019576200301962003afa565b6000918252602080832090910192909255918252600188019052604090208390555b85548690806200304f576200304f62003ca2565b60019003818190600052602060002001600090559055856001016000868152602001908152602001600020600090556001935050505062000a01565b600091505062000a01565b6000818152600183016020526040812054620030df5750815460018181018455600084815260208082209093018490558454848252828601909352604090209190915562000a01565b50600062000a01565b6060816000018054806020026020016040519081016040528092919081815260200182805480156200313a57602002820191906000526020600020905b81548152602001906001019080831162003125575b50505050509050919050565b6060833b620031a75760405162461bcd60e51b815260206004820152602660248201527f416464726573733a2064656c65676174652063616c6c20746f206e6f6e2d636f6044820152651b9d1c9858dd60d21b606482015260840162000a39565b600080856001600160a01b031685604051620031c4919062003b2c565b600060405180830381855af49150503d806000811462003201576040519150601f19603f3d011682016040523d82523d6000602084013e62003206565b606091505b50915091506200321882828662003222565b9695505050505050565b6060831562003233575081620028dc565b825115620032445782518084602001fd5b8160405162461bcd60e51b815260040162000a39919062003c49565b6108cc8062003cb983390190565b6000602082840312156200328157600080fd5b81356001600160e01b031981168114620028dc57600080fd5b600060208284031215620032ad57600080fd5b5035919050565b6001600160a01b038116811462001b8657600080fd5b600080600060608486031215620032e057600080fd5b8335620032ed81620032b4565b92506020840135620032ff81620032b4565b929592945050506040919091013590565b6000602082840312156200332357600080fd5b8135620028dc81620032b4565b634e487b7160e01b600052604160045260246000fd5b604051601f8201601f191681016001600160401b038111828210171562003371576200337162003330565b604052919050565b600082601f8301126200338b57600080fd5b81356001600160401b03811115620033a757620033a762003330565b620033bc601f8201601f191660200162003346565b818152846020838601011115620033d257600080fd5b816020850160208301376000918101602001919091529392505050565b600080604083850312156200340357600080fd5b8235915060208301356001600160401b038111156200342157600080fd5b6200342f8582860162003379565b9150509250929050565b600080604083850312156200344d57600080fd5b82356200345a81620032b4565b946020939093013593505050565b600080604083850312156200347c57600080fd5b50508035926020909101359150565b60008060008060808587031215620034a257600080fd5b8435620034af81620032b4565b966020860135965060408601359560600135945092505050565b60008060408385031215620034dd57600080fd5b823591506020830135620034f181620032b4565b809150509250929050565b600060208083850312156200351057600080fd5b82356001600160401b03808211156200352857600080fd5b818501915085601f8301126200353d57600080fd5b81358181111562003552576200355262003330565b8060051b91506200356584830162003346565b81815291830184019184810190888411156200358057600080fd5b938501935b83851015620035a05784358252938501939085019062003585565b98975050505050505050565b6001600160a01b0391909116815260200190565b801515811462001b8657600080fd5b60008060408385031215620035e357600080fd5b823591506020830135620034f181620035c0565b6000806000606084860312156200360d57600080fd5b833592506020840135620032ff81620032b4565b6000602082840312156200363457600080fd5b81356001600160401b038111156200364b57600080fd5b62002d8b8482850162003379565b6020808252825182820181905260009190848201906040850190845b818110156200369c5783516001600160a01b03168352928401929184019160010162003675565b50909695505050505050565b60008060008060808587031215620036bf57600080fd5b8435620036cc81620032b4565b93506020850135620036de81620032b4565b93969395505050506040820135916060013590565b600080602083850312156200370757600080fd5b82356001600160401b03808211156200371f57600080fd5b818501915085601f8301126200373457600080fd5b8135818111156200374457600080fd5b8660208260051b85010111156200375a57600080fd5b60209290920196919550909350505050565b60005b83811015620037895781810151838201526020016200376f565b50506000910152565b60008151808452620037ac8160208601602086016200376c565b601f01601f19169290920160200192915050565b6000602080830181845280855180835260408601915060408160051b870101925083870160005b828110156200381957603f198886030184526200380685835162003792565b94509285019290850190600101620037e7565b5092979650505050505050565b6000806000606084860312156200383c57600080fd5b83356001600160401b038111156200385357600080fd5b620038618682870162003379565b9660208601359650604090950135949350505050565b600080604083850312156200388b57600080fd5b82356200389881620032b4565b915060208301356001600160401b038111156200342157600080fd5b60008060008060808587031215620038cb57600080fd5b8435620038d881620032b4565b93506020850135620038ea81620032b4565b92506040850135620038fc81620032b4565b9396929550929360600135925050565b60208082526027908201527f4f6e6c79206f776e65722063616e20657865637574652074686973207472616e60408201526639b0b1ba34b7b760c91b606082015260800190565b6001600160a01b039384168152919092166020820152604081019190915260600190565b6000602082840312156200398a57600080fd5b8151620028dc81620035c0565b6020808252602d908201527f52414841543a204e6f20616e7920746f6b656e2077617320697373756564207460408201526c37903a3434b990373ab6b132b960991b606082015260800190565b6020808252602a908201527f52414841543a2053656e646572204d757374206265206120726567697374657260408201526932b2103b32b73237b91760b11b606082015260800190565b6001600160a01b03929092168252602082015260400190565b6020808252601f908201527f52414841543a2053656e646572206d75737420626520616e2061646d696e2e00604082015260600190565b60006020828403121562003a9157600080fd5b8151620028dc81620032b4565b634e487b7160e01b600052601160045260246000fd5b8082018082111562000a015762000a0162003a9e565b8181038181111562000a015762000a0162003a9e565b60006020828403121562003af357600080fd5b5051919050565b634e487b7160e01b600052603260045260246000fd5b60006001820162003b255762003b2562003a9e565b5060010190565b6000825162003b408184602087016200376c565b9190910192915050565b6000808335601e1984360301811262003b6257600080fd5b8301803591506001600160401b0382111562003b7d57600080fd5b60200191503681900382131562003b9357600080fd5b9250929050565b600081600019048311821515161562003bb75762003bb762003a9e565b500290565b60008162003bce5762003bce62003a9e565b506000190190565b76020b1b1b2b9b9a1b7b73a3937b61d1030b1b1b7bab73a1604d1b81526000835162003c0a8160178501602088016200376c565b7001034b99036b4b9b9b4b733903937b6329607d1b601791840191820152835162003c3d8160288401602088016200376c565b01602801949350505050565b602081526000620028dc602083018462003792565b634e487b7160e01b600052601260045260246000fd5b60008262003c865762003c8662003c5e565b500490565b60008262003c9d5762003c9d62003c5e565b500690565b634e487b7160e01b600052603160045260246000fdfe608060405234801561001057600080fd5b506040516108cc3803806108cc83398101604081905261002f91610056565b6001600160a01b03166000908152600260205260409020805460ff19166001179055610086565b60006020828403121561006857600080fd5b81516001600160a01b038116811461007f57600080fd5b9392505050565b610837806100956000396000f3fe608060405234801561001057600080fd5b50600436106100785760003560e01c8063125bfb661461007d578063173825d914610092578063666e1b39146100ba5780637065cb48146100dd578063a591afbe146100f0578063da3e339714610105578063f5537ede14610118578063fb3c0d701461012b575b600080fd5b61009061008b36600461061f565b61013e565b005b6100a56100a036600461065b565b6101ef565b60405190151581526020015b60405180910390f35b6100a56100c836600461065b565b60026020526000908152604090205460ff1681565b6100a56100eb36600461065b565b610253565b6100f86102af565b6040516100b19190610676565b61009061011336600461061f565b6102c0565b61009061012636600461061f565b61031d565b6100906101393660046106c3565b61037a565b3360009081526002602052604090205460ff166101765760405162461bcd60e51b815260040161016d9061070e565b60405180910390fd5b6040516323b872dd60e01b81526001600160a01b038416906323b872dd906101a690859030908690600401610755565b6020604051808303816000875af11580156101c5573d6000803e3d6000fd5b505050506040513d601f19601f820116820180604052508101906101e99190610779565b50505050565b3360009081526002602052604081205460ff1661021e5760405162461bcd60e51b815260040161016d9061070e565b6001600160a01b0382166000908152600260205260408120805460ff191690556102489083610423565b50600190505b919050565b3360009081526002602052604081205460ff166102825760405162461bcd60e51b815260040161016d9061070e565b6001600160a01b0382166000908152600260205260408120805460ff191660011790556102489083610441565b60606102bb6000610456565b905090565b3360009081526002602052604090205460ff166102ef5760405162461bcd60e51b815260040161016d9061070e565b60405163095ea7b360e01b81526001600160a01b0384169063095ea7b3906101a6908590859060040161079b565b3360009081526002602052604090205460ff1661034c5760405162461bcd60e51b815260040161016d9061070e565b60405163a9059cbb60e01b81526001600160a01b0384169063a9059cbb906101a6908590859060040161079b565b3360009081526002602052604090205460ff166103a95760405162461bcd60e51b815260040161016d9061070e565b6040516323b872dd60e01b81526001600160a01b038516906323b872dd906103d990869086908690600401610755565b6020604051808303816000875af11580156103f8573d6000803e3d6000fd5b505050506040513d601f19601f8201168201806040525081019061041c9190610779565b5050505050565b6000610438836001600160a01b03841661046a565b90505b92915050565b6000610438836001600160a01b03841661055d565b60606000610463836105ac565b9392505050565b6000818152600183016020526040812054801561055357600061048e6001836107b4565b85549091506000906104a2906001906107b4565b90508181146105075760008660000182815481106104c2576104c26107d5565b90600052602060002001549050808760000184815481106104e5576104e56107d5565b6000918252602080832090910192909255918252600188019052604090208390555b8554869080610518576105186107eb565b60019003818190600052602060002001600090559055856001016000868152602001908152602001600020600090556001935050505061043b565b600091505061043b565b60008181526001830160205260408120546105a45750815460018181018455600084815260208082209093018490558454848252828601909352604090209190915561043b565b50600061043b565b6060816000018054806020026020016040519081016040528092919081815260200182805480156105fc57602002820191906000526020600020905b8154815260200190600101908083116105e8575b50505050509050919050565b80356001600160a01b038116811461024e57600080fd5b60008060006060848603121561063457600080fd5b61063d84610608565b925061064b60208501610608565b9150604084013590509250925092565b60006020828403121561066d57600080fd5b61043882610608565b6020808252825182820181905260009190848201906040850190845b818110156106b75783516001600160a01b031683529284019291840191600101610692565b50909695505050505050565b600080600080608085870312156106d957600080fd5b6106e285610608565b93506106f060208601610608565b92506106fe60408601610608565b9396929550929360600135925050565b60208082526027908201527f4f6e6c79206f776e65722063616e20657865637574652074686973207472616e60408201526639b0b1ba34b7b760c91b606082015260800190565b6001600160a01b039384168152919092166020820152604081019190915260600190565b60006020828403121561078b57600080fd5b8151801515811461046357600080fd5b6001600160a01b03929092168252602082015260400190565b8181038181111561043b57634e487b7160e01b600052601160045260246000fd5b634e487b7160e01b600052603260045260246000fd5b634e487b7160e01b600052603160045260246000fdfea2646970667358221220904a99079b1f655c867f9a9730dd42d34d04d7666bcea7dce847d3be6c11fc5764736f6c634300081000330aaf57387812c7f832412470a57567b5648a930069be49aa9c98d04f88520d34caa7f6290f33308266ee2988386694ac9bc3612b5df272e3502129925a64f997416464726573733a206c6f772d6c6576656c2064656c65676174652063616c6c206661696c6564a264697066735822122099a429a66b2ad0021841877b9421129398f4a87fb2509cb638abdd635f21da8864736f6c63430008100033caa7f6290f33308266ee2988386694ac9bc3612b5df272e3502129925a64f997",
  "immutableReferences": {},
  "source": "//SPDX-License-Identifier: LGPL-3.0\r\n//TODO add balance of beneficiary per project\r\n//TODO suspend mobilizer and vendor\r\n//TODO test tokenissue by mobilizer\r\n//TODO test otp set by server account and otp submission by vendor account\r\n//TODO revole roles\r\n\r\npragma solidity ^0.8.16;\r\nimport \"./RahatERC20.sol\";\r\nimport \"./RahatRegistry.sol\";\r\nimport \"./RahatWallet.sol\";\r\nimport \"./RahatTriggerResponse.sol\";\r\nimport \"../libraries/AbstractERC20Func.sol\";\r\n\r\nimport \"@openzeppelin/contracts/access/AccessControl.sol\";\r\nimport \"@openzeppelin/contracts/utils/structs/EnumerableSet.sol\";\r\nimport \"@openzeppelin/contracts/utils/cryptography/ECDSA.sol\";\r\nimport \"@openzeppelin/contracts/utils/Multicall.sol\";\r\n\r\ncontract Rahat is AccessControl, AbstractERC20Func, Multicall {\r\n  using Strings for uint256;\r\n  using EnumerableSet for EnumerableSet.Bytes32Set;\r\n  using EnumerableSet for EnumerableSet.AddressSet;\r\n  using EnumerableSet for EnumerableSet.UintSet;\r\n  using ECDSA for bytes32;\r\n\r\n  //***** Events *********//\r\n  event ClaimedERC20(\r\n    address indexed vendor,\r\n    uint256 indexed beneficiary,\r\n    uint256 amount\r\n  );\r\n  event ClaimApproved(\r\n    address indexed vendor,\r\n    uint256 indexed phone,\r\n    uint256 amount\r\n  );\r\n  event IssuedERC20(\r\n    bytes32 indexed projectId,\r\n    uint256 indexed phone,\r\n    uint256 amount\r\n  );\r\n  event ClaimAcquiredERC20(\r\n    address indexed vendor,\r\n    uint256 indexed beneficiary,\r\n    uint256 amount\r\n  );\r\n  event InvalidSignature(\r\n    bytes signature,\r\n    bytes32 digest,\r\n    address expectedSigner,\r\n    address recoveredSigner\r\n  );\r\n\r\n  //event BalanceAdjusted(uint256 indexed phone, uint256 amount, string reason);\r\n\r\n  //***** Constant Variables (Roles) *********//\r\n  bytes32 public constant SERVER_ROLE = keccak256(\"SERVER\");\r\n  bytes32 public constant VENDOR_ROLE = keccak256(\"VENDOR\");\r\n  bytes32 public constant MANAGER_ROLE = keccak256(\"MANAGER\");\r\n  bytes32 public constant MOBILIZER_ROLE = keccak256(\"MOBILIZER\");\r\n  bytes32 public constant ISSUE_TOKEN = keccak256(\"issueToken\");\r\n  bytes32 public constant CREATE_CLAIM = keccak256(\"createClaim\");\r\n  bytes32 public constant GET_TOKENS_FROM_CLAIM = keccak256(\r\n    \"getTokensFromClaim\"\r\n  );\r\n\r\n  mapping(address => uint256) public nonces; //delegated users nonces\r\n\r\n  //***** Variables (State) *********//\r\n  //AidToken public tokenContract;\r\n  RahatERC20 public erc20;\r\n  RahatERC20 public cashToken;\r\n  RahatRegistry public registry;\r\n  RahatTriggerResponse public triggerResponse;\r\n\r\n  ///@notice track total issued tokens of each benefiicary phone\r\n  mapping(uint256 => uint256) public erc20Issued; //phone=>balance\r\n\r\n  /// @notice track balances of each beneficiary phone\r\n  mapping(uint256 => uint256) public erc20Balance; //phone=>balance\r\n\r\n  mapping(uint256 => bool) public isBanked;\r\n\r\n  /// @notice track projectBalances\r\n  //bytes32[] public projectId;\r\n  EnumerableSet.Bytes32Set private projectId;\r\n  mapping(bytes32 => uint256) public totalProjectErc20Issued;\r\n  mapping(bytes32 => uint256) public remainingProjectErc20Balances;\r\n  mapping(bytes32 => EnumerableSet.AddressSet) projectMobilizers;\r\n  mapping(bytes32 => EnumerableSet.AddressSet) projectVendors;\r\n\r\n  mapping(address => uint256) public erc20IssuedBy;\r\n\r\n  struct claim {\r\n    uint256 amount;\r\n    bytes32 otpHash;\r\n    bool isReleased;\r\n    uint256 date;\r\n  }\r\n  /// @dev vendorAddress => phone => claim\r\n  mapping(address => mapping(bytes32 => claim)) public recentERC20Claims;\r\n\r\n  //***** Constructor *********//\r\n  constructor(\r\n    RahatERC20 _erc20,\r\n    RahatRegistry _registry,\r\n    RahatTriggerResponse _triggerResponse,\r\n    address _admin\r\n  ) {\r\n    _setupRole(DEFAULT_ADMIN_ROLE, msg.sender);\r\n    _setupRole(DEFAULT_ADMIN_ROLE, _admin);\r\n    _setRoleAdmin(SERVER_ROLE, DEFAULT_ADMIN_ROLE);\r\n    _setRoleAdmin(VENDOR_ROLE, DEFAULT_ADMIN_ROLE);\r\n    grantRole(SERVER_ROLE, msg.sender);\r\n    erc20 = _erc20;\r\n    registry = _registry;\r\n    triggerResponse = _triggerResponse;\r\n    owner[_admin] = true;\r\n  }\r\n\r\n  function supportsInterface(bytes4 interfaceId)\r\n    public\r\n    view\r\n    virtual\r\n    override(AccessControl)\r\n    returns (bool)\r\n  {\r\n    return super.supportsInterface(interfaceId);\r\n  }\r\n\r\n  //***** Modifiers *********//\r\n  modifier OnlyServer() {\r\n    require(\r\n      hasRole(SERVER_ROLE, msg.sender),\r\n      \"RAHAT: Sender must be an authorized server\"\r\n    );\r\n    _;\r\n  }\r\n  modifier OnlyAdmin {\r\n    require(\r\n      hasRole(DEFAULT_ADMIN_ROLE, msg.sender),\r\n      \"RAHAT: Sender must be an admin.\"\r\n    );\r\n    _;\r\n  }\r\n  modifier IsBeneficiary(uint256 _phone) {\r\n    bytes32 _benId = findHash(_phone);\r\n    require(\r\n      erc20Balance[_phone] != 0,\r\n      \"RAHAT: No any token was issued to this number\"\r\n    );\r\n    _;\r\n  }\r\n  modifier OnlyVendor {\r\n    require(\r\n      hasRole(VENDOR_ROLE, msg.sender),\r\n      \"RAHAT: Sender Must be a registered vendor.\"\r\n    );\r\n    _;\r\n  }\r\n  modifier OnlyAdminOrMobilizer {\r\n    require(\r\n      (hasRole(DEFAULT_ADMIN_ROLE, msg.sender) ||\r\n        hasRole(MOBILIZER_ROLE, msg.sender)),\r\n      \"RAHAT: Sender Must be a registered Admin Or Mobilizer.\"\r\n    );\r\n    _;\r\n  }\r\n\r\n  //***** Methods *********//\r\n  //Access Control Management\r\n  /// @notice add admin of the this contract\r\n  /// @param _account address of the new admin\r\n  function addAdmin(address _account) external OnlyAdmin {\r\n    grantRole(DEFAULT_ADMIN_ROLE, _account);\r\n    owner[_account] = true;\r\n  }\r\n\r\n  function isAdmin(address _account) external view returns(bool){\r\n    return hasRole(DEFAULT_ADMIN_ROLE, _account);\r\n  }\r\n\r\n  /// @notice add server account for this contract\r\n  /// @param _account address of the new server account\r\n  function addServer(address _account) external OnlyAdmin {\r\n    grantRole(SERVER_ROLE, _account);\r\n  }\r\n\r\n  /// @notice add vendors\r\n  /// @param _account address of the new vendor\r\n  function addVendor(address _account) external OnlyAdmin returns (address) {\r\n    RahatWallet vWallet;\r\n    bytes32 idHash = findHash(_account);\r\n    address vWalletAddress = registry.id2Address(idHash);\r\n    if(vWalletAddress!=address(0)){\r\n      vWallet = RahatWallet(vWalletAddress);\r\n    }\r\n    else {\r\n      vWallet = new RahatWallet(address(this));\r\n      registry.addId2AddressMap(findHash(_account), address(vWallet));\r\n    } \r\n    vWallet.addOwner(_account);\r\n    grantRole(VENDOR_ROLE, _account);\r\n    return address(vWallet);\r\n  }\r\n\r\n  function isVendor(address _account) public view returns(bool){\r\n    return hasRole(VENDOR_ROLE, _account);\r\n  }\r\n\r\n  /// @notice add vendors\r\n  /// @param _account address of the new vendor\r\n  /// @param _projectId projectId\r\n  function addMobilizer(address _account, string memory _projectId)\r\n    external\r\n    OnlyAdmin\r\n  {\r\n    bytes32 _id = findHash(_projectId);\r\n    grantRole(MOBILIZER_ROLE, _account);\r\n    projectMobilizers[_id].add(_account);\r\n  }\r\n\r\n  /// @notice set IsBanked Beneficiary\r\n  /// @param _phone beneficiary phone number\r\n  /// @param _isBanked true/false\r\n  function setAsBankedBeneficiary(uint256 _phone, bool _isBanked)\r\n    external\r\n    OnlyAdmin\r\n  {\r\n    isBanked[_phone] = _isBanked;\r\n  }\r\n\r\n  // function suspendMobilizer() public {}\r\n\r\n  // function suspendVendor() public {}\r\n\r\n  //Beneficiary Management\r\n  /// @notice suspend the benficiary by deducting all the balance beneficiary owns\r\n  /// @param _phone phone number of the Beneficiary\r\n  /// @param _projectId projectId beneficiary is involved in\r\n  function suspendBeneficiary(uint256 _phone, bytes32 _projectId)\r\n    public\r\n    OnlyAdmin\r\n    IsBeneficiary(_phone)\r\n  {\r\n    //  bytes32 _benId = findHash(_phone);\r\n\r\n    uint256 _balance = erc20Balance[_phone];\r\n    remainingProjectErc20Balances[_projectId] += _balance;\r\n    erc20Balance[_phone] = 0;\r\n    erc20Issued[_phone] = erc20Issued[_phone] - _balance;\r\n  }\r\n\r\n  /// @notice adds the token from beneficiary\r\n  function adjustTokenAdd(uint256 _phone, uint256 _amount) private {\r\n    // bytes32 _benId = findHash(_phone);\r\n    erc20Balance[_phone] = erc20Balance[_phone] + _amount;\r\n    erc20Issued[_phone] = erc20Issued[_phone] + _amount;\r\n    //emit BalanceAdjusted(_phone, _amount, _reason);\r\n  }\r\n\r\n  /// @notice deducts the token from beneficiary\r\n  function adjustTokenDeduct(uint256 _phone, uint256 _amount)\r\n    private\r\n    IsBeneficiary(_phone)\r\n  {\r\n    //bytes32 _benId = findHash(_phone);\r\n    erc20Balance[_phone] = erc20Balance[_phone] - _amount;\r\n    //emit BalanceAdjusted(_phone, _amount, _reason);\r\n  }\r\n\r\n  /// @notice update a project balance.\r\n  /// @notice called by rahatdmin contract\r\n  /// @param _projectId Id of the project to assign budget\r\n  /// @param _projectCapital amount of budget to be added to project\r\n  function updateProjectBudget(bytes32 _projectId, uint256 _projectCapital)\r\n    external\r\n  {\r\n    remainingProjectErc20Balances[_projectId] += _projectCapital;\r\n    totalProjectErc20Issued[_projectId] += _projectCapital;\r\n  }\r\n\r\n  /// @notice get the current balance of project\r\n  function getProjectBalance(bytes32 _projectId)\r\n    external\r\n    view\r\n    returns (uint256 _balance)\r\n  {\r\n    return remainingProjectErc20Balances[_projectId];\r\n  }\r\n\r\n  function verifyVendor(bytes32 _hash, bytes memory _signature)\r\n    internal\r\n    view\r\n    returns (address)\r\n  {\r\n    address _signer = _hash.recover(_signature);\r\n    require(hasRole(VENDOR_ROLE, _signer), \"Signer should be Mobilizer\");\r\n    return _signer;\r\n  }\r\n\r\n  function verifyMobilizer(bytes32 _hash, bytes memory _signature)\r\n    internal\r\n    view\r\n    returns (address)\r\n  {\r\n    address _signer = _hash.recover(_signature);\r\n    require(hasRole(MOBILIZER_ROLE, _signer), \"Signer should be Mobilizer\");\r\n    return _signer;\r\n  }\r\n\r\n  /// @notice Issue tokens to beneficiary\r\n  /// @param _projectId Id of the project beneficiary is involved in\r\n  /// @param _phone phone number of the beneficiary\r\n  /// @param _amount Amount of token to be assigned to beneficiary\r\n  function issueERC20ToBeneficiary(\r\n    string memory _projectId,\r\n    uint256 _phone,\r\n    uint256 _amount\r\n  ) public OnlyAdmin {\r\n    bytes32 _id = findHash(_projectId);\r\n\r\n    //check beneficiary in registry;\r\n    require(registry.exists(findHash(_phone)), \"Beneficiary not registered.\");\r\n    erc20IssuedBy[msg.sender] += _amount;\r\n    require(\r\n      remainingProjectErc20Balances[_id] >= _amount,\r\n      \"RAHAT: Amount is greater than remaining Project Budget\"\r\n    );\r\n    remainingProjectErc20Balances[_id] -= _amount;\r\n    adjustTokenAdd(_phone, _amount);\r\n\r\n    emit IssuedERC20(_id, _phone, _amount);\r\n  }\r\n\r\n  /// @notice request a token to beneficiary by vendor\r\n  /// @param _phone Phone number of beneficiary to whom token is requested\r\n  /// @param _tokens Number of tokens to request\r\n  function createERC20Claim(uint256 _phone, uint256 _tokens)\r\n    public\r\n    IsBeneficiary(_phone)\r\n    OnlyVendor\r\n  {\r\n    require(\r\n      triggerResponse.isLive(),\r\n      \"This response has not been activated yet, please contact admin.\"\r\n    );\r\n    require(!isBanked[_phone], \"Cannot claim from banked beneficiary\");\r\n    \r\n    _verifyVendorCashBalance(msg.sender, _tokens);\r\n\r\n    bytes32 _benId = findHash(_phone);\r\n    require(\r\n      erc20Balance[_phone] >= _tokens,\r\n      \"RAHAT: Amount requested is greater than beneficiary balance.\"\r\n    );\r\n\r\n    claim storage ac = recentERC20Claims[msg.sender][_benId];\r\n    ac.isReleased = false;\r\n    ac.amount = _tokens;\r\n    ac.date = block.timestamp;\r\n    emit ClaimedERC20(tx.origin, _phone, _tokens);\r\n  }\r\n\r\n  /// @notice Approve the requested claim from serverside and set the otp hash\r\n  /// @param _vendor Address of the vendor who requested the token from beneficiary\r\n  /// @param _phone Phone number of the beneficiary, to whom token request was sent\r\n  /// @param _otpHash Hash of OTP sent to beneficiary by server\r\n  /// @param _timeToLive Validity of OTP in seconds\r\n  function approveERC20Claim(\r\n    address _vendor,\r\n    uint256 _phone,\r\n    bytes32 _otpHash,\r\n    uint256 _timeToLive\r\n  ) public IsBeneficiary(_phone) OnlyServer {\r\n    bytes32 _benId = findHash(_phone);\r\n    claim storage ac = recentERC20Claims[_vendor][_benId];\r\n    require(ac.date != 0, \"RAHAT: Claim has not been created yet\");\r\n    require(\r\n      _timeToLive <= 86400,\r\n      \"RAHAT:Time To Live should be less than 24 hours\"\r\n    );\r\n    require(\r\n      block.timestamp <= ac.date + 86400,\r\n      \"RAHAT: Claim is older than 24 hours\"\r\n    );\r\n    require(!ac.isReleased, \"RAHAT: Claim has already been released.\");\r\n    ac.otpHash = _otpHash;\r\n    ac.isReleased = true;\r\n    ac.date = block.timestamp + _timeToLive;\r\n    emit ClaimApproved(_vendor, _phone, ac.amount);\r\n  }\r\n\r\n  /// @notice Retrieve tokens that was requested to beneficiary by entering OTP\r\n  /// @param _phone Phone Number of the beneficiary, to whom token request was sent\r\n  /// @param _otp OTP sent by the server\r\n  function getERC20FromClaim(uint256 _phone, string memory _otp)\r\n    public\r\n    IsBeneficiary(_phone)\r\n    OnlyVendor\r\n  {\r\n    bytes32 _benId = findHash(_phone);\r\n    claim storage ac = recentERC20Claims[msg.sender][_benId];\r\n    require(ac.isReleased, \"RAHAT: Claim has not been released.\");\r\n    require(ac.date >= block.timestamp, \"RAHAT: Claim has already expired.\");\r\n    bytes32 otpHash = findHash(_otp);\r\n    require(\r\n      recentERC20Claims[msg.sender][_benId].otpHash == otpHash,\r\n      \"RAHAT: OTP did not match.\"\r\n    );\r\n    adjustTokenDeduct(_phone, ac.amount);\r\n    uint256 amt = ac.amount;\r\n    ac.isReleased = false;\r\n    ac.amount = 0;\r\n    ac.date = 0;\r\n    erc20.transfer(msg.sender, amt);\r\n    _transferCashFromVendor(msg.sender, _phone, amt);\r\n    emit ClaimAcquiredERC20(msg.sender, _phone, amt);\r\n  }\r\n\r\n  /// @notice Admin function to transfer beneficiary token to vendor\r\n  /// @param _phone Phone number of beneficiary to whom token is requested\r\n  /// @param _vendorAddress vendor's address\r\n  /// @param _amount Number of tokens to request\r\n  function transferTokenToVendorByAdmin(uint256 _phone, address _vendorAddress, uint256 _amount) \r\n    public IsBeneficiary(_phone) OnlyAdmin {\r\n      require(isVendor(_vendorAddress), \"Transfer to must be vendor address\");\r\n      adjustTokenDeduct(_phone, _amount);\r\n      _transferCashFromVendor(_vendorAddress, _phone, _amount);\r\n      erc20.transfer(_vendorAddress, _amount);\r\n      emit ClaimAcquiredERC20(_vendorAddress, _phone, _amount);\r\n  }\r\n  \r\n  function transferCashToVendor(address _vendorAddress, uint _amount) public OnlyAdmin {\r\n    require(registry.exists(findHash(_vendorAddress)), \"vendor wallet not registered.\");\r\n    cashToken.approve(registry.id2Address(findHash(_vendorAddress)), _amount);\r\n  }\r\n\r\n  function _transferCashFromVendor(address _vendorAddress, uint256 _phone, uint _amount) private {\r\n    RahatWallet vendorWallet = RahatWallet(registry.id2Address(findHash(_vendorAddress)));\r\n    vendorWallet.transferToken(address(cashToken), registry.id2Address(findHash(_phone)), _amount);\r\n  }\r\n\r\n  function _verifyVendorCashBalance(address _vendorAddress, uint256 _amount) private view {\r\n    uint balance = cashToken.balanceOf(registry.id2Address(findHash(_vendorAddress)));\r\n    require(balance >= _amount, \"Vendor does not have enough cash balance.\");\r\n  } \r\n\r\n  function claimTokenForProject(address _token, address _from, bytes32 _projectId, uint256 _amount) public OnlyOwner {\r\n    if(address(cashToken) == address(0)) cashToken = RahatERC20(_token);\r\n    claimToken(_token, _from, _amount);\r\n    remainingProjectErc20Balances[_projectId] += _amount;\r\n    totalProjectErc20Issued[_projectId] += _amount;\r\n  }\r\n\r\n  function vendorBalance(address _vendorAddress) public view returns (address walletAddress, uint cashAllowance, uint cashBalance, uint tokenBalance) {\r\n    walletAddress = registry.id2Address(findHash(_vendorAddress));\r\n    cashAllowance = cashToken.allowance(address(this), walletAddress);\r\n    cashBalance = cashToken.balanceOf(walletAddress);\r\n    tokenBalance = erc20.balanceOf(_vendorAddress);\r\n  } \r\n\r\n  function beneficiaryBalance(uint _phone) public view returns (address walletAddress, uint cashBalance, uint tokenBalance) {\r\n    walletAddress = registry.id2Address(findHash(_phone));\r\n    cashBalance = cashToken.balanceOf(walletAddress);\r\n    tokenBalance = erc20Balance[_phone];\r\n  } \r\n\r\n  /// @notice generates the hash of the given string\r\n  /// @param _data String of which hash is to be generated\r\n  function findHash(string memory _data) public pure returns (bytes32) {\r\n    return keccak256(abi.encodePacked(_data));\r\n  }\r\n\r\n  /// @notice generates the hash of the given string\r\n  function findHash(uint256 _data) public pure returns (bytes32) {\r\n    return keccak256(abi.encodePacked(_data.toString()));\r\n  }\r\n\r\n  function findHash(address _data) public pure returns (bytes32) {\r\n    return keccak256(abi.encodePacked(_data));\r\n  }\r\n\r\n  /// @notice Generates the sum of all the integers in array\r\n  /// @param _array Array of uint\r\n  function getArraySum(uint256[] memory _array)\r\n    public\r\n    pure\r\n    returns (uint256 sum)\r\n  {\r\n    sum = 0;\r\n    for (uint256 i = 0; i < _array.length; i++) {\r\n      sum += _array[i];\r\n    }\r\n    return sum;\r\n  }\r\n}\r\n",
  "sourcePath": "S:\\Projects\\rahat\\unicef-np\\rahat-contracts\\src\\contracts\\Rahat.sol",
  "compiler": {
    "name": "solc",
    "version": "0.8.16+commit.07a7930e.Emscripten.clang"
  },
  "schemaVersion": "3.4.10",
  "updatedAt": "2022-11-30T15:13:13.406Z",
  "devdoc": {
    "kind": "dev",
    "methods": {
      "addAdmin(address)": {
        "params": {
          "_account": "address of the new admin"
        }
      },
      "addMobilizer(address,string)": {
        "params": {
          "_account": "address of the new vendor",
          "_projectId": "projectId"
        }
      },
      "addOwner(address)": {
        "params": {
          "_account": "address of new owner"
        }
      },
      "addServer(address)": {
        "params": {
          "_account": "address of the new server account"
        }
      },
      "addVendor(address)": {
        "params": {
          "_account": "address of the new vendor"
        }
      },
      "approveERC20Claim(address,uint256,bytes32,uint256)": {
        "params": {
          "_otpHash": "Hash of OTP sent to beneficiary by server",
          "_phone": "Phone number of the beneficiary, to whom token request was sent",
          "_timeToLive": "Validity of OTP in seconds",
          "_vendor": "Address of the vendor who requested the token from beneficiary"
        }
      },
      "createERC20Claim(uint256,uint256)": {
        "params": {
          "_phone": "Phone number of beneficiary to whom token is requested",
          "_tokens": "Number of tokens to request"
        }
      },
      "findHash(string)": {
        "params": {
          "_data": "String of which hash is to be generated"
        }
      },
      "getArraySum(uint256[])": {
        "params": {
          "_array": "Array of uint"
        }
      },
      "getERC20FromClaim(uint256,string)": {
        "params": {
          "_otp": "OTP sent by the server",
          "_phone": "Phone Number of the beneficiary, to whom token request was sent"
        }
      },
      "getRoleAdmin(bytes32)": {
        "details": "Returns the admin role that controls `role`. See {grantRole} and {revokeRole}. To change a role's admin, use {_setRoleAdmin}."
      },
      "grantRole(bytes32,address)": {
        "details": "Grants `role` to `account`. If `account` had not been already granted `role`, emits a {RoleGranted} event. Requirements: - the caller must have ``role``'s admin role."
      },
      "hasRole(bytes32,address)": {
        "details": "Returns `true` if `account` has been granted `role`."
      },
      "issueERC20ToBeneficiary(string,uint256,uint256)": {
        "params": {
          "_amount": "Amount of token to be assigned to beneficiary",
          "_phone": "phone number of the beneficiary",
          "_projectId": "Id of the project beneficiary is involved in"
        }
      },
      "multicall(bytes[])": {
        "details": "Receives and executes a batch of function calls on this contract."
      },
      "removeOwner(address)": {
        "params": {
          "_account": "address of existing owner"
        }
      },
      "renounceRole(bytes32,address)": {
        "details": "Revokes `role` from the calling account. Roles are often managed via {grantRole} and {revokeRole}: this function's purpose is to provide a mechanism for accounts to lose their privileges if they are compromised (such as when a trusted device is misplaced). If the calling account had been revoked `role`, emits a {RoleRevoked} event. Requirements: - the caller must be `account`."
      },
      "revokeRole(bytes32,address)": {
        "details": "Revokes `role` from `account`. If `account` had been granted `role`, emits a {RoleRevoked} event. Requirements: - the caller must have ``role``'s admin role."
      },
      "setAsBankedBeneficiary(uint256,bool)": {
        "params": {
          "_isBanked": "true/false",
          "_phone": "beneficiary phone number"
        }
      },
      "supportsInterface(bytes4)": {
        "details": "See {IERC165-supportsInterface}."
      },
      "suspendBeneficiary(uint256,bytes32)": {
        "params": {
          "_phone": "phone number of the Beneficiary",
          "_projectId": "projectId beneficiary is involved in"
        }
      },
      "transferTokenToVendorByAdmin(uint256,address,uint256)": {
        "params": {
          "_amount": "Number of tokens to request",
          "_phone": "Phone number of beneficiary to whom token is requested",
          "_vendorAddress": "vendor's address"
        }
      },
      "updateProjectBudget(bytes32,uint256)": {
        "params": {
          "_projectCapital": "amount of budget to be added to project",
          "_projectId": "Id of the project to assign budget"
        }
      }
    },
    "stateVariables": {
      "recentERC20Claims": {
        "details": "vendorAddress => phone => claim"
      }
    },
    "version": 1
  },
  "userdoc": {
    "kind": "user",
    "methods": {
      "addAdmin(address)": {
        "notice": "add admin of the this contract"
      },
      "addMobilizer(address,string)": {
        "notice": "add vendors"
      },
      "addOwner(address)": {
        "notice": "Add an account to the owner role"
      },
      "addServer(address)": {
        "notice": "add server account for this contract"
      },
      "addVendor(address)": {
        "notice": "add vendors"
      },
      "approveERC20Claim(address,uint256,bytes32,uint256)": {
        "notice": "Approve the requested claim from serverside and set the otp hash"
      },
      "createERC20Claim(uint256,uint256)": {
        "notice": "request a token to beneficiary by vendor"
      },
      "erc20Balance(uint256)": {
        "notice": "track balances of each beneficiary phone"
      },
      "erc20Issued(uint256)": {
        "notice": "track total issued tokens of each benefiicary phone"
      },
      "findHash(string)": {
        "notice": "generates the hash of the given string"
      },
      "findHash(uint256)": {
        "notice": "generates the hash of the given string"
      },
      "getArraySum(uint256[])": {
        "notice": "Generates the sum of all the integers in array"
      },
      "getERC20FromClaim(uint256,string)": {
        "notice": "Retrieve tokens that was requested to beneficiary by entering OTP"
      },
      "getProjectBalance(bytes32)": {
        "notice": "get the current balance of project"
      },
      "issueERC20ToBeneficiary(string,uint256,uint256)": {
        "notice": "Issue tokens to beneficiary"
      },
      "removeOwner(address)": {
        "notice": "Remove an account from the owner role"
      },
      "setAsBankedBeneficiary(uint256,bool)": {
        "notice": "set IsBanked Beneficiary"
      },
      "suspendBeneficiary(uint256,bytes32)": {
        "notice": "suspend the benficiary by deducting all the balance beneficiary owns"
      },
      "transferTokenToVendorByAdmin(uint256,address,uint256)": {
        "notice": "Admin function to transfer beneficiary token to vendor"
      },
      "updateProjectBudget(bytes32,uint256)": {
        "notice": "update a project balance.called by rahatdmin contract"
      }
    },
    "version": 1
  }
}