{
  "contractName": "RahatRegistry",
  "abi": [
    {
      "inputs": [
        {
          "internalType": "address",
          "name": "_admin",
          "type": "address"
        }
      ],
      "stateMutability": "nonpayable",
      "type": "constructor"
    },
    {
      "inputs": [
        {
          "internalType": "address",
          "name": "_account",
          "type": "address"
        }
      ],
      "name": "addOwner",
      "outputs": [
        {
          "internalType": "bool",
          "name": "",
          "type": "bool"
        }
      ],
      "stateMutability": "nonpayable",
      "type": "function"
    },
    {
      "inputs": [
        {
          "internalType": "bytes32",
          "name": "",
          "type": "bytes32"
        }
      ],
      "name": "id2Address",
      "outputs": [
        {
          "internalType": "address",
          "name": "",
          "type": "address"
        }
      ],
      "stateMutability": "view",
      "type": "function"
    },
    {
      "inputs": [],
      "name": "listAdmins",
      "outputs": [
        {
          "internalType": "address[]",
          "name": "",
          "type": "address[]"
        }
      ],
      "stateMutability": "view",
      "type": "function"
    },
    {
      "inputs": [
        {
          "internalType": "address",
          "name": "",
          "type": "address"
        }
      ],
      "name": "owner",
      "outputs": [
        {
          "internalType": "bool",
          "name": "",
          "type": "bool"
        }
      ],
      "stateMutability": "view",
      "type": "function"
    },
    {
      "inputs": [
        {
          "internalType": "address",
          "name": "_account",
          "type": "address"
        }
      ],
      "name": "removeOwner",
      "outputs": [
        {
          "internalType": "bool",
          "name": "",
          "type": "bool"
        }
      ],
      "stateMutability": "nonpayable",
      "type": "function"
    },
    {
      "inputs": [
        {
          "internalType": "bytes32",
          "name": "_id",
          "type": "bytes32"
        },
        {
          "internalType": "address",
          "name": "_addr",
          "type": "address"
        }
      ],
      "name": "addId2AddressMap",
      "outputs": [
        {
          "internalType": "bool",
          "name": "",
          "type": "bool"
        }
      ],
      "stateMutability": "nonpayable",
      "type": "function"
    },
    {
      "inputs": [
        {
          "internalType": "bytes32",
          "name": "_id",
          "type": "bytes32"
        }
      ],
      "name": "exists",
      "outputs": [
        {
          "internalType": "bool",
          "name": "",
          "type": "bool"
        }
      ],
      "stateMutability": "view",
      "type": "function"
    }
  ],
  "bytecode": "0x608060405234801561001057600080fd5b5060405161069d38038061069d83398101604081905261002f91610056565b6001600160a01b03166000908152600260205260409020805460ff19166001179055610086565b60006020828403121561006857600080fd5b81516001600160a01b038116811461007f57600080fd5b9392505050565b610608806100956000396000f3fe608060405234801561001057600080fd5b506004361061006d5760003560e01c8063173825d91461007257806338a699a41461009a578063666e1b39146100c55780637065cb48146100e8578063a591afbe146100fb578063b3fd13a914610110578063bde87f2e14610123575b600080fd5b610085610080366004610491565b610164565b60405190151581526020015b60405180910390f35b6100856100a83660046104ac565b6000908152600360205260409020546001600160a01b0316151590565b6100856100d3366004610491565b60026020526000908152604090205460ff1681565b6100856100f6366004610491565b6101d1565b61010361022d565b60405161009191906104c5565b61008561011e366004610512565b61023e565b61014c6101313660046104ac565b6003602052600090815260409020546001600160a01b031681565b6040516001600160a01b039091168152602001610091565b3360009081526002602052604081205460ff1661019c5760405162461bcd60e51b81526004016101939061053e565b60405180910390fd5b6001600160a01b0382166000908152600260205260408120805460ff191690556101c6908361029e565b50600190505b919050565b3360009081526002602052604081205460ff166102005760405162461bcd60e51b81526004016101939061053e565b6001600160a01b0382166000908152600260205260408120805460ff191660011790556101c690836102ba565b606061023960006102cf565b905090565b3360009081526002602052604081205460ff1661026d5760405162461bcd60e51b81526004016101939061053e565b50600082815260036020526040902080546001600160a01b0319166001600160a01b03831617905560015b92915050565b60006102b3836001600160a01b0384166102dc565b9392505050565b60006102b3836001600160a01b0384166103cf565b606060006102b38361041e565b600081815260018301602052604081205480156103c5576000610300600183610585565b855490915060009061031490600190610585565b9050818114610379576000866000018281548110610334576103346105a6565b9060005260206000200154905080876000018481548110610357576103576105a6565b6000918252602080832090910192909255918252600188019052604090208390555b855486908061038a5761038a6105bc565b600190038181906000526020600020016000905590558560010160008681526020019081526020016000206000905560019350505050610298565b6000915050610298565b600081815260018301602052604081205461041657508154600181810184556000848152602080822090930184905584548482528286019093526040902091909155610298565b506000610298565b60608160000180548060200260200160405190810160405280929190818152602001828054801561046e57602002820191906000526020600020905b81548152602001906001019080831161045a575b50505050509050919050565b80356001600160a01b03811681146101cc57600080fd5b6000602082840312156104a357600080fd5b6102b38261047a565b6000602082840312156104be57600080fd5b5035919050565b6020808252825182820181905260009190848201906040850190845b818110156105065783516001600160a01b0316835292840192918401916001016104e1565b50909695505050505050565b6000806040838503121561052557600080fd5b823591506105356020840161047a565b90509250929050565b60208082526027908201527f4f6e6c79206f776e65722063616e20657865637574652074686973207472616e60408201526639b0b1ba34b7b760c91b606082015260800190565b8181038181111561029857634e487b7160e01b600052601160045260246000fd5b634e487b7160e01b600052603260045260246000fd5b634e487b7160e01b600052603160045260246000fdfea2646970667358221220dcc925a503a30fbb334206ae00bbd645238ba86daf64b2e0fd138b4f73f2f85264736f6c63430008100033",
  "immutableReferences": {},
  "source": "//SPDX-License-Identifier: LGPL-3.0\r\n\r\npragma solidity ^0.8.16;\r\n\r\nimport \"../libraries/AbstractOwner.sol\";\r\n\r\n/// @title Donor contract to create tokens\r\n/// @author Rumsan Associates\r\n/// @notice You can use this contract to manage Rahat tokens and projects\r\n/// @dev All function calls are only executed by contract owner\r\ncontract RahatRegistry is AbstractOwner {\r\n\r\n  mapping(bytes32=>address) public id2Address;\r\n\r\n  constructor(\r\n    address _admin\r\n  ) {\r\n    owner[_admin] = true;\r\n  }\r\n\r\n  function addId2AddressMap(bytes32 _id, address _addr) public OnlyOwner returns(bool) {\r\n    id2Address[_id] = _addr;\r\n    return true;\r\n  }\r\n\r\n  function exists(bytes32 _id) public view returns(bool){\r\n    return id2Address[_id]!=address(0);\r\n  }\r\n}\r\n",
  "sourcePath": "S:\\Projects\\rahat\\unicef-np\\rahat-contracts\\src\\contracts\\RahatRegistry.sol",
  "compiler": {
    "name": "solc",
    "version": "0.8.16+commit.07a7930e.Emscripten.clang"
  },
  "schemaVersion": "3.4.10",
  "updatedAt": "2022-11-29T18:51:58.090Z",
  "devdoc": {
    "author": "Rumsan Associates",
    "details": "All function calls are only executed by contract owner",
    "kind": "dev",
    "methods": {
      "addOwner(address)": {
        "params": {
          "_account": "address of new owner"
        }
      },
      "removeOwner(address)": {
        "params": {
          "_account": "address of existing owner"
        }
      }
    },
    "title": "Donor contract to create tokens",
    "version": 1
  },
  "userdoc": {
    "kind": "user",
    "methods": {
      "addOwner(address)": {
        "notice": "Add an account to the owner role"
      },
      "removeOwner(address)": {
        "notice": "Remove an account from the owner role"
      }
    },
    "notice": "You can use this contract to manage Rahat tokens and projects",
    "version": 1
  }
}