{
  "contractName": "Rahat",
  "abi": [
    {
      "inputs": [
        {
          "internalType": "contract RahatERC20",
          "name": "_erc20",
          "type": "address"
        },
        {
          "internalType": "contract RahatTriggerResponse",
          "name": "_triggerResponse",
          "type": "address"
        },
        {
          "internalType": "address",
          "name": "_admin",
          "type": "address"
        }
      ],
      "stateMutability": "nonpayable",
      "type": "constructor"
    },
    {
      "anonymous": false,
      "inputs": [
        {
          "indexed": true,
          "internalType": "address",
          "name": "vendor",
          "type": "address"
        },
        {
          "indexed": true,
          "internalType": "uint256",
          "name": "beneficiary",
          "type": "uint256"
        },
        {
          "indexed": false,
          "internalType": "uint256",
          "name": "amount",
          "type": "uint256"
        }
      ],
      "name": "ClaimAcquiredERC20",
      "type": "event"
    },
    {
      "anonymous": false,
      "inputs": [
        {
          "indexed": true,
          "internalType": "address",
          "name": "vendor",
          "type": "address"
        },
        {
          "indexed": true,
          "internalType": "uint256",
          "name": "phone",
          "type": "uint256"
        },
        {
          "indexed": false,
          "internalType": "uint256",
          "name": "amount",
          "type": "uint256"
        }
      ],
      "name": "ClaimApproved",
      "type": "event"
    },
    {
      "anonymous": false,
      "inputs": [
        {
          "indexed": true,
          "internalType": "address",
          "name": "vendor",
          "type": "address"
        },
        {
          "indexed": true,
          "internalType": "uint256",
          "name": "beneficiary",
          "type": "uint256"
        },
        {
          "indexed": false,
          "internalType": "uint256",
          "name": "amount",
          "type": "uint256"
        }
      ],
      "name": "ClaimedERC20",
      "type": "event"
    },
    {
      "anonymous": false,
      "inputs": [
        {
          "indexed": false,
          "internalType": "bytes",
          "name": "signature",
          "type": "bytes"
        },
        {
          "indexed": false,
          "internalType": "bytes32",
          "name": "digest",
          "type": "bytes32"
        },
        {
          "indexed": false,
          "internalType": "address",
          "name": "expectedSigner",
          "type": "address"
        },
        {
          "indexed": false,
          "internalType": "address",
          "name": "recoveredSigner",
          "type": "address"
        }
      ],
      "name": "InvalidSignature",
      "type": "event"
    },
    {
      "anonymous": false,
      "inputs": [
        {
          "indexed": true,
          "internalType": "bytes32",
          "name": "projectId",
          "type": "bytes32"
        },
        {
          "indexed": true,
          "internalType": "uint256",
          "name": "phone",
          "type": "uint256"
        },
        {
          "indexed": false,
          "internalType": "uint256",
          "name": "amount",
          "type": "uint256"
        }
      ],
      "name": "IssuedERC20",
      "type": "event"
    },
    {
      "anonymous": false,
      "inputs": [
        {
          "indexed": true,
          "internalType": "bytes32",
          "name": "role",
          "type": "bytes32"
        },
        {
          "indexed": true,
          "internalType": "bytes32",
          "name": "previousAdminRole",
          "type": "bytes32"
        },
        {
          "indexed": true,
          "internalType": "bytes32",
          "name": "newAdminRole",
          "type": "bytes32"
        }
      ],
      "name": "RoleAdminChanged",
      "type": "event"
    },
    {
      "anonymous": false,
      "inputs": [
        {
          "indexed": true,
          "internalType": "bytes32",
          "name": "role",
          "type": "bytes32"
        },
        {
          "indexed": true,
          "internalType": "address",
          "name": "account",
          "type": "address"
        },
        {
          "indexed": true,
          "internalType": "address",
          "name": "sender",
          "type": "address"
        }
      ],
      "name": "RoleGranted",
      "type": "event"
    },
    {
      "anonymous": false,
      "inputs": [
        {
          "indexed": true,
          "internalType": "bytes32",
          "name": "role",
          "type": "bytes32"
        },
        {
          "indexed": true,
          "internalType": "address",
          "name": "account",
          "type": "address"
        },
        {
          "indexed": true,
          "internalType": "address",
          "name": "sender",
          "type": "address"
        }
      ],
      "name": "RoleRevoked",
      "type": "event"
    },
    {
      "anonymous": false,
      "inputs": [
        {
          "indexed": true,
          "internalType": "address",
          "name": "AdjustedBy",
          "type": "address"
        },
        {
          "indexed": true,
          "internalType": "address",
          "name": "vendor",
          "type": "address"
        },
        {
          "indexed": false,
          "internalType": "uint256",
          "name": "amount",
          "type": "uint256"
        }
      ],
      "name": "VendorCashAdjustment",
      "type": "event"
    },
    {
      "anonymous": false,
      "inputs": [
        {
          "indexed": true,
          "internalType": "address",
          "name": "TransferredBy",
          "type": "address"
        },
        {
          "indexed": true,
          "internalType": "address",
          "name": "vendor",
          "type": "address"
        },
        {
          "indexed": false,
          "internalType": "uint256",
          "name": "amount",
          "type": "uint256"
        }
      ],
      "name": "VendorCashTransfer",
      "type": "event"
    },
    {
      "inputs": [],
      "name": "CREATE_CLAIM",
      "outputs": [
        {
          "internalType": "bytes32",
          "name": "",
          "type": "bytes32"
        }
      ],
      "stateMutability": "view",
      "type": "function"
    },
    {
      "inputs": [],
      "name": "DEFAULT_ADMIN_ROLE",
      "outputs": [
        {
          "internalType": "bytes32",
          "name": "",
          "type": "bytes32"
        }
      ],
      "stateMutability": "view",
      "type": "function"
    },
    {
      "inputs": [],
      "name": "GET_TOKENS_FROM_CLAIM",
      "outputs": [
        {
          "internalType": "bytes32",
          "name": "",
          "type": "bytes32"
        }
      ],
      "stateMutability": "view",
      "type": "function"
    },
    {
      "inputs": [],
      "name": "ISSUE_TOKEN",
      "outputs": [
        {
          "internalType": "bytes32",
          "name": "",
          "type": "bytes32"
        }
      ],
      "stateMutability": "view",
      "type": "function"
    },
    {
      "inputs": [],
      "name": "MANAGER_ROLE",
      "outputs": [
        {
          "internalType": "bytes32",
          "name": "",
          "type": "bytes32"
        }
      ],
      "stateMutability": "view",
      "type": "function"
    },
    {
      "inputs": [],
      "name": "MOBILIZER_ROLE",
      "outputs": [
        {
          "internalType": "bytes32",
          "name": "",
          "type": "bytes32"
        }
      ],
      "stateMutability": "view",
      "type": "function"
    },
    {
      "inputs": [],
      "name": "PALIKA_ROLE",
      "outputs": [
        {
          "internalType": "bytes32",
          "name": "",
          "type": "bytes32"
        }
      ],
      "stateMutability": "view",
      "type": "function"
    },
    {
      "inputs": [],
      "name": "SERVER_ROLE",
      "outputs": [
        {
          "internalType": "bytes32",
          "name": "",
          "type": "bytes32"
        }
      ],
      "stateMutability": "view",
      "type": "function"
    },
    {
      "inputs": [],
      "name": "VENDOR_ROLE",
      "outputs": [
        {
          "internalType": "bytes32",
          "name": "",
          "type": "bytes32"
        }
      ],
      "stateMutability": "view",
      "type": "function"
    },
    {
      "inputs": [],
      "name": "erc20",
      "outputs": [
        {
          "internalType": "contract RahatERC20",
          "name": "",
          "type": "address"
        }
      ],
      "stateMutability": "view",
      "type": "function"
    },
    {
      "inputs": [
        {
          "internalType": "uint256",
          "name": "",
          "type": "uint256"
        }
      ],
      "name": "erc20Balance",
      "outputs": [
        {
          "internalType": "uint256",
          "name": "",
          "type": "uint256"
        }
      ],
      "stateMutability": "view",
      "type": "function"
    },
    {
      "inputs": [
        {
          "internalType": "uint256",
          "name": "",
          "type": "uint256"
        }
      ],
      "name": "erc20Issued",
      "outputs": [
        {
          "internalType": "uint256",
          "name": "",
          "type": "uint256"
        }
      ],
      "stateMutability": "view",
      "type": "function"
    },
    {
      "inputs": [
        {
          "internalType": "address",
          "name": "",
          "type": "address"
        }
      ],
      "name": "erc20IssuedBy",
      "outputs": [
        {
          "internalType": "uint256",
          "name": "",
          "type": "uint256"
        }
      ],
      "stateMutability": "view",
      "type": "function"
    },
    {
      "inputs": [
        {
          "internalType": "bytes32",
          "name": "role",
          "type": "bytes32"
        }
      ],
      "name": "getRoleAdmin",
      "outputs": [
        {
          "internalType": "bytes32",
          "name": "",
          "type": "bytes32"
        }
      ],
      "stateMutability": "view",
      "type": "function"
    },
    {
      "inputs": [
        {
          "internalType": "bytes32",
          "name": "role",
          "type": "bytes32"
        },
        {
          "internalType": "address",
          "name": "account",
          "type": "address"
        }
      ],
      "name": "grantRole",
      "outputs": [],
      "stateMutability": "nonpayable",
      "type": "function"
    },
    {
      "inputs": [
        {
          "internalType": "bytes32",
          "name": "role",
          "type": "bytes32"
        },
        {
          "internalType": "address",
          "name": "account",
          "type": "address"
        }
      ],
      "name": "hasRole",
      "outputs": [
        {
          "internalType": "bool",
          "name": "",
          "type": "bool"
        }
      ],
      "stateMutability": "view",
      "type": "function"
    },
    {
      "inputs": [
        {
          "internalType": "uint256",
          "name": "",
          "type": "uint256"
        }
      ],
      "name": "isBanked",
      "outputs": [
        {
          "internalType": "bool",
          "name": "",
          "type": "bool"
        }
      ],
      "stateMutability": "view",
      "type": "function"
    },
    {
      "inputs": [
        {
          "internalType": "bytes[]",
          "name": "data",
          "type": "bytes[]"
        }
      ],
      "name": "multicall",
      "outputs": [
        {
          "internalType": "bytes[]",
          "name": "results",
          "type": "bytes[]"
        }
      ],
      "stateMutability": "nonpayable",
      "type": "function"
    },
    {
      "inputs": [
        {
          "internalType": "address",
          "name": "",
          "type": "address"
        }
      ],
      "name": "nonces",
      "outputs": [
        {
          "internalType": "uint256",
          "name": "",
          "type": "uint256"
        }
      ],
      "stateMutability": "view",
      "type": "function"
    },
    {
      "inputs": [
        {
          "internalType": "address",
          "name": "",
          "type": "address"
        },
        {
          "internalType": "bytes32",
          "name": "",
          "type": "bytes32"
        }
      ],
      "name": "recentERC20Claims",
      "outputs": [
        {
          "internalType": "uint256",
          "name": "amount",
          "type": "uint256"
        },
        {
          "internalType": "bytes32",
          "name": "otpHash",
          "type": "bytes32"
        },
        {
          "internalType": "bool",
          "name": "isReleased",
          "type": "bool"
        },
        {
          "internalType": "uint256",
          "name": "date",
          "type": "uint256"
        }
      ],
      "stateMutability": "view",
      "type": "function"
    },
    {
      "inputs": [
        {
          "internalType": "bytes32",
          "name": "role",
          "type": "bytes32"
        },
        {
          "internalType": "address",
          "name": "account",
          "type": "address"
        }
      ],
      "name": "renounceRole",
      "outputs": [],
      "stateMutability": "nonpayable",
      "type": "function"
    },
    {
      "inputs": [
        {
          "internalType": "bytes32",
          "name": "role",
          "type": "bytes32"
        },
        {
          "internalType": "address",
          "name": "account",
          "type": "address"
        }
      ],
      "name": "revokeRole",
      "outputs": [],
      "stateMutability": "nonpayable",
      "type": "function"
    },
    {
      "inputs": [],
      "name": "triggerResponse",
      "outputs": [
        {
          "internalType": "contract RahatTriggerResponse",
          "name": "",
          "type": "address"
        }
      ],
      "stateMutability": "view",
      "type": "function"
    },
    {
      "inputs": [
        {
          "internalType": "address",
          "name": "",
          "type": "address"
        }
      ],
      "name": "vendorCashDispatched",
      "outputs": [
        {
          "internalType": "uint256",
          "name": "",
          "type": "uint256"
        }
      ],
      "stateMutability": "view",
      "type": "function"
    },
    {
      "inputs": [
        {
          "internalType": "address",
          "name": "",
          "type": "address"
        }
      ],
      "name": "vendorCashReceived",
      "outputs": [
        {
          "internalType": "uint256",
          "name": "",
          "type": "uint256"
        }
      ],
      "stateMutability": "view",
      "type": "function"
    },
    {
      "inputs": [
        {
          "internalType": "bytes4",
          "name": "interfaceId",
          "type": "bytes4"
        }
      ],
      "name": "supportsInterface",
      "outputs": [
        {
          "internalType": "bool",
          "name": "",
          "type": "bool"
        }
      ],
      "stateMutability": "view",
      "type": "function"
    },
    {
      "inputs": [
        {
          "internalType": "address",
          "name": "_account",
          "type": "address"
        }
      ],
      "name": "addAdmin",
      "outputs": [],
      "stateMutability": "nonpayable",
      "type": "function"
    },
    {
      "inputs": [
        {
          "internalType": "address",
          "name": "_account",
          "type": "address"
        }
      ],
      "name": "isAdmin",
      "outputs": [
        {
          "internalType": "bool",
          "name": "",
          "type": "bool"
        }
      ],
      "stateMutability": "view",
      "type": "function"
    },
    {
      "inputs": [
        {
          "internalType": "address",
          "name": "_account",
          "type": "address"
        }
      ],
      "name": "addServer",
      "outputs": [],
      "stateMutability": "nonpayable",
      "type": "function"
    },
    {
      "inputs": [
        {
          "internalType": "address",
          "name": "_account",
          "type": "address"
        }
      ],
      "name": "addVendor",
      "outputs": [],
      "stateMutability": "nonpayable",
      "type": "function"
    },
    {
      "inputs": [
        {
          "internalType": "address",
          "name": "_account",
          "type": "address"
        }
      ],
      "name": "addPalika",
      "outputs": [],
      "stateMutability": "nonpayable",
      "type": "function"
    },
    {
      "inputs": [
        {
          "internalType": "address",
          "name": "_account",
          "type": "address"
        }
      ],
      "name": "isVendor",
      "outputs": [
        {
          "internalType": "bool",
          "name": "",
          "type": "bool"
        }
      ],
      "stateMutability": "view",
      "type": "function"
    },
    {
      "inputs": [
        {
          "internalType": "address",
          "name": "_account",
          "type": "address"
        },
        {
          "internalType": "string",
          "name": "_projectId",
          "type": "string"
        }
      ],
      "name": "addMobilizer",
      "outputs": [],
      "stateMutability": "nonpayable",
      "type": "function"
    },
    {
      "inputs": [
        {
          "internalType": "uint256",
          "name": "_phone",
          "type": "uint256"
        },
        {
          "internalType": "bool",
          "name": "_isBanked",
          "type": "bool"
        }
      ],
      "name": "setAsBankedBeneficiary",
      "outputs": [],
      "stateMutability": "nonpayable",
      "type": "function"
    },
    {
      "inputs": [
        {
          "internalType": "uint256",
          "name": "_phone",
          "type": "uint256"
        },
        {
          "internalType": "bytes32",
          "name": "_projectId",
          "type": "bytes32"
        }
      ],
      "name": "suspendBeneficiary",
      "outputs": [],
      "stateMutability": "nonpayable",
      "type": "function"
    },
    {
      "inputs": [
        {
          "internalType": "bytes32",
          "name": "_projectId",
          "type": "bytes32"
        },
        {
          "internalType": "uint256",
          "name": "_projectCapital",
          "type": "uint256"
        }
      ],
      "name": "updateProjectBudget",
      "outputs": [],
      "stateMutability": "nonpayable",
      "type": "function"
    },
    {
      "inputs": [
        {
          "internalType": "bytes32",
          "name": "_projectId",
          "type": "bytes32"
        }
      ],
      "name": "getProjectBalance",
      "outputs": [
        {
          "internalType": "uint256",
          "name": "_balance",
          "type": "uint256"
        }
      ],
      "stateMutability": "view",
      "type": "function"
    },
    {
      "inputs": [
        {
          "internalType": "string",
          "name": "_projectId",
          "type": "string"
        },
        {
          "internalType": "uint256",
          "name": "_phone",
          "type": "uint256"
        },
        {
          "internalType": "uint256",
          "name": "_amount",
          "type": "uint256"
        }
      ],
      "name": "issueERC20ToBeneficiary",
      "outputs": [],
      "stateMutability": "nonpayable",
      "type": "function"
    },
    {
      "inputs": [
        {
          "internalType": "uint256",
          "name": "_phone",
          "type": "uint256"
        },
        {
          "internalType": "uint256",
          "name": "_tokens",
          "type": "uint256"
        }
      ],
      "name": "createERC20Claim",
      "outputs": [],
      "stateMutability": "nonpayable",
      "type": "function"
    },
    {
      "inputs": [
        {
          "internalType": "address",
          "name": "_vendor",
          "type": "address"
        },
        {
          "internalType": "uint256",
          "name": "_phone",
          "type": "uint256"
        },
        {
          "internalType": "bytes32",
          "name": "_otpHash",
          "type": "bytes32"
        },
        {
          "internalType": "uint256",
          "name": "_timeToLive",
          "type": "uint256"
        }
      ],
      "name": "approveERC20Claim",
      "outputs": [],
      "stateMutability": "nonpayable",
      "type": "function"
    },
    {
      "inputs": [
        {
          "internalType": "uint256",
          "name": "_phone",
          "type": "uint256"
        },
        {
          "internalType": "string",
          "name": "_otp",
          "type": "string"
        }
      ],
      "name": "getERC20FromClaim",
      "outputs": [],
      "stateMutability": "nonpayable",
      "type": "function"
    },
    {
      "inputs": [
        {
          "internalType": "uint256",
          "name": "_phone",
          "type": "uint256"
        },
        {
          "internalType": "address",
          "name": "_address",
          "type": "address"
        },
        {
          "internalType": "uint256",
          "name": "_amount",
          "type": "uint256"
        }
      ],
      "name": "transferTokenToVendorByAdmin",
      "outputs": [],
      "stateMutability": "nonpayable",
      "type": "function"
    },
    {
      "inputs": [
        {
          "internalType": "address",
          "name": "_address",
          "type": "address"
        },
        {
          "internalType": "uint256",
          "name": "_amount",
          "type": "uint256"
        }
      ],
      "name": "transferCashToVendor",
      "outputs": [],
      "stateMutability": "nonpayable",
      "type": "function"
    },
    {
      "inputs": [
        {
          "internalType": "address",
          "name": "_address",
          "type": "address"
        },
        {
          "internalType": "uint256",
          "name": "_amount",
          "type": "uint256"
        }
      ],
      "name": "adjustVendorCashBalance",
      "outputs": [],
      "stateMutability": "nonpayable",
      "type": "function"
    },
    {
      "inputs": [
        {
          "internalType": "address",
          "name": "_address",
          "type": "address"
        }
      ],
      "name": "getVendorCashBalance",
      "outputs": [
        {
          "internalType": "uint256",
          "name": "",
          "type": "uint256"
        }
      ],
      "stateMutability": "view",
      "type": "function"
    },
    {
      "inputs": [
        {
          "internalType": "uint256",
          "name": "_data",
          "type": "uint256"
        }
      ],
      "name": "findHash",
      "outputs": [
        {
          "internalType": "bytes32",
          "name": "",
          "type": "bytes32"
        }
      ],
      "stateMutability": "pure",
      "type": "function"
    },
    {
      "inputs": [
        {
          "internalType": "string",
          "name": "_data",
          "type": "string"
        }
      ],
      "name": "findHash",
      "outputs": [
        {
          "internalType": "bytes32",
          "name": "",
          "type": "bytes32"
        }
      ],
      "stateMutability": "pure",
      "type": "function"
    },
    {
      "inputs": [
        {
          "internalType": "uint256[]",
          "name": "_array",
          "type": "uint256[]"
        }
      ],
      "name": "getArraySum",
      "outputs": [
        {
          "internalType": "uint256",
          "name": "sum",
          "type": "uint256"
        }
      ],
      "stateMutability": "pure",
      "type": "function"
    }
  ],
  "bytecode": "0x60806040523480156200001157600080fd5b506040516200312738038062003127833981016040819052620000349162000487565b62000041600033620000e5565b6200004e600082620000e5565b6200006a600080516020620031078339815191526000620000f5565b620000977f0aaf57387812c7f832412470a57567b5648a930069be49aa9c98d04f88520d346000620000f5565b620000b2600080516020620031078339815191523362000140565b50600280546001600160a01b039384166001600160a01b0319918216179091556003805492909316911617905562000643565b620000f182826200016f565b5050565b600082815260208190526040808220600101805490849055905190918391839186917fbd79b86ffe0ab8e8776151514217cd7cacd52c909f66475c3af44e129f0b00ff9190a4505050565b6000828152602081905260409020600101546200015e8133620001f7565b6200016a83836200016f565b505050565b6200017b828262000283565b620000f1576000828152602081815260408083206001600160a01b03851684529091529020805460ff19166001179055620001b33390565b6001600160a01b0316816001600160a01b0316837f2f8788117e7eff1d82e926ec794901d17c78024a50270940304540a733656f0d60405160405180910390a45050565b62000203828262000283565b620000f15762000229816001600160a01b03166014620002ae60201b62001b041760201c565b6200023f83602062001b04620002ae821b17811c565b6040516020016200025292919062000501565b60408051601f198184030181529082905262461bcd60e51b82526200027a916004016200057a565b60405180910390fd5b6000828152602081815260408083206001600160a01b038516845290915290205460ff165b92915050565b60606000620002bf836002620005c5565b620002cc906002620005e7565b6001600160401b03811115620002e657620002e6620005fd565b6040519080825280601f01601f19166020018201604052801562000311576020820181803683370190505b509050600360fc1b816000815181106200032f576200032f62000613565b60200101906001600160f81b031916908160001a905350600f60fb1b8160018151811062000361576200036162000613565b60200101906001600160f81b031916908160001a905350600062000387846002620005c5565b62000394906001620005e7565b90505b600181111562000416576f181899199a1a9b1b9c1cb0b131b232b360811b85600f1660108110620003cc57620003cc62000613565b1a60f81b828281518110620003e557620003e562000613565b60200101906001600160f81b031916908160001a90535060049490941c936200040e8162000629565b905062000397565b508315620004675760405162461bcd60e51b815260206004820181905260248201527f537472696e67733a20686578206c656e67746820696e73756666696369656e7460448201526064016200027a565b9392505050565b6001600160a01b03811681146200048457600080fd5b50565b6000806000606084860312156200049d57600080fd5b8351620004aa816200046e565b6020850151909350620004bd816200046e565b6040850151909250620004d0816200046e565b809150509250925092565b60005b83811015620004f8578181015183820152602001620004de565b50506000910152565b7f416363657373436f6e74726f6c3a206163636f756e74200000000000000000008152600083516200053b816017850160208801620004db565b7001034b99036b4b9b9b4b733903937b6329607d1b60179184019182015283516200056e816028840160208801620004db565b01602801949350505050565b60208152600082518060208401526200059b816040850160208701620004db565b601f01601f19169190910160400192915050565b634e487b7160e01b600052601160045260246000fd5b6000816000190483118215151615620005e257620005e2620005af565b500290565b80820180821115620002a857620002a8620005af565b634e487b7160e01b600052604160045260246000fd5b634e487b7160e01b600052603260045260246000fd5b6000816200063b576200063b620005af565b506000190190565b612ab480620006536000396000f3fe608060405234801561001057600080fd5b50600436106102605760003560e01c80636017bc99116101475780639ea69350116100be5780639ea69350146105f3578063a217fddf14610606578063a8c09ab51461060e578063ac9650d81461062e578063c0d955d61461064e578063cf784eda14610661578063d1e6716714610681578063d547741f146106ed578063d6df517a14610700578063eaad46f514610713578063ec87621c14610726578063ee54d54f1461074d57600080fd5b80636017bc99146104bb57806364a2f7d9146104ce57806370480275146104f157806370c7510714610504578063785e9e86146105175780637ecebe001461052a578063838c0f291461054a578063882575671461056a5780638bbab5c71461057d57806391d14854146105a4578063926a694d146105b757806394343cd2146105cc57600080fd5b80632f2ff15d116101db5780632f2ff15d146103ae5780633098b74b146103c1578063351c3d0b146103d457806336568abe146103f457806337d027b8146104075780633fc168101461043257806345e0f75314610445578063494101ff146104585780634c91b44e1461046b578063536e55d214610480578063546fcaa4146104955780635cbd99d4146104a857600080fd5b806301ffc9a71461026557806302633a781461028d578063055ee070146102a257806318cf2834146102d0578063237c9db3146102e55780632384e10514610305578063248a9ca31461032c57806324d7806c1461034f57806327fa7a201461036257806329312a9c146103755780632aef0c30146103885780632d41d5591461039b575b600080fd5b6102786102733660046121ab565b610760565b60405190151581526020015b60405180910390f35b6102a061029b3660046121f1565b610771565b005b6102c26102b036600461221b565b60046020526000908152604090205481565b604051908152602001610284565b6102c2600080516020612a1883398151915281565b6102c26102f3366004612234565b600d6020526000908152604090205481565b6102c27fcfa8166f1bb1b8818c3767a9ffd776afbbe3409a468070bb860831e01b56549981565b6102c261033a36600461221b565b60009081526020819052604090206001015490565b61027861035d366004612234565b610838565b6102a0610370366004612304565b610844565b6102a06103833660046121f1565b610b11565b6102a061039636600461234a565b610c0f565b6102a06103a936600461236c565b610ce3565b6102a06103bc3660046123a5565b610fca565b6102c26103cf3660046123d1565b610ff5565b6102c26103e236600461221b565b60056020526000908152604090205481565b6102a06104023660046123a5565b611041565b60035461041a906001600160a01b031681565b6040516001600160a01b039091168152602001610284565b6102a0610440366004612484565b6110bf565b6102a0610453366004612234565b611106565b6102c261046636600461221b565b611148565b6102c26000805160206129f883398151915281565b6102c2600080516020612a3883398151915281565b6102a06104a33660046124b4565b611180565b6102a06104b6366004612234565b6112fb565b6102c26104c9366004612234565b61133a565b6102786104dc36600461221b565b60066020526000908152604090205460ff1681565b6102a06104ff366004612234565b611368565b6102c26105123660046124e9565b61139a565b60025461041a906001600160a01b031681565b6102c2610538366004612234565b60016020526000908152604090205481565b6102c2610558366004612234565b600f6020526000908152604090205481565b6102a061057836600461234a565b6113ad565b6102c27f043620c1e1c33ecf60d9dadc62571b96554338b68ef3636e715e52a286bea92e81565b6102786105b23660046123a5565b6113f7565b6102c26000805160206129d883398151915281565b6102c27f8ff5d84bbad5f252f2ee1916646e221e55645205d2f803ebe6a7d6ba8fa4185d81565b6102a061060136600461234a565b611420565b6102c2600081565b6102c261061c366004612234565b600e6020526000908152604090205481565b61064161063c36600461251d565b6116e1565b60405161028491906125e1565b6102a061065c366004612643565b6117d5565b6102c261066f36600461221b565b6000908152600a602052604090205490565b6106c761068f3660046121f1565b601060209081526000928352604080842090915290825290208054600182015460028301546003909301549192909160ff9091169084565b604080519485526020850193909352901515918301919091526060820152608001610284565b6102a06106fb3660046123a5565b611a1b565b6102a061070e366004612234565b611a41565b6102a0610721366004612690565b611a80565b6102c27faf290d8680820aad922855f39b306097b20e28774d6c1ad35a20325630c3a02c81565b61027861075b366004612234565b611aea565b600061076b82611ca6565b92915050565b61077c6000336113f7565b6107a15760405162461bcd60e51b8152600401610798906126c7565b60405180910390fd5b6107aa82611aea565b6107c65760405162461bcd60e51b8152600401610798906126fe565b6001600160a01b0382166000908152600e6020526040812080548392906107ee908490612756565b90915550506040518181526001600160a01b0383169033907f41d66f5b38c94b4ee9e0d1fd4b22216bd03e94c1ca5f11741b6aa9ee3f9f8b12906020015b60405180910390a35050565b600061076b81836113f7565b81600061085082611148565b6000838152600560205260408120549192500361087f5760405162461bcd60e51b815260040161079890612769565b6108976000805160206129d8833981519152336113f7565b6108b35760405162461bcd60e51b8152600401610798906127b6565b60006108be85611148565b336000908152601060209081526040808320848452909152902060028101549192509060ff1661093c5760405162461bcd60e51b815260206004820152602360248201527f52414841543a20436c61696d20686173206e6f74206265656e2072656c65617360448201526232b21760e91b6064820152608401610798565b428160030154101561099a5760405162461bcd60e51b815260206004820152602160248201527f52414841543a20436c61696d2068617320616c726561647920657870697265646044820152601760f91b6064820152608401610798565b60006109a58661139a565b3360009081526010602090815260408083208784529091529020600101549091508114610a105760405162461bcd60e51b81526020600482015260196024820152782920a420aa1d1027aa28103234b2103737ba1036b0ba31b41760391b6044820152606401610798565b610a1e878360000154611cdb565b81546002808401805460ff19169055600080855560038501555460405163a9059cbb60e01b81526001600160a01b039091169063a9059cbb90610a679033908590600401612800565b6020604051808303816000875af1158015610a86573d6000803e3d6000fd5b505050506040513d601f19601f82011682018060405250810190610aaa9190612819565b50336000908152600f602052604081208054839290610aca908490612836565b9091555050604051818152889033907fe4de809bf00bba73c562150b76ba81e5af05183458342bfdb09a7c9e303813e5906020015b60405180910390a35050505050505050565b610b29600080516020612a38833981519152336113f7565b610b805760405162461bcd60e51b815260206004820152602260248201527f52414841543a2053656e646572206d7573742062652070616c696b6120757365604482015261391760f11b6064820152608401610798565b610b8982611aea565b610ba55760405162461bcd60e51b8152600401610798906126fe565b6001600160a01b0382166000908152600e602052604081208054839290610bcd908490612836565b90915550506040518181526001600160a01b0383169033907f9fbc3bf6429b64ebe6191e57114a0b60139c4e352c5c8812d15216d87409106e9060200161082c565b610c1a6000336113f7565b610c365760405162461bcd60e51b8152600401610798906126c7565b816000610c4282611148565b60008381526005602052604081205491925003610c715760405162461bcd60e51b815260040161079890612769565b600084815260056020908152604080832054868452600a9092528220805491928392610c9e908490612836565b909155505060008581526005602090815260408083208390556004909152902054610cca908290612756565b6000958652600460205260409095209490945550505050565b826000610cef82611148565b60008381526005602052604081205491925003610d1e5760405162461bcd60e51b815260040161079890612769565b610d36600080516020612a18833981519152336113f7565b610d955760405162461bcd60e51b815260206004820152602a60248201527f52414841543a2053656e646572206d75737420626520616e20617574686f72696044820152693d32b21039b2b93b32b960b11b6064820152608401610798565b6000610da086611148565b6001600160a01b038816600090815260106020908152604080832084845290915281206003810154929350919003610e285760405162461bcd60e51b815260206004820152602560248201527f52414841543a20436c61696d20686173206e6f74206265656e2063726561746560448201526419081e595d60da1b6064820152608401610798565b62015180851115610e935760405162461bcd60e51b815260206004820152602f60248201527f52414841543a54696d6520546f204c6976652073686f756c64206265206c657360448201526e73207468616e20323420686f75727360881b6064820152608401610798565b6003810154610ea59062015180612836565b421115610f005760405162461bcd60e51b815260206004820152602360248201527f52414841543a20436c61696d206973206f6c646572207468616e20323420686f60448201526275727360e81b6064820152608401610798565b600281015460ff1615610f655760405162461bcd60e51b815260206004820152602760248201527f52414841543a20436c61696d2068617320616c7265616479206265656e2072656044820152663632b0b9b2b21760c91b6064820152608401610798565b600180820187905560028201805460ff19169091179055610f868542612836565b6003820155805460405190815287906001600160a01b038a16907f05ca75b0d90f1dd046ad3b8c1ec4a461042c3d33518b9b67d9feafc7d8d3c6cf90602001610aff565b600082815260208190526040902060010154610fe68133611d48565b610ff08383611dac565b505050565b6000805b825181101561103b5782818151811061101457611014612849565b6020026020010151826110279190612836565b9150806110338161285f565b915050610ff9565b50919050565b6001600160a01b03811633146110b15760405162461bcd60e51b815260206004820152602f60248201527f416363657373436f6e74726f6c3a2063616e206f6e6c792072656e6f756e636560448201526e103937b632b9903337b91039b2b63360891b6064820152608401610798565b6110bb8282611e30565b5050565b6110ca6000336113f7565b6110e65760405162461bcd60e51b8152600401610798906126c7565b600091825260066020526040909120805460ff1916911515919091179055565b6111116000336113f7565b61112d5760405162461bcd60e51b8152600401610798906126c7565b6111456000805160206129d883398151915282610fca565b50565b600061115382611e95565b6040516020016111639190612878565b604051602081830303815290604052805190602001209050919050565b82600061118c82611148565b600083815260056020526040812054919250036111bb5760405162461bcd60e51b815260040161079890612769565b6111c66000336113f7565b6111e25760405162461bcd60e51b8152600401610798906126c7565b6111eb84611aea565b6112075760405162461bcd60e51b8152600401610798906126fe565b6112118584611cdb565b60025460405163a9059cbb60e01b81526001600160a01b039091169063a9059cbb906112439087908790600401612800565b6020604051808303816000875af1158015611262573d6000803e3d6000fd5b505050506040513d601f19601f820116820180604052508101906112869190612819565b506001600160a01b0384166000908152600f6020526040812080548592906112af908490612836565b909155505060405183815285906001600160a01b038616907fe4de809bf00bba73c562150b76ba81e5af05183458342bfdb09a7c9e303813e59060200160405180910390a35050505050565b6113066000336113f7565b6113225760405162461bcd60e51b8152600401610798906126c7565b611145600080516020612a1883398151915282610fca565b6001600160a01b0381166000908152600f6020908152604080832054600e90925282205461076b9190612756565b6113736000336113f7565b61138f5760405162461bcd60e51b8152600401610798906126c7565b611145600082610fca565b6000816040516020016111639190612878565b6000828152600a6020526040812080548392906113cb908490612836565b9091555050600082815260096020526040812080548392906113ee908490612836565b90915550505050565b6000918252602082815260408084206001600160a01b0393909316845291905290205460ff1690565b81600061142c82611148565b6000838152600560205260408120549192500361145b5760405162461bcd60e51b815260040161079890612769565b6114736000805160206129d8833981519152336113f7565b61148f5760405162461bcd60e51b8152600401610798906127b6565b600360009054906101000a90046001600160a01b03166001600160a01b031663b8f7a6656040518163ffffffff1660e01b8152600401602060405180830381865afa1580156114e2573d6000803e3d6000fd5b505050506040513d601f19601f820116820180604052508101906115069190612819565b6115785760405162461bcd60e51b815260206004820152603f60248201527f5468697320726573706f6e736520686173206e6f74206265656e20616374697660448201527f61746564207965742c20706c6561736520636f6e746163742061646d696e2e006064820152608401610798565b60008481526006602052604090205460ff16156115e35760405162461bcd60e51b8152602060048201526024808201527f43616e6e6f7420636c61696d2066726f6d2062616e6b65642062656e656669636044820152636961727960e01b6064820152608401610798565b60006115ee85611148565b6000868152600560205260409020549091508411156116755760405162461bcd60e51b815260206004820152603c60248201527f52414841543a20416d6f756e742072657175657374656420697320677265617460448201527f6572207468616e2062656e65666963696172792062616c616e63652e000000006064820152608401610798565b33600090815260106020908152604080832084845282529182902060028101805460ff191690558681554260038201559151868152879132917f79ef0b2282f5e45718748b37d5a89727c1544ad2f78b126efa97c32ac1f1d232910160405180910390a3505050505050565b6060816001600160401b038111156116fb576116fb61224f565b60405190808252806020026020018201604052801561172e57816020015b60608152602001906001900390816117195790505b50905060005b828110156117ce5761179e3085858481811061175257611752612849565b90506020028101906117649190612894565b8080601f016020809104026020016040519081016040528093929190818152602001838380828437600092019190915250611f9d92505050565b8282815181106117b0576117b0612849565b602002602001018190525080806117c69061285f565b915050611734565b5092915050565b6117e06000336113f7565b806117fe57506117fe6000805160206129f8833981519152336113f7565b6118695760405162461bcd60e51b815260206004820152603660248201527f52414841543a2053656e646572204d757374206265206120726567697374657260448201527532b21020b236b4b71027b91026b7b134b634bd32b91760511b6064820152608401610798565b60006118748461139a565b905061188e6000805160206129f8833981519152336113f7565b1561190b576000818152600b602052604090206118ab9033611fc2565b61190b5760405162461bcd60e51b815260206004820152602b60248201527f6d6f62696c697a6572206973206e6f74206f6e626f617264656420746f20676960448201526a1d995b881c1c9bda9958dd60aa1b6064820152608401610798565b336000908152600d60205260408120805484929061192a908490612836565b90915550506000818152600a60205260409020548211156119ac5760405162461bcd60e51b815260206004820152603660248201527f52414841543a20416d6f756e742069732067726561746572207468616e2072656044820152751b585a5b9a5b99c8141c9bda9958dd08109d5919d95d60521b6064820152608401610798565b6000818152600a6020526040812080548492906119ca908490612756565b909155506119da90508383611fe4565b82817f707197b34e0edb88707154f8a8ea9f3c8d891eb60a28dac25cc79bf23c3aa5c184604051611a0d91815260200190565b60405180910390a350505050565b600082815260208190526040902060010154611a378133611d48565b610ff08383611e30565b611a4c6000336113f7565b611a685760405162461bcd60e51b8152600401610798906126c7565b611145600080516020612a3883398151915282610fca565b611a8b6000336113f7565b611aa75760405162461bcd60e51b8152600401610798906126c7565b6000611ab28261139a565b9050611acc6000805160206129f883398151915284610fca565b6000818152600b60205260409020611ae4908461203a565b50505050565b600061076b6000805160206129d8833981519152836113f7565b60606000611b138360026128e1565b611b1e906002612836565b6001600160401b03811115611b3557611b3561224f565b6040519080825280601f01601f191660200182016040528015611b5f576020820181803683370190505b509050600360fc1b81600081518110611b7a57611b7a612849565b60200101906001600160f81b031916908160001a905350600f60fb1b81600181518110611ba957611ba9612849565b60200101906001600160f81b031916908160001a9053506000611bcd8460026128e1565b611bd8906001612836565b90505b6001811115611c50576f181899199a1a9b1b9c1cb0b131b232b360811b85600f1660108110611c0c57611c0c612849565b1a60f81b828281518110611c2257611c22612849565b60200101906001600160f81b031916908160001a90535060049490941c93611c4981612900565b9050611bdb565b508315611c9f5760405162461bcd60e51b815260206004820181905260248201527f537472696e67733a20686578206c656e67746820696e73756666696369656e746044820152606401610798565b9392505050565b60006001600160e01b03198216637965db0b60e01b148061076b57506301ffc9a760e01b6001600160e01b031983161461076b565b816000611ce782611148565b60008381526005602052604081205491925003611d165760405162461bcd60e51b815260040161079890612769565b600084815260056020526040902054611d30908490612756565b60009485526005602052604090942093909355505050565b611d5282826113f7565b6110bb57611d6a816001600160a01b03166014611b04565b611d75836020611b04565b604051602001611d86929190612917565b60408051601f198184030181529082905262461bcd60e51b825261079891600401612986565b611db682826113f7565b6110bb576000828152602081815260408083206001600160a01b03851684529091529020805460ff19166001179055611dec3390565b6001600160a01b0316816001600160a01b0316837f2f8788117e7eff1d82e926ec794901d17c78024a50270940304540a733656f0d60405160405180910390a45050565b611e3a82826113f7565b156110bb576000828152602081815260408083206001600160a01b0385168085529252808320805460ff1916905551339285917ff6391f5c32d9c69d2a47ea670b442974b53935d1edc7fd64eb21e047a839171b9190a45050565b606081600003611ebc5750506040805180820190915260018152600360fc1b602082015290565b8160005b8115611ee65780611ed08161285f565b9150611edf9050600a836129af565b9150611ec0565b6000816001600160401b03811115611f0057611f0061224f565b6040519080825280601f01601f191660200182016040528015611f2a576020820181803683370190505b5090505b8415611f9557611f3f600183612756565b9150611f4c600a866129c3565b611f57906030612836565b60f81b818381518110611f6c57611f6c612849565b60200101906001600160f81b031916908160001a905350611f8e600a866129af565b9450611f2e565b949350505050565b6060611c9f8383604051806060016040528060278152602001612a586027913961204f565b6001600160a01b03811660009081526001830160205260408120541515611c9f565b600082815260056020526040902054611ffe908290612836565b600083815260056020908152604080832093909355600490522054612024908290612836565b6000928352600460205260409092209190915550565b6000611c9f836001600160a01b038416612123565b6060833b6120ae5760405162461bcd60e51b815260206004820152602660248201527f416464726573733a2064656c65676174652063616c6c20746f206e6f6e2d636f6044820152651b9d1c9858dd60d21b6064820152608401610798565b600080856001600160a01b0316856040516120c99190612878565b600060405180830381855af49150503d8060008114612104576040519150601f19603f3d011682016040523d82523d6000602084013e612109565b606091505b5091509150612119828286612172565b9695505050505050565b600081815260018301602052604081205461216a5750815460018181018455600084815260208082209093018490558454848252828601909352604090209190915561076b565b50600061076b565b60608315612181575081611c9f565b8251156121915782518084602001fd5b8160405162461bcd60e51b81526004016107989190612986565b6000602082840312156121bd57600080fd5b81356001600160e01b031981168114611c9f57600080fd5b80356001600160a01b03811681146121ec57600080fd5b919050565b6000806040838503121561220457600080fd5b61220d836121d5565b946020939093013593505050565b60006020828403121561222d57600080fd5b5035919050565b60006020828403121561224657600080fd5b611c9f826121d5565b634e487b7160e01b600052604160045260246000fd5b604051601f8201601f191681016001600160401b038111828210171561228d5761228d61224f565b604052919050565b600082601f8301126122a657600080fd5b81356001600160401b038111156122bf576122bf61224f565b6122d2601f8201601f1916602001612265565b8181528460208386010111156122e757600080fd5b816020850160208301376000918101602001919091529392505050565b6000806040838503121561231757600080fd5b8235915060208301356001600160401b0381111561233457600080fd5b61234085828601612295565b9150509250929050565b6000806040838503121561235d57600080fd5b50508035926020909101359150565b6000806000806080858703121561238257600080fd5b61238b856121d5565b966020860135965060408601359560600135945092505050565b600080604083850312156123b857600080fd5b823591506123c8602084016121d5565b90509250929050565b600060208083850312156123e457600080fd5b82356001600160401b03808211156123fb57600080fd5b818501915085601f83011261240f57600080fd5b8135818111156124215761242161224f565b8060051b9150612432848301612265565b818152918301840191848101908884111561244c57600080fd5b938501935b8385101561246a57843582529385019390850190612451565b98975050505050505050565b801515811461114557600080fd5b6000806040838503121561249757600080fd5b8235915060208301356124a981612476565b809150509250929050565b6000806000606084860312156124c957600080fd5b833592506124d9602085016121d5565b9150604084013590509250925092565b6000602082840312156124fb57600080fd5b81356001600160401b0381111561251157600080fd5b611f9584828501612295565b6000806020838503121561253057600080fd5b82356001600160401b038082111561254757600080fd5b818501915085601f83011261255b57600080fd5b81358181111561256a57600080fd5b8660208260051b850101111561257f57600080fd5b60209290920196919550909350505050565b60005b838110156125ac578181015183820152602001612594565b50506000910152565b600081518084526125cd816020860160208601612591565b601f01601f19169290920160200192915050565b6000602080830181845280855180835260408601915060408160051b870101925083870160005b8281101561263657603f198886030184526126248583516125b5565b94509285019290850190600101612608565b5092979650505050505050565b60008060006060848603121561265857600080fd5b83356001600160401b0381111561266e57600080fd5b61267a86828701612295565b9660208601359650604090950135949350505050565b600080604083850312156126a357600080fd5b6126ac836121d5565b915060208301356001600160401b0381111561233457600080fd5b6020808252601f908201527f52414841543a2053656e646572206d75737420626520616e2061646d696e2e00604082015260600190565b60208082526022908201527f5472616e7366657220746f206d7573742062652076656e646f72206164647265604082015261737360f01b606082015260800190565b634e487b7160e01b600052601160045260246000fd5b8181038181111561076b5761076b612740565b6020808252602d908201527f52414841543a204e6f20616e7920746f6b656e2077617320697373756564207460408201526c37903a3434b990373ab6b132b960991b606082015260800190565b6020808252602a908201527f52414841543a2053656e646572204d757374206265206120726567697374657260408201526932b2103b32b73237b91760b11b606082015260800190565b6001600160a01b03929092168252602082015260400190565b60006020828403121561282b57600080fd5b8151611c9f81612476565b8082018082111561076b5761076b612740565b634e487b7160e01b600052603260045260246000fd5b60006001820161287157612871612740565b5060010190565b6000825161288a818460208701612591565b9190910192915050565b6000808335601e198436030181126128ab57600080fd5b8301803591506001600160401b038211156128c557600080fd5b6020019150368190038213156128da57600080fd5b9250929050565b60008160001904831182151516156128fb576128fb612740565b500290565b60008161290f5761290f612740565b506000190190565b76020b1b1b2b9b9a1b7b73a3937b61d1030b1b1b7bab73a1604d1b815260008351612949816017850160208801612591565b7001034b99036b4b9b9b4b733903937b6329607d1b601791840191820152835161297a816028840160208801612591565b01602801949350505050565b602081526000611c9f60208301846125b5565b634e487b7160e01b600052601260045260246000fd5b6000826129be576129be612999565b500490565b6000826129d2576129d2612999565b50069056fe0aaf57387812c7f832412470a57567b5648a930069be49aa9c98d04f88520d34be9e90431f28bd12a87a51b26b014cab620a8a4819bf73d87369ccbe6800a76ccaa7f6290f33308266ee2988386694ac9bc3612b5df272e3502129925a64f997167873ad1bbe6d89f6359358dd1b7893917e460f5022775cfe9f6ef1727ebd95416464726573733a206c6f772d6c6576656c2064656c65676174652063616c6c206661696c6564a2646970667358221220d0b3735690b139d27c5570188694af2ee32754ae748852447b3715eb201f1a9964736f6c63430008100033caa7f6290f33308266ee2988386694ac9bc3612b5df272e3502129925a64f997",
  "immutableReferences": {},
  "source": "//SPDX-License-Identifier: LGPL-3.0\r\n//TODO add balance of beneficiary per project\r\n//TODO suspend mobilizer and vendor\r\n//TODO test tokenissue by mobilizer\r\n//TODO test otp set by server account and otp submission by vendor account\r\n//TODO revole roles\r\n\r\npragma solidity ^0.8.16;\r\nimport \"./RahatERC20.sol\";\r\nimport \"./RahatTriggerResponse.sol\";\r\nimport \"@openzeppelin/contracts/utils/structs/EnumerableSet.sol\";\r\nimport \"@openzeppelin/contracts/utils/cryptography/ECDSA.sol\";\r\nimport \"@openzeppelin/contracts/utils/Multicall.sol\";\r\n\r\ncontract Rahat is AccessControl, Multicall {\r\n  using Strings for uint256;\r\n  using EnumerableSet for EnumerableSet.Bytes32Set;\r\n  using EnumerableSet for EnumerableSet.AddressSet;\r\n  using EnumerableSet for EnumerableSet.UintSet;\r\n  using ECDSA for bytes32;\r\n\r\n  //***** Events *********//\r\n  event ClaimedERC20(\r\n    address indexed vendor,\r\n    uint256 indexed beneficiary,\r\n    uint256 amount\r\n  );\r\n  event ClaimApproved(\r\n    address indexed vendor,\r\n    uint256 indexed phone,\r\n    uint256 amount\r\n  );\r\n  event IssuedERC20(\r\n    bytes32 indexed projectId,\r\n    uint256 indexed phone,\r\n    uint256 amount\r\n  );\r\n  event ClaimAcquiredERC20(\r\n    address indexed vendor,\r\n    uint256 indexed beneficiary,\r\n    uint256 amount\r\n  );\r\n  event VendorCashTransfer(\r\n    address indexed TransferredBy,\r\n    address indexed vendor,\r\n    uint256 amount\r\n  );\r\n  event VendorCashAdjustment(\r\n    address indexed AdjustedBy,\r\n    address indexed vendor,\r\n    uint256 amount\r\n  );\r\n  event InvalidSignature(\r\n    bytes signature,\r\n    bytes32 digest,\r\n    address expectedSigner,\r\n    address recoveredSigner\r\n  );\r\n\r\n  //event BalanceAdjusted(uint256 indexed phone, uint256 amount, string reason);\r\n\r\n  //***** Constant Variables (Roles) *********//\r\n  bytes32 public constant SERVER_ROLE = keccak256(\"SERVER\");\r\n  bytes32 public constant VENDOR_ROLE = keccak256(\"VENDOR\");\r\n  bytes32 public constant MANAGER_ROLE = keccak256(\"MANAGER\");\r\n  bytes32 public constant PALIKA_ROLE = keccak256(\"PALIKA\");\r\n  bytes32 public constant MOBILIZER_ROLE = keccak256(\"MOBILIZER\");\r\n  bytes32 public constant ISSUE_TOKEN = keccak256(\"issueToken\");\r\n  bytes32 public constant CREATE_CLAIM = keccak256(\"createClaim\");\r\n  bytes32 public constant GET_TOKENS_FROM_CLAIM = keccak256(\r\n    \"getTokensFromClaim\"\r\n  );\r\n\r\n  mapping(address => uint256) public nonces; //delegated users nonces\r\n\r\n  //***** Variables (State) *********//\r\n  //AidToken public tokenContract;\r\n  RahatERC20 public erc20;\r\n  RahatTriggerResponse public triggerResponse;\r\n\r\n  ///@notice track total issued tokens of each benefiicary phone\r\n  mapping(uint256 => uint256) public erc20Issued; //phone=>balance\r\n\r\n  /// @notice track balances of each beneficiary phone\r\n  mapping(uint256 => uint256) public erc20Balance; //phone=>balance\r\n\r\n  mapping(uint256 => bool) public isBanked;\r\n\r\n  /// @notice track projectBalances\r\n  //bytes32[] public projectId;\r\n  EnumerableSet.Bytes32Set private projectId;\r\n  mapping(bytes32 => uint256) totalProjectErc20Issued;\r\n  mapping(bytes32 => uint256) remainingProjectErc20Balances;\r\n  mapping(bytes32 => EnumerableSet.AddressSet) projectMobilizers;\r\n  mapping(bytes32 => EnumerableSet.AddressSet) projectVendors;\r\n\r\n  mapping(address => uint256) public erc20IssuedBy;\r\n\r\n  //For Cash-camp\r\n  mapping(address => uint256) public vendorCashReceived;\r\n  mapping(address => uint256) public vendorCashDispatched;\r\n\r\n  struct claim {\r\n    uint256 amount;\r\n    bytes32 otpHash;\r\n    bool isReleased;\r\n    uint256 date;\r\n  }\r\n  /// @dev vendorAddress => phone => claim\r\n  mapping(address => mapping(bytes32 => claim)) public recentERC20Claims;\r\n\r\n  //***** Constructor *********//\r\n  constructor(\r\n    RahatERC20 _erc20,\r\n    RahatTriggerResponse _triggerResponse,\r\n    address _admin\r\n  ) {\r\n    _setupRole(DEFAULT_ADMIN_ROLE, msg.sender);\r\n    _setupRole(DEFAULT_ADMIN_ROLE, _admin);\r\n    _setRoleAdmin(SERVER_ROLE, DEFAULT_ADMIN_ROLE);\r\n    _setRoleAdmin(VENDOR_ROLE, DEFAULT_ADMIN_ROLE);\r\n    grantRole(SERVER_ROLE, msg.sender);\r\n    erc20 = _erc20;\r\n    triggerResponse = _triggerResponse;\r\n  }\r\n\r\n  function supportsInterface(bytes4 interfaceId)\r\n    public\r\n    view\r\n    virtual\r\n    override(AccessControl)\r\n    returns (bool)\r\n  {\r\n    return super.supportsInterface(interfaceId);\r\n  }\r\n\r\n  //***** Modifiers *********//\r\n  modifier OnlyServer() {\r\n    require(\r\n      hasRole(SERVER_ROLE, msg.sender),\r\n      \"RAHAT: Sender must be an authorized server\"\r\n    );\r\n    _;\r\n  }\r\n  modifier OnlyAdmin {\r\n    require(\r\n      hasRole(DEFAULT_ADMIN_ROLE, msg.sender),\r\n      \"RAHAT: Sender must be an admin.\"\r\n    );\r\n    _;\r\n  }\r\n    modifier OnlyPalika {\r\n    require(\r\n      hasRole(PALIKA_ROLE, msg.sender),\r\n      \"RAHAT: Sender must be palika user.\"\r\n    );\r\n    _;\r\n  }\r\n  modifier IsBeneficiary(uint256 _phone) {\r\n    bytes32 _benId = findHash(_phone);\r\n    require(\r\n      erc20Balance[_phone] != 0,\r\n      \"RAHAT: No any token was issued to this number\"\r\n    );\r\n    _;\r\n  }\r\n  modifier OnlyVendor {\r\n    require(\r\n      hasRole(VENDOR_ROLE, msg.sender),\r\n      \"RAHAT: Sender Must be a registered vendor.\"\r\n    );\r\n    _;\r\n  }\r\n  modifier OnlyAdminOrMobilizer {\r\n    require(\r\n      (hasRole(DEFAULT_ADMIN_ROLE, msg.sender) ||\r\n        hasRole(MOBILIZER_ROLE, msg.sender)),\r\n      \"RAHAT: Sender Must be a registered Admin Or Mobilizer.\"\r\n    );\r\n    _;\r\n  }\r\n\r\n  //***** Methods *********//\r\n  //Access Control Management\r\n  /// @notice add admin of the this contract\r\n  /// @param _account address of the new admin\r\n  function addAdmin(address _account) external OnlyAdmin {\r\n    grantRole(DEFAULT_ADMIN_ROLE, _account);\r\n  }\r\n\r\n  function isAdmin(address _account) external view returns(bool){\r\n    return hasRole(DEFAULT_ADMIN_ROLE, _account);\r\n  }\r\n\r\n  /// @notice add server account for this contract\r\n  /// @param _account address of the new server account\r\n  function addServer(address _account) external OnlyAdmin {\r\n    grantRole(SERVER_ROLE, _account);\r\n  }\r\n\r\n  /// @notice add vendors\r\n  /// @param _account address of the new vendor\r\n  function addVendor(address _account) external OnlyAdmin {\r\n    grantRole(VENDOR_ROLE, _account);\r\n  }\r\n\r\n  /// @notice add Palika users\r\n  /// @param _account address of the new palika\r\n  function addPalika(address _account) external OnlyAdmin {\r\n    grantRole(PALIKA_ROLE, _account);\r\n  }\r\n\r\n  function isVendor(address _account) public view returns(bool){\r\n    return hasRole(VENDOR_ROLE, _account);\r\n  }\r\n\r\n  /// @notice add vendors\r\n  /// @param _account address of the new vendor\r\n  /// @param _projectId projectId\r\n  function addMobilizer(address _account, string memory _projectId)\r\n    external\r\n    OnlyAdmin\r\n  {\r\n    bytes32 _id = findHash(_projectId);\r\n    grantRole(MOBILIZER_ROLE, _account);\r\n    projectMobilizers[_id].add(_account);\r\n  }\r\n\r\n  /// @notice set IsBanked Beneficiary\r\n  /// @param _phone beneficiary phone number\r\n  /// @param _isBanked true/false\r\n  function setAsBankedBeneficiary(uint256 _phone, bool _isBanked)\r\n    external\r\n    OnlyAdmin\r\n  {\r\n    isBanked[_phone] = _isBanked;\r\n  }\r\n\r\n  // function suspendMobilizer() public {}\r\n\r\n  // function suspendVendor() public {}\r\n\r\n  //Beneficiary Management\r\n  /// @notice suspend the benficiary by deducting all the balance beneficiary owns\r\n  /// @param _phone phone number of the Beneficiary\r\n  /// @param _projectId projectId beneficiary is involved in\r\n  function suspendBeneficiary(uint256 _phone, bytes32 _projectId)\r\n    public\r\n    OnlyAdmin\r\n    IsBeneficiary(_phone)\r\n  {\r\n    //  bytes32 _benId = findHash(_phone);\r\n\r\n    uint256 _balance = erc20Balance[_phone];\r\n    remainingProjectErc20Balances[_projectId] += _balance;\r\n    erc20Balance[_phone] = 0;\r\n    erc20Issued[_phone] = erc20Issued[_phone] - _balance;\r\n  }\r\n\r\n  /// @notice adds the token from beneficiary\r\n  function adjustTokenAdd(uint256 _phone, uint256 _amount) private {\r\n    // bytes32 _benId = findHash(_phone);\r\n    erc20Balance[_phone] = erc20Balance[_phone] + _amount;\r\n    erc20Issued[_phone] = erc20Issued[_phone] + _amount;\r\n    //emit BalanceAdjusted(_phone, _amount, _reason);\r\n  }\r\n\r\n  /// @notice deducts the token from beneficiary\r\n  function adjustTokenDeduct(uint256 _phone, uint256 _amount)\r\n    private\r\n    IsBeneficiary(_phone)\r\n  {\r\n    //bytes32 _benId = findHash(_phone);\r\n    erc20Balance[_phone] = erc20Balance[_phone] - _amount;\r\n    //emit BalanceAdjusted(_phone, _amount, _reason);\r\n  }\r\n\r\n  /// @notice update a project balance.\r\n  /// @notice called by rahatdmin contract\r\n  /// @param _projectId Id of the project to assign budget\r\n  /// @param _projectCapital amount of budget to be added to project\r\n  function updateProjectBudget(bytes32 _projectId, uint256 _projectCapital)\r\n    external\r\n  {\r\n    remainingProjectErc20Balances[_projectId] += _projectCapital;\r\n    totalProjectErc20Issued[_projectId] += _projectCapital;\r\n  }\r\n\r\n  /// @notice get the current balance of project\r\n  function getProjectBalance(bytes32 _projectId)\r\n    external\r\n    view\r\n    returns (uint256 _balance)\r\n  {\r\n    return remainingProjectErc20Balances[_projectId];\r\n  }\r\n\r\n  function verifyVendor(bytes32 _hash, bytes memory _signature)\r\n    internal\r\n    view\r\n    returns (address)\r\n  {\r\n    address _signer = _hash.recover(_signature);\r\n    require(hasRole(VENDOR_ROLE, _signer), \"Signer should be Mobilizer\");\r\n    return _signer;\r\n  }\r\n\r\n  function verifyMobilizer(bytes32 _hash, bytes memory _signature)\r\n    internal\r\n    view\r\n    returns (address)\r\n  {\r\n    address _signer = _hash.recover(_signature);\r\n    require(hasRole(MOBILIZER_ROLE, _signer), \"Signer should be Mobilizer\");\r\n    return _signer;\r\n  }\r\n\r\n  /// @notice Issue tokens to beneficiary\r\n  /// @param _projectId Id of the project beneficiary is involved in\r\n  /// @param _phone phone number of the beneficiary\r\n  /// @param _amount Amount of token to be assigned to beneficiary\r\n  function issueERC20ToBeneficiary(\r\n    string memory _projectId,\r\n    uint256 _phone,\r\n    uint256 _amount\r\n  ) public OnlyAdminOrMobilizer {\r\n    bytes32 _id = findHash(_projectId);\r\n\r\n    if (hasRole(MOBILIZER_ROLE, msg.sender)) {\r\n      require(\r\n        projectMobilizers[_id].contains(msg.sender),\r\n        \"mobilizer is not onboarded to given project\"\r\n      );\r\n    }\r\n    erc20IssuedBy[msg.sender] += _amount;\r\n\r\n    require(\r\n      remainingProjectErc20Balances[_id] >= _amount,\r\n      \"RAHAT: Amount is greater than remaining Project Budget\"\r\n    );\r\n    remainingProjectErc20Balances[_id] -= _amount;\r\n    adjustTokenAdd(_phone, _amount);\r\n\r\n    emit IssuedERC20(_id, _phone, _amount);\r\n  }\r\n\r\n  /// @notice request a token to beneficiary by vendor\r\n  /// @param _phone Phone number of beneficiary to whom token is requested\r\n  /// @param _tokens Number of tokens to request\r\n  function createERC20Claim(uint256 _phone, uint256 _tokens)\r\n    public\r\n    IsBeneficiary(_phone)\r\n    OnlyVendor\r\n  {\r\n    require(\r\n      triggerResponse.isLive(),\r\n      \"This response has not been activated yet, please contact admin.\"\r\n    );\r\n    require(!isBanked[_phone], \"Cannot claim from banked beneficiary\");\r\n\r\n    bytes32 _benId = findHash(_phone);\r\n    require(\r\n      erc20Balance[_phone] >= _tokens,\r\n      \"RAHAT: Amount requested is greater than beneficiary balance.\"\r\n    );\r\n\r\n    claim storage ac = recentERC20Claims[msg.sender][_benId];\r\n    ac.isReleased = false;\r\n    ac.amount = _tokens;\r\n    ac.date = block.timestamp;\r\n    emit ClaimedERC20(tx.origin, _phone, _tokens);\r\n  }\r\n\r\n  /// @notice Approve the requested claim from serverside and set the otp hash\r\n  /// @param _vendor Address of the vendor who requested the token from beneficiary\r\n  /// @param _phone Phone number of the beneficiary, to whom token request was sent\r\n  /// @param _otpHash Hash of OTP sent to beneficiary by server\r\n  /// @param _timeToLive Validity of OTP in seconds\r\n  function approveERC20Claim(\r\n    address _vendor,\r\n    uint256 _phone,\r\n    bytes32 _otpHash,\r\n    uint256 _timeToLive\r\n  ) public IsBeneficiary(_phone) OnlyServer {\r\n    bytes32 _benId = findHash(_phone);\r\n    claim storage ac = recentERC20Claims[_vendor][_benId];\r\n    require(ac.date != 0, \"RAHAT: Claim has not been created yet\");\r\n    require(\r\n      _timeToLive <= 86400,\r\n      \"RAHAT:Time To Live should be less than 24 hours\"\r\n    );\r\n    require(\r\n      block.timestamp <= ac.date + 86400,\r\n      \"RAHAT: Claim is older than 24 hours\"\r\n    );\r\n    require(!ac.isReleased, \"RAHAT: Claim has already been released.\");\r\n    ac.otpHash = _otpHash;\r\n    ac.isReleased = true;\r\n    ac.date = block.timestamp + _timeToLive;\r\n    emit ClaimApproved(_vendor, _phone, ac.amount);\r\n  }\r\n\r\n  /// @notice Retrieve tokens that was requested to beneficiary by entering OTP\r\n  /// @param _phone Phone Number of the beneficiary, to whom token request was sent\r\n  /// @param _otp OTP sent by the server\r\n  function getERC20FromClaim(uint256 _phone, string memory _otp)\r\n    public\r\n    IsBeneficiary(_phone)\r\n    OnlyVendor\r\n  {\r\n    bytes32 _benId = findHash(_phone);\r\n    claim storage ac = recentERC20Claims[msg.sender][_benId];\r\n    require(ac.isReleased, \"RAHAT: Claim has not been released.\");\r\n    require(ac.date >= block.timestamp, \"RAHAT: Claim has already expired.\");\r\n    bytes32 otpHash = findHash(_otp);\r\n    require(\r\n      recentERC20Claims[msg.sender][_benId].otpHash == otpHash,\r\n      \"RAHAT: OTP did not match.\"\r\n    );\r\n    adjustTokenDeduct(_phone, ac.amount);\r\n    uint256 amt = ac.amount;\r\n    ac.isReleased = false;\r\n    ac.amount = 0;\r\n    ac.date = 0;\r\n    erc20.transfer(msg.sender, amt);\r\n    vendorCashDispatched[msg.sender] += amt;\r\n    emit ClaimAcquiredERC20(msg.sender, _phone, amt);\r\n  }\r\n\r\n  /// @notice Admin function to transfer beneficiary token to vendor\r\n  /// @param _phone Phone number of beneficiary to whom token is requested\r\n  /// @param _address vendor's address\r\n  /// @param _amount Number of tokens to request\r\n  function transferTokenToVendorByAdmin(uint256 _phone, address _address, uint256 _amount) \r\n    public IsBeneficiary(_phone) OnlyAdmin {\r\n      require(isVendor(_address), \"Transfer to must be vendor address\");\r\n      adjustTokenDeduct(_phone, _amount);\r\n      erc20.transfer(_address, _amount);\r\n      vendorCashDispatched[_address] += _amount;\r\n      emit ClaimAcquiredERC20(_address, _phone, _amount);\r\n  }\r\n\r\n  function transferCashToVendor(address _address, uint256 _amount) \r\n    public OnlyPalika {\r\n      require(isVendor(_address), \"Transfer to must be vendor address\");\r\n      vendorCashReceived[_address] += _amount;\r\n      emit VendorCashTransfer(msg.sender, _address, _amount);\r\n  }\r\n\r\n  function adjustVendorCashBalance(address _address, uint256 _amount) \r\n    public OnlyAdmin {\r\n      require(isVendor(_address), \"Transfer to must be vendor address\");\r\n      vendorCashReceived[_address] -= _amount;\r\n      emit VendorCashAdjustment(msg.sender, _address, _amount);\r\n  }\r\n\r\n  function getVendorCashBalance(address _address) \r\n    public view returns (uint256) {\r\n      return vendorCashReceived[_address] - vendorCashDispatched[_address];\r\n  }\r\n\r\n  /// @notice generates the hash of the given string\r\n  /// @param _data String of which hash is to be generated\r\n  function findHash(string memory _data) public pure returns (bytes32) {\r\n    return keccak256(abi.encodePacked(_data));\r\n  }\r\n\r\n  /// @notice generates the hash of the given string\r\n  /// @param _data String of which hash is to be generated\r\n  function findHash(uint256 _data) public pure returns (bytes32) {\r\n    return keccak256(abi.encodePacked(_data.toString()));\r\n  }\r\n\r\n  /// @notice Generates the sum of all the integers in array\r\n  /// @param _array Array of uint\r\n  function getArraySum(uint256[] memory _array)\r\n    public\r\n    pure\r\n    returns (uint256 sum)\r\n  {\r\n    sum = 0;\r\n    for (uint256 i = 0; i < _array.length; i++) {\r\n      sum += _array[i];\r\n    }\r\n    return sum;\r\n  }\r\n}\r\n",
  "sourcePath": "S:\\Projects\\rahat\\unicef-np\\rahat-contracts\\src\\contracts\\Rahat.sol",
  "compiler": {
    "name": "solc",
    "version": "0.8.16+commit.07a7930e.Emscripten.clang"
  },
  "schemaVersion": "3.4.10",
  "updatedAt": "2022-11-22T12:02:29.930Z",
  "devdoc": {
    "kind": "dev",
    "methods": {
      "addAdmin(address)": {
        "params": {
          "_account": "address of the new admin"
        }
      },
      "addMobilizer(address,string)": {
        "params": {
          "_account": "address of the new vendor",
          "_projectId": "projectId"
        }
      },
      "addPalika(address)": {
        "params": {
          "_account": "address of the new palika"
        }
      },
      "addServer(address)": {
        "params": {
          "_account": "address of the new server account"
        }
      },
      "addVendor(address)": {
        "params": {
          "_account": "address of the new vendor"
        }
      },
      "approveERC20Claim(address,uint256,bytes32,uint256)": {
        "params": {
          "_otpHash": "Hash of OTP sent to beneficiary by server",
          "_phone": "Phone number of the beneficiary, to whom token request was sent",
          "_timeToLive": "Validity of OTP in seconds",
          "_vendor": "Address of the vendor who requested the token from beneficiary"
        }
      },
      "createERC20Claim(uint256,uint256)": {
        "params": {
          "_phone": "Phone number of beneficiary to whom token is requested",
          "_tokens": "Number of tokens to request"
        }
      },
      "findHash(string)": {
        "params": {
          "_data": "String of which hash is to be generated"
        }
      },
      "findHash(uint256)": {
        "params": {
          "_data": "String of which hash is to be generated"
        }
      },
      "getArraySum(uint256[])": {
        "params": {
          "_array": "Array of uint"
        }
      },
      "getERC20FromClaim(uint256,string)": {
        "params": {
          "_otp": "OTP sent by the server",
          "_phone": "Phone Number of the beneficiary, to whom token request was sent"
        }
      },
      "getRoleAdmin(bytes32)": {
        "details": "Returns the admin role that controls `role`. See {grantRole} and {revokeRole}. To change a role's admin, use {_setRoleAdmin}."
      },
      "grantRole(bytes32,address)": {
        "details": "Grants `role` to `account`. If `account` had not been already granted `role`, emits a {RoleGranted} event. Requirements: - the caller must have ``role``'s admin role."
      },
      "hasRole(bytes32,address)": {
        "details": "Returns `true` if `account` has been granted `role`."
      },
      "issueERC20ToBeneficiary(string,uint256,uint256)": {
        "params": {
          "_amount": "Amount of token to be assigned to beneficiary",
          "_phone": "phone number of the beneficiary",
          "_projectId": "Id of the project beneficiary is involved in"
        }
      },
      "multicall(bytes[])": {
        "details": "Receives and executes a batch of function calls on this contract."
      },
      "renounceRole(bytes32,address)": {
        "details": "Revokes `role` from the calling account. Roles are often managed via {grantRole} and {revokeRole}: this function's purpose is to provide a mechanism for accounts to lose their privileges if they are compromised (such as when a trusted device is misplaced). If the calling account had been revoked `role`, emits a {RoleRevoked} event. Requirements: - the caller must be `account`."
      },
      "revokeRole(bytes32,address)": {
        "details": "Revokes `role` from `account`. If `account` had been granted `role`, emits a {RoleRevoked} event. Requirements: - the caller must have ``role``'s admin role."
      },
      "setAsBankedBeneficiary(uint256,bool)": {
        "params": {
          "_isBanked": "true/false",
          "_phone": "beneficiary phone number"
        }
      },
      "supportsInterface(bytes4)": {
        "details": "See {IERC165-supportsInterface}."
      },
      "suspendBeneficiary(uint256,bytes32)": {
        "params": {
          "_phone": "phone number of the Beneficiary",
          "_projectId": "projectId beneficiary is involved in"
        }
      },
      "transferTokenToVendorByAdmin(uint256,address,uint256)": {
        "params": {
          "_address": "vendor's address",
          "_amount": "Number of tokens to request",
          "_phone": "Phone number of beneficiary to whom token is requested"
        }
      },
      "updateProjectBudget(bytes32,uint256)": {
        "params": {
          "_projectCapital": "amount of budget to be added to project",
          "_projectId": "Id of the project to assign budget"
        }
      }
    },
    "stateVariables": {
      "recentERC20Claims": {
        "details": "vendorAddress => phone => claim"
      }
    },
    "version": 1
  },
  "userdoc": {
    "kind": "user",
    "methods": {
      "addAdmin(address)": {
        "notice": "add admin of the this contract"
      },
      "addMobilizer(address,string)": {
        "notice": "add vendors"
      },
      "addPalika(address)": {
        "notice": "add Palika users"
      },
      "addServer(address)": {
        "notice": "add server account for this contract"
      },
      "addVendor(address)": {
        "notice": "add vendors"
      },
      "approveERC20Claim(address,uint256,bytes32,uint256)": {
        "notice": "Approve the requested claim from serverside and set the otp hash"
      },
      "createERC20Claim(uint256,uint256)": {
        "notice": "request a token to beneficiary by vendor"
      },
      "erc20Balance(uint256)": {
        "notice": "track balances of each beneficiary phone"
      },
      "erc20Issued(uint256)": {
        "notice": "track total issued tokens of each benefiicary phone"
      },
      "findHash(string)": {
        "notice": "generates the hash of the given string"
      },
      "findHash(uint256)": {
        "notice": "generates the hash of the given string"
      },
      "getArraySum(uint256[])": {
        "notice": "Generates the sum of all the integers in array"
      },
      "getERC20FromClaim(uint256,string)": {
        "notice": "Retrieve tokens that was requested to beneficiary by entering OTP"
      },
      "getProjectBalance(bytes32)": {
        "notice": "get the current balance of project"
      },
      "issueERC20ToBeneficiary(string,uint256,uint256)": {
        "notice": "Issue tokens to beneficiary"
      },
      "setAsBankedBeneficiary(uint256,bool)": {
        "notice": "set IsBanked Beneficiary"
      },
      "suspendBeneficiary(uint256,bytes32)": {
        "notice": "suspend the benficiary by deducting all the balance beneficiary owns"
      },
      "transferTokenToVendorByAdmin(uint256,address,uint256)": {
        "notice": "Admin function to transfer beneficiary token to vendor"
      },
      "updateProjectBudget(bytes32,uint256)": {
        "notice": "update a project balance.called by rahatdmin contract"
      }
    },
    "version": 1
  }
}