{
  "contractName": "RahatDonor",
  "abi": [
    {
      "inputs": [
        {
          "internalType": "address",
          "name": "_admin",
          "type": "address"
        }
      ],
      "stateMutability": "nonpayable",
      "type": "constructor"
    },
    {
      "anonymous": false,
      "inputs": [
        {
          "indexed": true,
          "internalType": "address",
          "name": "tokenAddress",
          "type": "address"
        }
      ],
      "name": "TokenCreated",
      "type": "event"
    },
    {
      "inputs": [
        {
          "internalType": "address",
          "name": "_account",
          "type": "address"
        }
      ],
      "name": "addOwner",
      "outputs": [
        {
          "internalType": "bool",
          "name": "",
          "type": "bool"
        }
      ],
      "stateMutability": "nonpayable",
      "type": "function"
    },
    {
      "inputs": [
        {
          "internalType": "address",
          "name": "_token",
          "type": "address"
        },
        {
          "internalType": "address",
          "name": "_spender",
          "type": "address"
        },
        {
          "internalType": "uint256",
          "name": "_amount",
          "type": "uint256"
        }
      ],
      "name": "approveToken",
      "outputs": [],
      "stateMutability": "nonpayable",
      "type": "function"
    },
    {
      "inputs": [
        {
          "internalType": "address",
          "name": "_token",
          "type": "address"
        },
        {
          "internalType": "address",
          "name": "_from",
          "type": "address"
        },
        {
          "internalType": "uint256",
          "name": "_amount",
          "type": "uint256"
        }
      ],
      "name": "claimToken",
      "outputs": [],
      "stateMutability": "nonpayable",
      "type": "function"
    },
    {
      "inputs": [],
      "name": "listAdmins",
      "outputs": [
        {
          "internalType": "address[]",
          "name": "",
          "type": "address[]"
        }
      ],
      "stateMutability": "view",
      "type": "function"
    },
    {
      "inputs": [
        {
          "internalType": "address",
          "name": "",
          "type": "address"
        }
      ],
      "name": "owner",
      "outputs": [
        {
          "internalType": "bool",
          "name": "",
          "type": "bool"
        }
      ],
      "stateMutability": "view",
      "type": "function"
    },
    {
      "inputs": [
        {
          "internalType": "address",
          "name": "_account",
          "type": "address"
        }
      ],
      "name": "removeOwner",
      "outputs": [
        {
          "internalType": "bool",
          "name": "",
          "type": "bool"
        }
      ],
      "stateMutability": "nonpayable",
      "type": "function"
    },
    {
      "inputs": [
        {
          "internalType": "address",
          "name": "_token",
          "type": "address"
        },
        {
          "internalType": "address",
          "name": "_from",
          "type": "address"
        },
        {
          "internalType": "address",
          "name": "_to",
          "type": "address"
        },
        {
          "internalType": "uint256",
          "name": "_amount",
          "type": "uint256"
        }
      ],
      "name": "transferFromToken",
      "outputs": [],
      "stateMutability": "nonpayable",
      "type": "function"
    },
    {
      "inputs": [
        {
          "internalType": "address",
          "name": "_token",
          "type": "address"
        },
        {
          "internalType": "address",
          "name": "_to",
          "type": "address"
        },
        {
          "internalType": "uint256",
          "name": "_amount",
          "type": "uint256"
        }
      ],
      "name": "transferToken",
      "outputs": [],
      "stateMutability": "nonpayable",
      "type": "function"
    },
    {
      "inputs": [
        {
          "internalType": "string",
          "name": "_name",
          "type": "string"
        },
        {
          "internalType": "string",
          "name": "_symbol",
          "type": "string"
        },
        {
          "internalType": "uint256",
          "name": "_supply",
          "type": "uint256"
        },
        {
          "internalType": "uint8",
          "name": "decimals",
          "type": "uint8"
        }
      ],
      "name": "createToken",
      "outputs": [
        {
          "internalType": "address",
          "name": "",
          "type": "address"
        }
      ],
      "stateMutability": "nonpayable",
      "type": "function"
    },
    {
      "inputs": [
        {
          "internalType": "address",
          "name": "_token",
          "type": "address"
        },
        {
          "internalType": "uint256",
          "name": "_amount",
          "type": "uint256"
        }
      ],
      "name": "mintToken",
      "outputs": [],
      "stateMutability": "nonpayable",
      "type": "function"
    },
    {
      "inputs": [
        {
          "internalType": "address",
          "name": "_token",
          "type": "address"
        },
        {
          "internalType": "address",
          "name": "_ownerAddress",
          "type": "address"
        }
      ],
      "name": "addTokenOwner",
      "outputs": [],
      "stateMutability": "nonpayable",
      "type": "function"
    },
    {
      "inputs": [],
      "name": "listTokens",
      "outputs": [
        {
          "internalType": "address[]",
          "name": "",
          "type": "address[]"
        }
      ],
      "stateMutability": "view",
      "type": "function"
    }
  ],
  "bytecode": "0x608060405234801561001057600080fd5b5060405161266b38038061266b83398101604081905261002f91610056565b6001600160a01b03166000908152600260205260409020805460ff19166001179055610086565b60006020828403121561006857600080fd5b81516001600160a01b038116811461007f57600080fd5b9392505050565b6125d6806100956000396000f3fe60806040523480156200001157600080fd5b5060043610620000b25760003560e01c8063125bfb6614620000b7578063173825d914620000d05780632cb5568e14620000fc578063666e1b3914620001135780637065cb4814620001395780637488ff76146200015057806379c650681462000169578063a591afbe1462000180578063b64acddd146200018a578063da3e339714620001b0578063f5537ede14620001c7578063fb3c0d7014620001de575b600080fd5b620000ce620000c8366004620009c2565b620001f5565b005b620000e7620000e136600462000a03565b620002ae565b60405190151581526020015b60405180910390f35b620000ce6200010d36600462000a21565b62000317565b620000e76200012436600462000a03565b60026020526000908152604090205460ff1681565b620000e76200014a36600462000a03565b620003c2565b6200015a62000423565b604051620000f3919062000a59565b620000ce6200017a36600462000aa8565b62000436565b6200015a620004de565b620001a16200019b36600462000b80565b620004ec565b604051620000f3919062000c0e565b620000ce620001c1366004620009c2565b62000626565b620000ce620001d8366004620009c2565b62000688565b620000ce620001ef36600462000c22565b620006ea565b3360009081526002602052604090205460ff16620002305760405162461bcd60e51b8152600401620002279062000c74565b60405180910390fd5b6040516323b872dd60e01b81526001600160a01b038416906323b872dd90620002629085903090869060040162000cbb565b6020604051808303816000875af115801562000282573d6000803e3d6000fd5b505050506040513d601f19601f82011682018060405250810190620002a8919062000cdf565b50505050565b3360009081526002602052604081205460ff16620002e05760405162461bcd60e51b8152600401620002279062000c74565b6001600160a01b0382166000908152600260205260408120805460ff191690556200030c90836200079b565b50600190505b919050565b3360009081526002602052604090205460ff16620003495760405162461bcd60e51b8152600401620002279062000c74565b604051630e0cb96960e31b81526001600160a01b03831690637065cb48906200037790849060040162000c0e565b6020604051808303816000875af115801562000397573d6000803e3d6000fd5b505050506040513d601f19601f82011682018060405250810190620003bd919062000cdf565b505050565b3360009081526002602052604081205460ff16620003f45760405162461bcd60e51b8152600401620002279062000c74565b6001600160a01b0382166000908152600260205260408120805460ff191660011790556200030c9083620007bb565b6060620004316003620007d2565b905090565b3360009081526002602052604090205460ff16620004685760405162461bcd60e51b8152600401620002279062000c74565b6040516340c10f1960e01b81526001600160a01b038316906340c10f199062000498903090859060040162000d03565b6020604051808303816000875af1158015620004b8573d6000803e3d6000fd5b505050506040513d601f19601f82011682018060405250810190620003bd919062000d1c565b6060620004316000620007d2565b3360009081526002602052604081205460ff166200051e5760405162461bcd60e51b8152600401620002279062000c74565b60008585308560405162000532906200099c565b62000541949392919062000d7e565b604051809103906000f0801580156200055e573d6000803e3d6000fd5b506040516340c10f1960e01b81529091506001600160a01b038216906340c10f199062000592903090889060040162000d03565b6020604051808303816000875af1158015620005b2573d6000803e3d6000fd5b505050506040513d601f19601f82011682018060405250810190620005d8919062000d1c565b5080620005e7600382620007bb565b506040516001600160a01b038216907f2e2b3f61b70d2d131b2a807371103cc98d51adcaa5e9a8f9c32658ad8426e74e90600090a29695505050505050565b3360009081526002602052604090205460ff16620006585760405162461bcd60e51b8152600401620002279062000c74565b60405163095ea7b360e01b81526001600160a01b0384169063095ea7b39062000262908590859060040162000d03565b3360009081526002602052604090205460ff16620006ba5760405162461bcd60e51b8152600401620002279062000c74565b60405163a9059cbb60e01b81526001600160a01b0384169063a9059cbb9062000262908590859060040162000d03565b3360009081526002602052604090205460ff166200071c5760405162461bcd60e51b8152600401620002279062000c74565b6040516323b872dd60e01b81526001600160a01b038516906323b872dd906200074e9086908690869060040162000cbb565b6020604051808303816000875af11580156200076e573d6000803e3d6000fd5b505050506040513d601f19601f8201168201806040525081019062000794919062000cdf565b5050505050565b6000620007b2836001600160a01b038416620007e8565b90505b92915050565b6000620007b2836001600160a01b038416620008ec565b60606000620007e1836200093e565b9392505050565b60008181526001830160205260408120548015620008e15760006200080f60018362000dcc565b8554909150600090620008259060019062000dcc565b90508181146200089157600086600001828154811062000849576200084962000dee565b90600052602060002001549050808760000184815481106200086f576200086f62000dee565b6000918252602080832090910192909255918252600188019052604090208390555b8554869080620008a557620008a562000e04565b600190038181906000526020600020016000905590558560010160008681526020019081526020016000206000905560019350505050620007b5565b6000915050620007b5565b60008181526001830160205260408120546200093557508154600181810184556000848152602080822090930184905584548482528286019093526040902091909155620007b5565b506000620007b5565b6060816000018054806020026020016040519081016040528092919081815260200182805480156200099057602002820191906000526020600020905b8154815260200190600101908083116200097b575b50505050509050919050565b6117868062000e1b83390190565b80356001600160a01b03811681146200031257600080fd5b600080600060608486031215620009d857600080fd5b620009e384620009aa565b9250620009f360208501620009aa565b9150604084013590509250925092565b60006020828403121562000a1657600080fd5b620007b282620009aa565b6000806040838503121562000a3557600080fd5b62000a4083620009aa565b915062000a5060208401620009aa565b90509250929050565b6020808252825182820181905260009190848201906040850190845b8181101562000a9c5783516001600160a01b03168352928401929184019160010162000a75565b50909695505050505050565b6000806040838503121562000abc57600080fd5b62000ac783620009aa565b946020939093013593505050565b634e487b7160e01b600052604160045260246000fd5b600082601f83011262000afd57600080fd5b813567ffffffffffffffff8082111562000b1b5762000b1b62000ad5565b604051601f8301601f19908116603f0116810190828211818310171562000b465762000b4662000ad5565b8160405283815286602085880101111562000b6057600080fd5b836020870160208301376000602085830101528094505050505092915050565b6000806000806080858703121562000b9757600080fd5b843567ffffffffffffffff8082111562000bb057600080fd5b62000bbe8883890162000aeb565b9550602087013591508082111562000bd557600080fd5b5062000be48782880162000aeb565b93505060408501359150606085013560ff8116811462000c0357600080fd5b939692955090935050565b6001600160a01b0391909116815260200190565b6000806000806080858703121562000c3957600080fd5b62000c4485620009aa565b935062000c5460208601620009aa565b925062000c6460408601620009aa565b9396929550929360600135925050565b60208082526027908201527f4f6e6c79206f776e65722063616e20657865637574652074686973207472616e60408201526639b0b1ba34b7b760c91b606082015260800190565b6001600160a01b039384168152919092166020820152604081019190915260600190565b60006020828403121562000cf257600080fd5b81518015158114620007e157600080fd5b6001600160a01b03929092168252602082015260400190565b60006020828403121562000d2f57600080fd5b5051919050565b6000815180845260005b8181101562000d5e5760208185018101518683018201520162000d40565b506000602082860101526020601f19601f83011685010191505092915050565b60808152600062000d93608083018762000d36565b828103602084015262000da7818762000d36565b6001600160a01b03959095166040840152505060ff9190911660609091015292915050565b81810381811115620007b557634e487b7160e01b600052601160045260246000fd5b634e487b7160e01b600052603260045260246000fd5b634e487b7160e01b600052603160045260246000fdfe60806040523480156200001157600080fd5b50604051620017863803806200178683398101604081905262000034916200015e565b8383600662000044838262000293565b50600762000053828262000293565b5050506001600160a01b039190911660009081526002602052604090208054600160ff1991821617909155600c805490911660ff909216919091179055506200035f9050565b634e487b7160e01b600052604160045260246000fd5b600082601f830112620000c157600080fd5b81516001600160401b0380821115620000de57620000de62000099565b604051601f8301601f19908116603f0116810190828211818310171562000109576200010962000099565b816040528381526020925086838588010111156200012657600080fd5b600091505b838210156200014a57858201830151818301840152908201906200012b565b600093810190920192909252949350505050565b600080600080608085870312156200017557600080fd5b84516001600160401b03808211156200018d57600080fd5b6200019b88838901620000af565b95506020870151915080821115620001b257600080fd5b50620001c187828801620000af565b604087015190945090506001600160a01b0381168114620001e157600080fd5b606086015190925060ff81168114620001f957600080fd5b939692955090935050565b600181811c908216806200021957607f821691505b6020821081036200023a57634e487b7160e01b600052602260045260246000fd5b50919050565b601f8211156200028e57600081815260208120601f850160051c81016020861015620002695750805b601f850160051c820191505b818110156200028a5782815560010162000275565b5050505b505050565b81516001600160401b03811115620002af57620002af62000099565b620002c781620002c0845462000204565b8462000240565b602080601f831160018114620002ff5760008415620002e65750858301515b600019600386901b1c1916600185901b1785556200028a565b600085815260208120601f198616915b8281101562000330578886015182559484019460019091019084016200030f565b50858210156200034f5787850151600019600388901b60f8161c191681555b5050505050600190811b01905550565b611417806200036f6000396000f3fe608060405234801561001057600080fd5b506004361061010c5760003560e01c8063666e1b391161009d578063666e1b39146101ed5780637065cb481461021057806370a082311461022357806379cc67901461023657806395d89b4114610249578063981b24d014610251578063a457c2d714610264578063a591afbe14610277578063a9059cbb1461028c578063dd62ed3e1461029f57600080fd5b806306fdde0314610111578063095ea7b31461012f578063173825d91461015257806318160ddd1461016557806323b872dd14610177578063313ce5671461018a578063395093511461019f57806340c10f19146101b257806342966c68146101c55780634ee2cd7e146101da575b600080fd5b6101196102d8565b604051610126919061113d565b60405180910390f35b61014261013d3660046111a2565b61036a565b6040519015158152602001610126565b6101426101603660046111cc565b610381565b6005545b604051908152602001610126565b6101426101853660046111e7565b6103ee565b600c5460405160ff9091168152602001610126565b6101426101ad3660046111a2565b610498565b6101696101c03660046111a2565b6104d4565b6101d86101d3366004611223565b610513565b005b6101696101e83660046111a2565b610520565b6101426101fb3660046111cc565b60026020526000908152604090205460ff1681565b61014261021e3660046111cc565b610569565b6101696102313660046111cc565b6105c5565b6101d86102443660046111a2565b6105e0565b610119610666565b61016961025f366004611223565b610675565b6101426102723660046111a2565b6106a0565b61027f610739565b604051610126919061123c565b61014261029a3660046111a2565b61074a565b6101696102ad366004611289565b6001600160a01b03918216600090815260046020908152604080832093909416825291909152205490565b6060600680546102e7906112bc565b80601f0160208091040260200160405190810160405280929190818152602001828054610313906112bc565b80156103605780601f1061033557610100808354040283529160200191610360565b820191906000526020600020905b81548152906001019060200180831161034357829003601f168201915b5050505050905090565b6000610377338484610757565b5060015b92915050565b3360009081526002602052604081205460ff166103b95760405162461bcd60e51b81526004016103b0906112f0565b60405180910390fd5b6001600160a01b0382166000908152600260205260408120805460ff191690556103e3908361087b565b50600190505b919050565b60006103fb848484610897565b6001600160a01b0384166000908152600460209081526040808320338452909152902054828110156104805760405162461bcd60e51b815260206004820152602860248201527f45524332303a207472616e7366657220616d6f756e74206578636565647320616044820152676c6c6f77616e636560c01b60648201526084016103b0565b61048d8533858403610757565b506001949350505050565b3360008181526004602090815260408083206001600160a01b038716845290915281205490916103779185906104cf90869061134d565b610757565b3360009081526002602052604081205460ff166105035760405162461bcd60e51b81526004016103b0906112f0565b61050d8383610a5f565b50919050565b61051d3382610b38565b50565b6001600160a01b038216600090815260086020526040812081908190610547908590610c80565b915091508161055e57610559856105c5565b610560565b805b95945050505050565b3360009081526002602052604081205460ff166105985760405162461bcd60e51b81526004016103b0906112f0565b6001600160a01b0382166000908152600260205260408120805460ff191660011790556103e39083610d76565b6001600160a01b031660009081526003602052604090205490565b60006105ec83336102ad565b90508181101561064a5760405162461bcd60e51b8152602060048201526024808201527f45524332303a206275726e20616d6f756e74206578636565647320616c6c6f77604482015263616e636560e01b60648201526084016103b0565b6106578333848403610757565b6106618383610b38565b505050565b6060600780546102e7906112bc565b6000806000610685846009610c80565b915091508161069657600554610698565b805b949350505050565b3360009081526004602090815260408083206001600160a01b0386168452909152812054828110156107225760405162461bcd60e51b815260206004820152602560248201527f45524332303a2064656372656173656420616c6c6f77616e63652062656c6f77604482015264207a65726f60d81b60648201526084016103b0565b61072f3385858403610757565b5060019392505050565b60606107456000610d8b565b905090565b6000610377338484610897565b6001600160a01b0383166107b95760405162461bcd60e51b8152602060048201526024808201527f45524332303a20617070726f76652066726f6d20746865207a65726f206164646044820152637265737360e01b60648201526084016103b0565b6001600160a01b03821661081a5760405162461bcd60e51b815260206004820152602260248201527f45524332303a20617070726f766520746f20746865207a65726f206164647265604482015261737360f01b60648201526084016103b0565b6001600160a01b0383811660008181526004602090815260408083209487168084529482529182902085905590518481527f8c5be1e5ebec7d5bd14f71427d1e84f3dd0314c0f7b2291e5b200ac8c7c3b925910160405180910390a3505050565b6000610890836001600160a01b038416610d98565b9392505050565b6001600160a01b0383166108fb5760405162461bcd60e51b815260206004820152602560248201527f45524332303a207472616e736665722066726f6d20746865207a65726f206164604482015264647265737360d81b60648201526084016103b0565b6001600160a01b03821661095d5760405162461bcd60e51b815260206004820152602360248201527f45524332303a207472616e7366657220746f20746865207a65726f206164647260448201526265737360e81b60648201526084016103b0565b610968838383610e8b565b6001600160a01b038316600090815260036020526040902054818110156109e05760405162461bcd60e51b815260206004820152602660248201527f45524332303a207472616e7366657220616d6f756e7420657863656564732062604482015265616c616e636560d01b60648201526084016103b0565b6001600160a01b03808516600090815260036020526040808220858503905591851681529081208054849290610a1790849061134d565b92505081905550826001600160a01b0316846001600160a01b03166000805160206113c283398151915284604051610a5191815260200190565b60405180910390a350505050565b6001600160a01b038216610ab55760405162461bcd60e51b815260206004820152601f60248201527f45524332303a206d696e7420746f20746865207a65726f20616464726573730060448201526064016103b0565b610ac160008383610e8b565b8060056000828254610ad3919061134d565b90915550506001600160a01b03821660009081526003602052604081208054839290610b0090849061134d565b90915550506040518181526001600160a01b038316906000906000805160206113c28339815191529060200160405180910390a35050565b6001600160a01b038216610b985760405162461bcd60e51b815260206004820152602160248201527f45524332303a206275726e2066726f6d20746865207a65726f206164647265736044820152607360f81b60648201526084016103b0565b610ba482600083610e8b565b6001600160a01b03821660009081526003602052604090205481811015610c185760405162461bcd60e51b815260206004820152602260248201527f45524332303a206275726e20616d6f756e7420657863656564732062616c616e604482015261636560f01b60648201526084016103b0565b6001600160a01b0383166000908152600360205260408120838303905560058054849290610c47908490611360565b90915550506040518281526000906001600160a01b038516906000805160206113c28339815191529060200160405180910390a3505050565b60008060008411610ccc5760405162461bcd60e51b815260206004820152601660248201527504552433230536e617073686f743a20696420697320360541b60448201526064016103b0565b610cd4610e96565b841115610d235760405162461bcd60e51b815260206004820152601d60248201527f4552433230536e617073686f743a206e6f6e6578697374656e7420696400000060448201526064016103b0565b6000610d2f8486610ea1565b84549091508103610d47576000809250925050610d6f565b6001846001018281548110610d5e57610d5e611373565b906000526020600020015492509250505b9250929050565b6000610890836001600160a01b038416610f66565b6060600061089083610fb5565b60008181526001830160205260408120548015610e81576000610dbc600183611360565b8554909150600090610dd090600190611360565b9050818114610e35576000866000018281548110610df057610df0611373565b9060005260206000200154905080876000018481548110610e1357610e13611373565b6000918252602080832090910192909255918252600188019052604090208390555b8554869080610e4657610e46611389565b60019003818190600052602060002001600090559055856001016000868152602001908152602001600020600090556001935050505061037b565b600091505061037b565b610661838383611011565b6000610745600b5490565b81546000908103610eb45750600061037b565b82546000905b80821015610f10576000610ece8383611059565b905084868281548110610ee357610ee3611373565b90600052602060002001541115610efc57809150610f0a565b610f0781600161134d565b92505b50610eba565b600082118015610f4557508385610f28600185611360565b81548110610f3857610f38611373565b9060005260206000200154145b15610f5e57610f55600183611360565b9250505061037b565b50905061037b565b6000818152600183016020526040812054610fad5750815460018181018455600084815260208082209093018490558454848252828601909352604090209190915561037b565b50600061037b565b60608160000180548060200260200160405190810160405280929190818152602001828054801561100557602002820191906000526020600020905b815481526020019060010190808311610ff1575b50505050509050919050565b6001600160a01b0383166110305761102882611074565b61066161109e565b6001600160a01b0382166110475761102883611074565b61105083611074565b61066182611074565b6000611068600284841861139f565b6108909084841661134d565b6001600160a01b038116600090815260086020526040902061051d90611099836105c5565b6110ae565b6110ac600961109960055490565b565b60006110b8610e96565b9050806110c4846110f8565b1015610661578254600180820185556000858152602080822090930193909355938401805494850181558252902090910155565b8054600090810361110b57506000919050565b8154829061111b90600190611360565b8154811061112b5761112b611373565b90600052602060002001549050919050565b600060208083528351808285015260005b8181101561116a5785810183015185820160400152820161114e565b506000604082860101526040601f19601f8301168501019250505092915050565b80356001600160a01b03811681146103e957600080fd5b600080604083850312156111b557600080fd5b6111be8361118b565b946020939093013593505050565b6000602082840312156111de57600080fd5b6108908261118b565b6000806000606084860312156111fc57600080fd5b6112058461118b565b92506112136020850161118b565b9150604084013590509250925092565b60006020828403121561123557600080fd5b5035919050565b6020808252825182820181905260009190848201906040850190845b8181101561127d5783516001600160a01b031683529284019291840191600101611258565b50909695505050505050565b6000806040838503121561129c57600080fd5b6112a58361118b565b91506112b36020840161118b565b90509250929050565b600181811c908216806112d057607f821691505b60208210810361050d57634e487b7160e01b600052602260045260246000fd5b60208082526027908201527f4f6e6c79206f776e65722063616e20657865637574652074686973207472616e60408201526639b0b1ba34b7b760c91b606082015260800190565b634e487b7160e01b600052601160045260246000fd5b8082018082111561037b5761037b611337565b8181038181111561037b5761037b611337565b634e487b7160e01b600052603260045260246000fd5b634e487b7160e01b600052603160045260246000fd5b6000826113bc57634e487b7160e01b600052601260045260246000fd5b50049056feddf252ad1be2c89b69c2b068fc378daa952ba7f163c4a11628f55a4df523b3efa264697066735822122049e7e43f806dfc7aa58fcf80ff309a85a740afa421fdcc200c7364f6682c192564736f6c63430008100033a26469706673582212205134fcd1d107a0c595f8ddaa5cac52af11aa2121c861241fe8ba1ea262f365e864736f6c63430008100033",
  "immutableReferences": {},
  "source": "//SPDX-License-Identifier: LGPL-3.0\r\n\r\npragma solidity ^0.8.16;\r\n\r\nimport \"./RahatERC20.sol\";\r\nimport \"../libraries/AbstractERC20Func.sol\";\r\n\r\nimport \"@openzeppelin/contracts/utils/structs/EnumerableSet.sol\";\r\n\r\n/// @title Donor contract to create tokens\r\n/// @author Rumsan Associates\r\n/// @notice You can use this contract to manage Rahat tokens and projects\r\n/// @dev All function calls are only executed by contract owner\r\ncontract RahatDonor is AbstractERC20Func {\r\n  using EnumerableSet for EnumerableSet.AddressSet;\r\n \r\n event TokenCreated(\r\n    address indexed tokenAddress\r\n  );\r\n\r\n  EnumerableSet.AddressSet private tokens;\r\n\r\n  /// @notice All the supply is allocated to this contract\r\n  /// @dev deploys AidToken and Rahat contract by sending supply to this contract\r\n  constructor(\r\n    address _admin\r\n  ) {\r\n    owner[_admin] = true;\r\n  }\r\n\r\n  //#region Token function\r\n  function createToken(string memory _name, string memory _symbol, uint256 _supply, uint8 decimals) public OnlyOwner returns(address) {\r\n    RahatERC20 _token = new RahatERC20(_name, _symbol, address(this), decimals);\r\n    _token.mint(address(this), _supply);\r\n    address _tokenAddress = address(_token);\r\n    tokens.add(_tokenAddress);\r\n    emit TokenCreated(_tokenAddress);\r\n    return _tokenAddress;\r\n  }\r\n\r\n  function mintToken(address _token, uint256 _amount) public OnlyOwner {\r\n    RahatERC20(_token).mint(address(this), _amount);\r\n  }\r\n\r\n  function addTokenOwner(address _token, address _ownerAddress) public OnlyOwner {\r\n    RahatERC20(_token).addOwner(_ownerAddress);\r\n  }\r\n\r\n  //#endregion\r\n\r\n  function listTokens() public view returns(address[] memory){\r\n    return tokens.values();\r\n  }\r\n}\r\n",
  "sourcePath": "S:\\Projects\\rahat\\unicef-np\\rahat-contracts\\src\\contracts\\RahatDonor.sol",
  "compiler": {
    "name": "solc",
    "version": "0.8.16+commit.07a7930e.Emscripten.clang"
  },
  "schemaVersion": "3.4.10",
  "updatedAt": "2022-11-29T18:51:57.969Z",
  "devdoc": {
    "author": "Rumsan Associates",
    "details": "All function calls are only executed by contract owner",
    "kind": "dev",
    "methods": {
      "addOwner(address)": {
        "params": {
          "_account": "address of new owner"
        }
      },
      "constructor": {
        "details": "deploys AidToken and Rahat contract by sending supply to this contract"
      },
      "removeOwner(address)": {
        "params": {
          "_account": "address of existing owner"
        }
      }
    },
    "title": "Donor contract to create tokens",
    "version": 1
  },
  "userdoc": {
    "kind": "user",
    "methods": {
      "addOwner(address)": {
        "notice": "Add an account to the owner role"
      },
      "constructor": {
        "notice": "All the supply is allocated to this contract"
      },
      "removeOwner(address)": {
        "notice": "Remove an account from the owner role"
      }
    },
    "notice": "You can use this contract to manage Rahat tokens and projects",
    "version": 1
  }
}