{
  "contractName": "Rahat",
  "abi": [
    {
      "inputs": [
        {
          "internalType": "contract RahatERC20",
          "name": "_erc20",
          "type": "address"
        },
        {
          "internalType": "contract RahatRegistry",
          "name": "_registry",
          "type": "address"
        },
        {
          "internalType": "contract RahatTriggerResponse",
          "name": "_triggerResponse",
          "type": "address"
        },
        {
          "internalType": "address",
          "name": "_admin",
          "type": "address"
        }
      ],
      "stateMutability": "nonpayable",
      "type": "constructor"
    },
    {
      "anonymous": false,
      "inputs": [
        {
          "indexed": true,
          "internalType": "address",
          "name": "vendor",
          "type": "address"
        },
        {
          "indexed": true,
          "internalType": "uint256",
          "name": "beneficiary",
          "type": "uint256"
        },
        {
          "indexed": false,
          "internalType": "uint256",
          "name": "amount",
          "type": "uint256"
        }
      ],
      "name": "ClaimAcquiredERC20",
      "type": "event"
    },
    {
      "anonymous": false,
      "inputs": [
        {
          "indexed": true,
          "internalType": "address",
          "name": "vendor",
          "type": "address"
        },
        {
          "indexed": true,
          "internalType": "uint256",
          "name": "phone",
          "type": "uint256"
        },
        {
          "indexed": false,
          "internalType": "uint256",
          "name": "amount",
          "type": "uint256"
        }
      ],
      "name": "ClaimApproved",
      "type": "event"
    },
    {
      "anonymous": false,
      "inputs": [
        {
          "indexed": true,
          "internalType": "address",
          "name": "vendor",
          "type": "address"
        },
        {
          "indexed": true,
          "internalType": "uint256",
          "name": "beneficiary",
          "type": "uint256"
        },
        {
          "indexed": false,
          "internalType": "uint256",
          "name": "amount",
          "type": "uint256"
        }
      ],
      "name": "ClaimedERC20",
      "type": "event"
    },
    {
      "anonymous": false,
      "inputs": [
        {
          "indexed": false,
          "internalType": "bytes",
          "name": "signature",
          "type": "bytes"
        },
        {
          "indexed": false,
          "internalType": "bytes32",
          "name": "digest",
          "type": "bytes32"
        },
        {
          "indexed": false,
          "internalType": "address",
          "name": "expectedSigner",
          "type": "address"
        },
        {
          "indexed": false,
          "internalType": "address",
          "name": "recoveredSigner",
          "type": "address"
        }
      ],
      "name": "InvalidSignature",
      "type": "event"
    },
    {
      "anonymous": false,
      "inputs": [
        {
          "indexed": true,
          "internalType": "bytes32",
          "name": "projectId",
          "type": "bytes32"
        },
        {
          "indexed": true,
          "internalType": "uint256",
          "name": "phone",
          "type": "uint256"
        },
        {
          "indexed": false,
          "internalType": "uint256",
          "name": "amount",
          "type": "uint256"
        }
      ],
      "name": "IssuedERC20",
      "type": "event"
    },
    {
      "anonymous": false,
      "inputs": [
        {
          "indexed": true,
          "internalType": "bytes32",
          "name": "role",
          "type": "bytes32"
        },
        {
          "indexed": true,
          "internalType": "bytes32",
          "name": "previousAdminRole",
          "type": "bytes32"
        },
        {
          "indexed": true,
          "internalType": "bytes32",
          "name": "newAdminRole",
          "type": "bytes32"
        }
      ],
      "name": "RoleAdminChanged",
      "type": "event"
    },
    {
      "anonymous": false,
      "inputs": [
        {
          "indexed": true,
          "internalType": "bytes32",
          "name": "role",
          "type": "bytes32"
        },
        {
          "indexed": true,
          "internalType": "address",
          "name": "account",
          "type": "address"
        },
        {
          "indexed": true,
          "internalType": "address",
          "name": "sender",
          "type": "address"
        }
      ],
      "name": "RoleGranted",
      "type": "event"
    },
    {
      "anonymous": false,
      "inputs": [
        {
          "indexed": true,
          "internalType": "bytes32",
          "name": "role",
          "type": "bytes32"
        },
        {
          "indexed": true,
          "internalType": "address",
          "name": "account",
          "type": "address"
        },
        {
          "indexed": true,
          "internalType": "address",
          "name": "sender",
          "type": "address"
        }
      ],
      "name": "RoleRevoked",
      "type": "event"
    },
    {
      "inputs": [],
      "name": "CREATE_CLAIM",
      "outputs": [
        {
          "internalType": "bytes32",
          "name": "",
          "type": "bytes32"
        }
      ],
      "stateMutability": "view",
      "type": "function"
    },
    {
      "inputs": [],
      "name": "DEFAULT_ADMIN_ROLE",
      "outputs": [
        {
          "internalType": "bytes32",
          "name": "",
          "type": "bytes32"
        }
      ],
      "stateMutability": "view",
      "type": "function"
    },
    {
      "inputs": [],
      "name": "GET_TOKENS_FROM_CLAIM",
      "outputs": [
        {
          "internalType": "bytes32",
          "name": "",
          "type": "bytes32"
        }
      ],
      "stateMutability": "view",
      "type": "function"
    },
    {
      "inputs": [],
      "name": "ISSUE_TOKEN",
      "outputs": [
        {
          "internalType": "bytes32",
          "name": "",
          "type": "bytes32"
        }
      ],
      "stateMutability": "view",
      "type": "function"
    },
    {
      "inputs": [],
      "name": "MANAGER_ROLE",
      "outputs": [
        {
          "internalType": "bytes32",
          "name": "",
          "type": "bytes32"
        }
      ],
      "stateMutability": "view",
      "type": "function"
    },
    {
      "inputs": [],
      "name": "MOBILIZER_ROLE",
      "outputs": [
        {
          "internalType": "bytes32",
          "name": "",
          "type": "bytes32"
        }
      ],
      "stateMutability": "view",
      "type": "function"
    },
    {
      "inputs": [],
      "name": "SERVER_ROLE",
      "outputs": [
        {
          "internalType": "bytes32",
          "name": "",
          "type": "bytes32"
        }
      ],
      "stateMutability": "view",
      "type": "function"
    },
    {
      "inputs": [],
      "name": "VENDOR_ROLE",
      "outputs": [
        {
          "internalType": "bytes32",
          "name": "",
          "type": "bytes32"
        }
      ],
      "stateMutability": "view",
      "type": "function"
    },
    {
      "inputs": [
        {
          "internalType": "address",
          "name": "_account",
          "type": "address"
        }
      ],
      "name": "addOwner",
      "outputs": [
        {
          "internalType": "bool",
          "name": "",
          "type": "bool"
        }
      ],
      "stateMutability": "nonpayable",
      "type": "function"
    },
    {
      "inputs": [
        {
          "internalType": "address",
          "name": "_token",
          "type": "address"
        },
        {
          "internalType": "address",
          "name": "_spender",
          "type": "address"
        },
        {
          "internalType": "uint256",
          "name": "_amount",
          "type": "uint256"
        }
      ],
      "name": "approveToken",
      "outputs": [],
      "stateMutability": "nonpayable",
      "type": "function"
    },
    {
      "inputs": [],
      "name": "cashToken",
      "outputs": [
        {
          "internalType": "contract RahatERC20",
          "name": "",
          "type": "address"
        }
      ],
      "stateMutability": "view",
      "type": "function"
    },
    {
      "inputs": [],
      "name": "erc20",
      "outputs": [
        {
          "internalType": "contract RahatERC20",
          "name": "",
          "type": "address"
        }
      ],
      "stateMutability": "view",
      "type": "function"
    },
    {
      "inputs": [
        {
          "internalType": "uint256",
          "name": "",
          "type": "uint256"
        }
      ],
      "name": "erc20Balance",
      "outputs": [
        {
          "internalType": "uint256",
          "name": "",
          "type": "uint256"
        }
      ],
      "stateMutability": "view",
      "type": "function"
    },
    {
      "inputs": [
        {
          "internalType": "uint256",
          "name": "",
          "type": "uint256"
        }
      ],
      "name": "erc20Issued",
      "outputs": [
        {
          "internalType": "uint256",
          "name": "",
          "type": "uint256"
        }
      ],
      "stateMutability": "view",
      "type": "function"
    },
    {
      "inputs": [
        {
          "internalType": "address",
          "name": "",
          "type": "address"
        }
      ],
      "name": "erc20IssuedBy",
      "outputs": [
        {
          "internalType": "uint256",
          "name": "",
          "type": "uint256"
        }
      ],
      "stateMutability": "view",
      "type": "function"
    },
    {
      "inputs": [
        {
          "internalType": "bytes32",
          "name": "role",
          "type": "bytes32"
        }
      ],
      "name": "getRoleAdmin",
      "outputs": [
        {
          "internalType": "bytes32",
          "name": "",
          "type": "bytes32"
        }
      ],
      "stateMutability": "view",
      "type": "function"
    },
    {
      "inputs": [
        {
          "internalType": "bytes32",
          "name": "role",
          "type": "bytes32"
        },
        {
          "internalType": "address",
          "name": "account",
          "type": "address"
        }
      ],
      "name": "grantRole",
      "outputs": [],
      "stateMutability": "nonpayable",
      "type": "function"
    },
    {
      "inputs": [
        {
          "internalType": "bytes32",
          "name": "role",
          "type": "bytes32"
        },
        {
          "internalType": "address",
          "name": "account",
          "type": "address"
        }
      ],
      "name": "hasRole",
      "outputs": [
        {
          "internalType": "bool",
          "name": "",
          "type": "bool"
        }
      ],
      "stateMutability": "view",
      "type": "function"
    },
    {
      "inputs": [
        {
          "internalType": "uint256",
          "name": "",
          "type": "uint256"
        }
      ],
      "name": "isBanked",
      "outputs": [
        {
          "internalType": "bool",
          "name": "",
          "type": "bool"
        }
      ],
      "stateMutability": "view",
      "type": "function"
    },
    {
      "inputs": [],
      "name": "listAdmins",
      "outputs": [
        {
          "internalType": "address[]",
          "name": "",
          "type": "address[]"
        }
      ],
      "stateMutability": "view",
      "type": "function"
    },
    {
      "inputs": [
        {
          "internalType": "bytes[]",
          "name": "data",
          "type": "bytes[]"
        }
      ],
      "name": "multicall",
      "outputs": [
        {
          "internalType": "bytes[]",
          "name": "results",
          "type": "bytes[]"
        }
      ],
      "stateMutability": "nonpayable",
      "type": "function"
    },
    {
      "inputs": [
        {
          "internalType": "address",
          "name": "",
          "type": "address"
        }
      ],
      "name": "nonces",
      "outputs": [
        {
          "internalType": "uint256",
          "name": "",
          "type": "uint256"
        }
      ],
      "stateMutability": "view",
      "type": "function"
    },
    {
      "inputs": [
        {
          "internalType": "address",
          "name": "",
          "type": "address"
        }
      ],
      "name": "owner",
      "outputs": [
        {
          "internalType": "bool",
          "name": "",
          "type": "bool"
        }
      ],
      "stateMutability": "view",
      "type": "function"
    },
    {
      "inputs": [
        {
          "internalType": "address",
          "name": "",
          "type": "address"
        },
        {
          "internalType": "bytes32",
          "name": "",
          "type": "bytes32"
        }
      ],
      "name": "recentERC20Claims",
      "outputs": [
        {
          "internalType": "uint256",
          "name": "amount",
          "type": "uint256"
        },
        {
          "internalType": "bytes32",
          "name": "otpHash",
          "type": "bytes32"
        },
        {
          "internalType": "bool",
          "name": "isReleased",
          "type": "bool"
        },
        {
          "internalType": "uint256",
          "name": "date",
          "type": "uint256"
        }
      ],
      "stateMutability": "view",
      "type": "function"
    },
    {
      "inputs": [],
      "name": "registry",
      "outputs": [
        {
          "internalType": "contract RahatRegistry",
          "name": "",
          "type": "address"
        }
      ],
      "stateMutability": "view",
      "type": "function"
    },
    {
      "inputs": [
        {
          "internalType": "bytes32",
          "name": "",
          "type": "bytes32"
        }
      ],
      "name": "remainingProjectErc20Balances",
      "outputs": [
        {
          "internalType": "uint256",
          "name": "",
          "type": "uint256"
        }
      ],
      "stateMutability": "view",
      "type": "function"
    },
    {
      "inputs": [
        {
          "internalType": "address",
          "name": "_account",
          "type": "address"
        }
      ],
      "name": "removeOwner",
      "outputs": [
        {
          "internalType": "bool",
          "name": "",
          "type": "bool"
        }
      ],
      "stateMutability": "nonpayable",
      "type": "function"
    },
    {
      "inputs": [
        {
          "internalType": "bytes32",
          "name": "role",
          "type": "bytes32"
        },
        {
          "internalType": "address",
          "name": "account",
          "type": "address"
        }
      ],
      "name": "renounceRole",
      "outputs": [],
      "stateMutability": "nonpayable",
      "type": "function"
    },
    {
      "inputs": [
        {
          "internalType": "bytes32",
          "name": "role",
          "type": "bytes32"
        },
        {
          "internalType": "address",
          "name": "account",
          "type": "address"
        }
      ],
      "name": "revokeRole",
      "outputs": [],
      "stateMutability": "nonpayable",
      "type": "function"
    },
    {
      "inputs": [
        {
          "internalType": "bytes32",
          "name": "",
          "type": "bytes32"
        }
      ],
      "name": "totalProjectErc20Issued",
      "outputs": [
        {
          "internalType": "uint256",
          "name": "",
          "type": "uint256"
        }
      ],
      "stateMutability": "view",
      "type": "function"
    },
    {
      "inputs": [
        {
          "internalType": "address",
          "name": "_token",
          "type": "address"
        },
        {
          "internalType": "address",
          "name": "_from",
          "type": "address"
        },
        {
          "internalType": "address",
          "name": "_to",
          "type": "address"
        },
        {
          "internalType": "uint256",
          "name": "_amount",
          "type": "uint256"
        }
      ],
      "name": "transferFromToken",
      "outputs": [],
      "stateMutability": "nonpayable",
      "type": "function"
    },
    {
      "inputs": [
        {
          "internalType": "address",
          "name": "_token",
          "type": "address"
        },
        {
          "internalType": "address",
          "name": "_to",
          "type": "address"
        },
        {
          "internalType": "uint256",
          "name": "_amount",
          "type": "uint256"
        }
      ],
      "name": "transferToken",
      "outputs": [],
      "stateMutability": "nonpayable",
      "type": "function"
    },
    {
      "inputs": [],
      "name": "triggerResponse",
      "outputs": [
        {
          "internalType": "contract RahatTriggerResponse",
          "name": "",
          "type": "address"
        }
      ],
      "stateMutability": "view",
      "type": "function"
    },
    {
      "inputs": [
        {
          "internalType": "bytes4",
          "name": "interfaceId",
          "type": "bytes4"
        }
      ],
      "name": "supportsInterface",
      "outputs": [
        {
          "internalType": "bool",
          "name": "",
          "type": "bool"
        }
      ],
      "stateMutability": "view",
      "type": "function"
    },
    {
      "inputs": [
        {
          "internalType": "address",
          "name": "_account",
          "type": "address"
        }
      ],
      "name": "addAdmin",
      "outputs": [],
      "stateMutability": "nonpayable",
      "type": "function"
    },
    {
      "inputs": [
        {
          "internalType": "address",
          "name": "_account",
          "type": "address"
        }
      ],
      "name": "isAdmin",
      "outputs": [
        {
          "internalType": "bool",
          "name": "",
          "type": "bool"
        }
      ],
      "stateMutability": "view",
      "type": "function"
    },
    {
      "inputs": [
        {
          "internalType": "address",
          "name": "_account",
          "type": "address"
        }
      ],
      "name": "addServer",
      "outputs": [],
      "stateMutability": "nonpayable",
      "type": "function"
    },
    {
      "inputs": [
        {
          "internalType": "address",
          "name": "_account",
          "type": "address"
        }
      ],
      "name": "addVendor",
      "outputs": [
        {
          "internalType": "address",
          "name": "",
          "type": "address"
        }
      ],
      "stateMutability": "nonpayable",
      "type": "function"
    },
    {
      "inputs": [
        {
          "internalType": "address",
          "name": "_account",
          "type": "address"
        }
      ],
      "name": "isVendor",
      "outputs": [
        {
          "internalType": "bool",
          "name": "",
          "type": "bool"
        }
      ],
      "stateMutability": "view",
      "type": "function"
    },
    {
      "inputs": [
        {
          "internalType": "address",
          "name": "_account",
          "type": "address"
        },
        {
          "internalType": "string",
          "name": "_projectId",
          "type": "string"
        }
      ],
      "name": "addMobilizer",
      "outputs": [],
      "stateMutability": "nonpayable",
      "type": "function"
    },
    {
      "inputs": [
        {
          "internalType": "uint256",
          "name": "_phone",
          "type": "uint256"
        },
        {
          "internalType": "bool",
          "name": "_isBanked",
          "type": "bool"
        }
      ],
      "name": "setAsBankedBeneficiary",
      "outputs": [],
      "stateMutability": "nonpayable",
      "type": "function"
    },
    {
      "inputs": [
        {
          "internalType": "uint256",
          "name": "_phone",
          "type": "uint256"
        },
        {
          "internalType": "bytes32",
          "name": "_projectId",
          "type": "bytes32"
        }
      ],
      "name": "suspendBeneficiary",
      "outputs": [],
      "stateMutability": "nonpayable",
      "type": "function"
    },
    {
      "inputs": [
        {
          "internalType": "bytes32",
          "name": "_projectId",
          "type": "bytes32"
        },
        {
          "internalType": "uint256",
          "name": "_projectCapital",
          "type": "uint256"
        }
      ],
      "name": "updateProjectBudget",
      "outputs": [],
      "stateMutability": "nonpayable",
      "type": "function"
    },
    {
      "inputs": [
        {
          "internalType": "bytes32",
          "name": "_projectId",
          "type": "bytes32"
        }
      ],
      "name": "getProjectBalance",
      "outputs": [
        {
          "internalType": "uint256",
          "name": "_balance",
          "type": "uint256"
        }
      ],
      "stateMutability": "view",
      "type": "function"
    },
    {
      "inputs": [
        {
          "internalType": "string",
          "name": "_projectId",
          "type": "string"
        },
        {
          "internalType": "uint256",
          "name": "_phone",
          "type": "uint256"
        },
        {
          "internalType": "uint256",
          "name": "_amount",
          "type": "uint256"
        }
      ],
      "name": "issueERC20ToBeneficiary",
      "outputs": [],
      "stateMutability": "nonpayable",
      "type": "function"
    },
    {
      "inputs": [
        {
          "internalType": "uint256",
          "name": "_phone",
          "type": "uint256"
        },
        {
          "internalType": "uint256",
          "name": "_tokens",
          "type": "uint256"
        }
      ],
      "name": "createERC20Claim",
      "outputs": [],
      "stateMutability": "nonpayable",
      "type": "function"
    },
    {
      "inputs": [
        {
          "internalType": "address",
          "name": "_vendor",
          "type": "address"
        },
        {
          "internalType": "uint256",
          "name": "_phone",
          "type": "uint256"
        },
        {
          "internalType": "bytes32",
          "name": "_otpHash",
          "type": "bytes32"
        },
        {
          "internalType": "uint256",
          "name": "_timeToLive",
          "type": "uint256"
        }
      ],
      "name": "approveERC20Claim",
      "outputs": [],
      "stateMutability": "nonpayable",
      "type": "function"
    },
    {
      "inputs": [
        {
          "internalType": "uint256",
          "name": "_phone",
          "type": "uint256"
        },
        {
          "internalType": "string",
          "name": "_otp",
          "type": "string"
        }
      ],
      "name": "getERC20FromClaim",
      "outputs": [],
      "stateMutability": "nonpayable",
      "type": "function"
    },
    {
      "inputs": [
        {
          "internalType": "uint256",
          "name": "_phone",
          "type": "uint256"
        },
        {
          "internalType": "address",
          "name": "_vendorAddress",
          "type": "address"
        },
        {
          "internalType": "uint256",
          "name": "_amount",
          "type": "uint256"
        }
      ],
      "name": "transferTokenToVendorByAdmin",
      "outputs": [],
      "stateMutability": "nonpayable",
      "type": "function"
    },
    {
      "inputs": [
        {
          "internalType": "address",
          "name": "_vendorAddress",
          "type": "address"
        },
        {
          "internalType": "uint256",
          "name": "_amount",
          "type": "uint256"
        }
      ],
      "name": "transferCashToVendor",
      "outputs": [],
      "stateMutability": "nonpayable",
      "type": "function"
    },
    {
      "inputs": [
        {
          "internalType": "address",
          "name": "_token",
          "type": "address"
        },
        {
          "internalType": "address",
          "name": "_from",
          "type": "address"
        },
        {
          "internalType": "uint256",
          "name": "_amount",
          "type": "uint256"
        }
      ],
      "name": "claimToken",
      "outputs": [],
      "stateMutability": "nonpayable",
      "type": "function"
    },
    {
      "inputs": [
        {
          "internalType": "uint256",
          "name": "_data",
          "type": "uint256"
        }
      ],
      "name": "findHash",
      "outputs": [
        {
          "internalType": "bytes32",
          "name": "",
          "type": "bytes32"
        }
      ],
      "stateMutability": "pure",
      "type": "function"
    },
    {
      "inputs": [
        {
          "internalType": "string",
          "name": "_data",
          "type": "string"
        }
      ],
      "name": "findHash",
      "outputs": [
        {
          "internalType": "bytes32",
          "name": "",
          "type": "bytes32"
        }
      ],
      "stateMutability": "pure",
      "type": "function"
    },
    {
      "inputs": [
        {
          "internalType": "address",
          "name": "_data",
          "type": "address"
        }
      ],
      "name": "findHash",
      "outputs": [
        {
          "internalType": "bytes32",
          "name": "",
          "type": "bytes32"
        }
      ],
      "stateMutability": "pure",
      "type": "function"
    },
    {
      "inputs": [
        {
          "internalType": "uint256[]",
          "name": "_array",
          "type": "uint256[]"
        }
      ],
      "name": "getArraySum",
      "outputs": [
        {
          "internalType": "uint256",
          "name": "sum",
          "type": "uint256"
        }
      ],
      "stateMutability": "pure",
      "type": "function"
    }
  ],
  "bytecode": "0x60806040523480156200001157600080fd5b5060405162004650380380620046508339810160408190526200003491620004b4565b6200004160003362000112565b6200004e60008262000112565b6200006a60008051602062004630833981519152600062000122565b620000977f0aaf57387812c7f832412470a57567b5648a930069be49aa9c98d04f88520d34600062000122565b620000b260008051602062004630833981519152336200016d565b600580546001600160a01b03199081166001600160a01b0396871617909155600780548216948616949094179093556008805490931691841691909117909155166000908152600360205260409020805460ff1916600117905562000684565b6200011e82826200019c565b5050565b600082815260208190526040808220600101805490849055905190918391839186917fbd79b86ffe0ab8e8776151514217cd7cacd52c909f66475c3af44e129f0b00ff9190a4505050565b6000828152602081905260409020600101546200018b813362000224565b6200019783836200019c565b505050565b620001a88282620002b0565b6200011e576000828152602081815260408083206001600160a01b03851684529091529020805460ff19166001179055620001e03390565b6001600160a01b0316816001600160a01b0316837f2f8788117e7eff1d82e926ec794901d17c78024a50270940304540a733656f0d60405160405180910390a45050565b620002308282620002b0565b6200011e5762000256816001600160a01b03166014620002db60201b620021f61760201c565b6200026c836020620021f6620002db821b17811c565b6040516020016200027f92919062000542565b60408051601f198184030181529082905262461bcd60e51b8252620002a791600401620005bb565b60405180910390fd5b6000828152602081815260408083206001600160a01b038516845290915290205460ff165b92915050565b60606000620002ec83600262000606565b620002f990600262000628565b6001600160401b038111156200031357620003136200063e565b6040519080825280601f01601f1916602001820160405280156200033e576020820181803683370190505b509050600360fc1b816000815181106200035c576200035c62000654565b60200101906001600160f81b031916908160001a905350600f60fb1b816001815181106200038e576200038e62000654565b60200101906001600160f81b031916908160001a9053506000620003b484600262000606565b620003c190600162000628565b90505b600181111562000443576f181899199a1a9b1b9c1cb0b131b232b360811b85600f1660108110620003f957620003f962000654565b1a60f81b82828151811062000412576200041262000654565b60200101906001600160f81b031916908160001a90535060049490941c936200043b816200066a565b9050620003c4565b508315620004945760405162461bcd60e51b815260206004820181905260248201527f537472696e67733a20686578206c656e67746820696e73756666696369656e746044820152606401620002a7565b9392505050565b6001600160a01b0381168114620004b157600080fd5b50565b60008060008060808587031215620004cb57600080fd5b8451620004d8816200049b565b6020860151909450620004eb816200049b565b6040860151909350620004fe816200049b565b606086015190925062000511816200049b565b939692955090935050565b60005b83811015620005395781810151838201526020016200051f565b50506000910152565b7f416363657373436f6e74726f6c3a206163636f756e74200000000000000000008152600083516200057c8160178501602088016200051c565b7001034b99036b4b9b9b4b733903937b6329607d1b6017918401918201528351620005af8160288401602088016200051c565b01602801949350505050565b6020815260008251806020840152620005dc8160408501602087016200051c565b601f01601f19169190910160400192915050565b634e487b7160e01b600052601160045260246000fd5b6000816000190483118215151615620006235762000623620005f0565b500290565b80820180821115620002d557620002d5620005f0565b634e487b7160e01b600052604160045260246000fd5b634e487b7160e01b600052603260045260246000fd5b6000816200067c576200067c620005f0565b506000190190565b613f9c80620006946000396000f3fe60806040523480156200001157600080fd5b5060043610620002e95760003560e01c8063704802751162000193578063a217fddf11620000e6578063a217fddf1462000782578063a591afbe146200078b578063a722468714620007a4578063ac9650d814620007b8578063c0d955d614620007de578063cf784eda14620007f5578063d1e671671462000818578063d547741f1462000888578063da3e3397146200089f578063eaad46f514620008b6578063ec87621c14620008cd578063ee54d54f14620008f5578063f5537ede146200090c578063fb3c0d70146200092357600080fd5b806370480275146200060c5780637065cb48146200062357806370c75107146200063a578063785e9e8614620006515780637b10399914620006655780637ecebe00146200067957806388257567146200069c5780638bbab5c714620006b35780638d846f2c14620006db57806391d1485414620006fe578063920fd1781462000715578063926a694d146200072c57806394343cd214620007435780639ea69350146200076b57600080fd5b80632f2ff15d116200024c5780632f2ff15d14620004775780633098b74b146200048e578063351c3d0b14620004a557806336568abe14620004c857806337d027b814620004df5780633fc16810146200050257806345e0f7531462000519578063494101ff14620005305780634c91b44e1462000547578063546fcaa4146200056f5780635cbd99d4146200058657806364a2f7d9146200059d578063666e1b3914620005c35780636e90549614620005e957600080fd5b806301ffc9a714620002ee578063055ee070146200031a578063125bfb66146200034c578063173825d9146200036557806318cf2834146200037c578063237c9db314620003935780632384e10514620003b6578063248a9ca314620003de57806324d7806c146200040457806327fa7a20146200041b57806329312a9c14620004325780632aef0c3014620004495780632d41d5591462000460575b600080fd5b62000305620002ff36600462002c4e565b6200093a565b60405190151581526020015b60405180910390f35b6200033d6200032b36600462002c7a565b60096020526000908152604090205481565b60405190815260200162000311565b620003636200035d36600462002caa565b6200094d565b005b620003056200037636600462002cf0565b620009c7565b6200033d60008051602062003f2083398151915281565b6200033d620003a436600462002cf0565b60126020526000908152604090205481565b6200033d7fcfa8166f1bb1b8818c3767a9ffd776afbbe3409a468070bb860831e01b56549981565b6200033d620003ef36600462002c7a565b60009081526020819052604090206001015490565b620003056200041536600462002cf0565b62000a2f565b620003636200042c36600462002dcf565b62000a3d565b620003636200044336600462002e19565b62000d10565b620003636200045a36600462002e48565b62000efb565b620003636200047136600462002e6b565b62000fdd565b620003636200048836600462002ea9565b620012dd565b6200033d6200049f36600462002edc565b62001307565b6200033d620004b636600462002c7a565b600a6020526000908152604090205481565b62000363620004d936600462002ea9565b6200135c565b600854620004f3906001600160a01b031681565b60405162000311919062002f8c565b620003636200051336600462002faf565b620013de565b620004f36200052a36600462002cf0565b6200142a565b6200033d6200054136600462002c7a565b620015b6565b6200033d7fbe9e90431f28bd12a87a51b26b014cab620a8a4819bf73d87369ccbe6800a76c81565b620003636200058036600462002fd7565b620015f2565b620003636200059736600462002cf0565b620017a2565b62000305620005ae36600462002c7a565b600b6020526000908152604090205460ff1681565b62000305620005d436600462002cf0565b60036020526000908152604090205460ff1681565b6200033d620005fa36600462002c7a565b600e6020526000908152604090205481565b620003636200061d36600462002cf0565b620017ec565b620003056200063436600462002cf0565b62001849565b6200033d6200064b36600462003001565b620018ad565b600554620004f3906001600160a01b031681565b600754620004f3906001600160a01b031681565b6200033d6200068a36600462002cf0565b60046020526000908152604090205481565b62000363620006ad36600462002e48565b620018c2565b6200033d7f043620c1e1c33ecf60d9dadc62571b96554338b68ef3636e715e52a286bea92e81565b6200033d620006ec36600462002c7a565b600f6020526000908152604090205481565b620003056200070f36600462002ea9565b62001910565b6200033d6200072636600462002cf0565b62001939565b6200033d60008051602062003f0083398151915281565b6200033d7f8ff5d84bbad5f252f2ee1916646e221e55645205d2f803ebe6a7d6ba8fa4185d81565b620003636200077c36600462002e48565b6200195c565b6200033d600081565b6200079562001c33565b60405162000311919062003039565b600654620004f3906001600160a01b031681565b620007cf620007c936600462003088565b62001c46565b60405162000311919062003155565b62000363620007ef366004620031bb565b62001d4d565b6200033d6200080636600462002c7a565b6000908152600f602052604090205490565b620008616200082936600462002e19565b601360209081526000928352604080842090915290825290208054600182015460028301546003909301549192909160ff9091169084565b60408051948552602085019390935290151591830191909152606082015260800162000311565b620003636200089936600462002ea9565b62001f6d565b62000363620008b036600462002caa565b62001f97565b62000363620008c73660046200320c565b62002045565b6200033d7faf290d8680820aad922855f39b306097b20e28774d6c1ad35a20325630c3a02c81565b620003056200090636600462002cf0565b620020c6565b620003636200091d36600462002caa565b620020e3565b620003636200093436600462003249565b62002145565b60006200094782620023b6565b92915050565b3360009081526003602052604090205460ff16620009885760405162461bcd60e51b81526004016200097f90620032a1565b60405180910390fd5b6006546001600160a01b0316620009b557600680546001600160a01b0319166001600160a01b0385161790555b620009c2838383620023ed565b505050565b3360009081526003602052604081205460ff16620009f95760405162461bcd60e51b81526004016200097f90620032a1565b6001600160a01b0382166000908152600360205260409020805460ff1916905562000a2660018362002451565b50600192915050565b600062000947818362001910565b81600062000a4b82620015b6565b6000838152600a60205260408120549192500362000a7d5760405162461bcd60e51b81526004016200097f90620032e8565b62000a9860008051602062003f008339815191523362001910565b62000ab75760405162461bcd60e51b81526004016200097f9062003335565b600062000ac485620015b6565b336000908152601360209081526040808320848452909152902060028101549192509060ff1662000b445760405162461bcd60e51b815260206004820152602360248201527f52414841543a20436c61696d20686173206e6f74206265656e2072656c65617360448201526232b21760e91b60648201526084016200097f565b428160030154101562000ba45760405162461bcd60e51b815260206004820152602160248201527f52414841543a20436c61696d2068617320616c726561647920657870697265646044820152601760f91b60648201526084016200097f565b600062000bb186620018ad565b336000908152601360209081526040808320878452909152902060010154909150811462000c1e5760405162461bcd60e51b81526020600482015260196024820152782920a420aa1d1027aa28103234b2103737ba1036b0ba31b41760391b60448201526064016200097f565b62000c2e87836000015462002468565b815460028301805460ff191690556000808455600384015560055460405163a9059cbb60e01b81526001600160a01b039091169063a9059cbb9062000c7a90339085906004016200337f565b6020604051808303816000875af115801562000c9a573d6000803e3d6000fd5b505050506040513d601f19601f8201168201806040525081019062000cc0919062003398565b5062000cce338983620024dc565b604051818152889033907fe4de809bf00bba73c562150b76ba81e5af05183458342bfdb09a7c9e303813e5906020015b60405180910390a35050505050505050565b62000d1d60003362001910565b62000d3c5760405162461bcd60e51b81526004016200097f90620033b8565b6007546001600160a01b03166338a699a462000d588462001939565b6040518263ffffffff1660e01b815260040162000d7791815260200190565b602060405180830381865afa15801562000d95573d6000803e3d6000fd5b505050506040513d601f19601f8201168201806040525081019062000dbb919062003398565b62000e095760405162461bcd60e51b815260206004820152601d60248201527f76656e646f722077616c6c6574206e6f7420726567697374657265642e00000060448201526064016200097f565b6006546007546001600160a01b039182169163095ea7b3911663bde87f2e62000e328662001939565b6040518263ffffffff1660e01b815260040162000e5191815260200190565b602060405180830381865afa15801562000e6f573d6000803e3d6000fd5b505050506040513d601f19601f8201168201806040525081019062000e959190620033ef565b836040518363ffffffff1660e01b815260040162000eb59291906200337f565b6020604051808303816000875af115801562000ed5573d6000803e3d6000fd5b505050506040513d601f19601f82011682018060405250810190620009c2919062003398565b62000f0860003362001910565b62000f275760405162461bcd60e51b81526004016200097f90620033b8565b81600062000f3582620015b6565b6000838152600a60205260408120549192500362000f675760405162461bcd60e51b81526004016200097f90620032e8565b6000848152600a6020908152604080832054868452600f909252822080549192839262000f9690849062003425565b90915550506000858152600a60209081526040808320839055600990915290205462000fc49082906200343b565b6000958652600960205260409095209490945550505050565b82600062000feb82620015b6565b6000838152600a6020526040812054919250036200101d5760405162461bcd60e51b81526004016200097f90620032e8565b6200103860008051602062003f208339815191523362001910565b620010995760405162461bcd60e51b815260206004820152602a60248201527f52414841543a2053656e646572206d75737420626520616e20617574686f72696044820152693d32b21039b2b93b32b960b11b60648201526084016200097f565b6000620010a686620015b6565b6001600160a01b038816600090815260136020908152604080832084845290915281206003810154929350919003620011305760405162461bcd60e51b815260206004820152602560248201527f52414841543a20436c61696d20686173206e6f74206265656e2063726561746560448201526419081e595d60da1b60648201526084016200097f565b620151808511156200119d5760405162461bcd60e51b815260206004820152602f60248201527f52414841543a54696d6520546f204c6976652073686f756c64206265206c657360448201526e73207468616e20323420686f75727360881b60648201526084016200097f565b6003810154620011b1906201518062003425565b4211156200120e5760405162461bcd60e51b815260206004820152602360248201527f52414841543a20436c61696d206973206f6c646572207468616e20323420686f60448201526275727360e81b60648201526084016200097f565b600281015460ff1615620012755760405162461bcd60e51b815260206004820152602760248201527f52414841543a20436c61696d2068617320616c7265616479206265656e2072656044820152663632b0b9b2b21760c91b60648201526084016200097f565b600180820187905560028201805460ff1916909117905562001298854262003425565b6003820155805460405190815287906001600160a01b038a16907f05ca75b0d90f1dd046ad3b8c1ec4a461042c3d33518b9b67d9feafc7d8d3c6cf9060200162000cfe565b600082815260208190526040902060010154620012fb81336200264b565b620009c28383620026ba565b6000805b825181101562001356578281815181106200132a576200132a62003451565b6020026020010151826200133f919062003425565b9150806200134d8162003467565b9150506200130b565b50919050565b6001600160a01b0381163314620013ce5760405162461bcd60e51b815260206004820152602f60248201527f416363657373436f6e74726f6c3a2063616e206f6e6c792072656e6f756e636560448201526e103937b632b9903337b91039b2b63360891b60648201526084016200097f565b620013da828262002742565b5050565b620013eb60003362001910565b6200140a5760405162461bcd60e51b81526004016200097f90620033b8565b6000918252600b6020526040909120805460ff1916911515919091179055565b600062001438813362001910565b620014575760405162461bcd60e51b81526004016200097f90620033b8565b600030604051620014689062002c40565b62001474919062002f8c565b604051809103906000f08015801562001491573d6000803e3d6000fd5b50604051630e0cb96960e31b81529091506001600160a01b03821690637065cb4890620014c390869060040162002f8c565b6020604051808303816000875af1158015620014e3573d6000803e3d6000fd5b505050506040513d601f19601f8201168201806040525081019062001509919062003398565b506007546001600160a01b031663b3fd13a9620015268562001939565b6040516001600160e01b031960e084901b16815260048101919091526001600160a01b03841660248201526044016020604051808303816000875af115801562001574573d6000803e3d6000fd5b505050506040513d601f19601f820116820180604052508101906200159a919062003398565b506200094760008051602062003f0083398151915284620012dd565b6000620015c382620027aa565b604051602001620015d5919062003483565b604051602081830303815290604052805190602001209050919050565b8260006200160082620015b6565b6000838152600a602052604081205491925003620016325760405162461bcd60e51b81526004016200097f90620032e8565b6200163f60003362001910565b6200165e5760405162461bcd60e51b81526004016200097f90620033b8565b6200166984620020c6565b620016c25760405162461bcd60e51b815260206004820152602260248201527f5472616e7366657220746f206d7573742062652076656e646f72206164647265604482015261737360f01b60648201526084016200097f565b620016ce858462002468565b620016db848685620024dc565b60055460405163a9059cbb60e01b81526001600160a01b039091169063a9059cbb906200170f90879087906004016200337f565b6020604051808303816000875af11580156200172f573d6000803e3d6000fd5b505050506040513d601f19601f8201168201806040525081019062001755919062003398565b5084846001600160a01b03167fe4de809bf00bba73c562150b76ba81e5af05183458342bfdb09a7c9e303813e5856040516200179391815260200190565b60405180910390a35050505050565b620017af60003362001910565b620017ce5760405162461bcd60e51b81526004016200097f90620033b8565b620017e960008051602062003f2083398151915282620012dd565b50565b620017f960003362001910565b620018185760405162461bcd60e51b81526004016200097f90620033b8565b62001825600082620012dd565b6001600160a01b03166000908152600360205260409020805460ff19166001179055565b3360009081526003602052604081205460ff166200187b5760405162461bcd60e51b81526004016200097f90620032a1565b6001600160a01b0382166000908152600360205260409020805460ff1916600190811790915562000a269083620028ca565b600081604051602001620015d5919062003483565b6000828152600f602052604081208054839290620018e290849062003425565b90915550506000828152600e6020526040812080548392906200190790849062003425565b90915550505050565b6000918252602082815260408084206001600160a01b0393909316845291905290205460ff1690565b6040516001600160601b0319606083901b166020820152600090603401620015d5565b8160006200196a82620015b6565b6000838152600a6020526040812054919250036200199c5760405162461bcd60e51b81526004016200097f90620032e8565b620019b760008051602062003f008339815191523362001910565b620019d65760405162461bcd60e51b81526004016200097f9062003335565b600860009054906101000a90046001600160a01b03166001600160a01b031663b8f7a6656040518163ffffffff1660e01b8152600401602060405180830381865afa15801562001a2a573d6000803e3d6000fd5b505050506040513d601f19601f8201168201806040525081019062001a50919062003398565b62001ac45760405162461bcd60e51b815260206004820152603f60248201527f5468697320726573706f6e736520686173206e6f74206265656e20616374697660448201527f61746564207965742c20706c6561736520636f6e746163742061646d696e2e0060648201526084016200097f565b6000848152600b602052604090205460ff161562001b315760405162461bcd60e51b8152602060048201526024808201527f43616e6e6f7420636c61696d2066726f6d2062616e6b65642062656e656669636044820152636961727960e01b60648201526084016200097f565b600062001b3e85620015b6565b6000868152600a602052604090205490915084111562001bc75760405162461bcd60e51b815260206004820152603c60248201527f52414841543a20416d6f756e742072657175657374656420697320677265617460448201527f6572207468616e2062656e65666963696172792062616c616e63652e0000000060648201526084016200097f565b33600090815260136020908152604080832084845282529182902060028101805460ff191690558681554260038201559151868152879132917f79ef0b2282f5e45718748b37d5a89727c1544ad2f78b126efa97c32ac1f1d232910160405180910390a3505050505050565b606062001c416001620028e1565b905090565b6060816001600160401b0381111562001c635762001c6362002d10565b60405190808252806020026020018201604052801562001c9857816020015b606081526020019060019003908162001c825790505b50905060005b8281101562001d465762001d103085858481811062001cc15762001cc162003451565b905060200281019062001cd59190620034a1565b8080601f016020809104026020016040519081016040528093929190818152602001838380828437600092019190915250620028f092505050565b82828151811062001d255762001d2562003451565b6020026020010181905250808062001d3d9062003467565b91505062001c9e565b5092915050565b62001d5a60003362001910565b62001d795760405162461bcd60e51b81526004016200097f90620033b8565b600062001d8684620018ad565b6007549091506001600160a01b03166338a699a462001da585620015b6565b6040518263ffffffff1660e01b815260040162001dc491815260200190565b602060405180830381865afa15801562001de2573d6000803e3d6000fd5b505050506040513d601f19601f8201168201806040525081019062001e08919062003398565b62001e545760405162461bcd60e51b815260206004820152601b60248201527a2132b732b334b1b4b0b93c903737ba103932b3b4b9ba32b932b21760291b60448201526064016200097f565b336000908152601260205260408120805484929062001e7590849062003425565b90915550506000818152600f602052604090205482111562001ef95760405162461bcd60e51b815260206004820152603660248201527f52414841543a20416d6f756e742069732067726561746572207468616e2072656044820152751b585a5b9a5b99c8141c9bda9958dd08109d5919d95d60521b60648201526084016200097f565b6000818152600f60205260408120805484929062001f199084906200343b565b9091555062001f2b9050838362002918565b82817f707197b34e0edb88707154f8a8ea9f3c8d891eb60a28dac25cc79bf23c3aa5c18460405162001f5f91815260200190565b60405180910390a350505050565b60008281526020819052604090206001015462001f8b81336200264b565b620009c2838362002742565b3360009081526003602052604090205460ff1662001fc95760405162461bcd60e51b81526004016200097f90620032a1565b60405163095ea7b360e01b81526001600160a01b0384169063095ea7b39062001ff990859085906004016200337f565b6020604051808303816000875af115801562002019573d6000803e3d6000fd5b505050506040513d601f19601f820116820180604052508101906200203f919062003398565b50505050565b6200205260003362001910565b620020715760405162461bcd60e51b81526004016200097f90620033b8565b60006200207e82620018ad565b9050620020ac7fbe9e90431f28bd12a87a51b26b014cab620a8a4819bf73d87369ccbe6800a76c84620012dd565b60008181526010602052604090206200203f9084620028ca565b60006200094760008051602062003f008339815191528362001910565b3360009081526003602052604090205460ff16620021155760405162461bcd60e51b81526004016200097f90620032a1565b60405163a9059cbb60e01b81526001600160a01b0384169063a9059cbb9062001ff990859085906004016200337f565b3360009081526003602052604090205460ff16620021775760405162461bcd60e51b81526004016200097f90620032a1565b6040516323b872dd60e01b81526001600160a01b038516906323b872dd90620021a990869086908690600401620034f1565b6020604051808303816000875af1158015620021c9573d6000803e3d6000fd5b505050506040513d601f19601f82011682018060405250810190620021ef919062003398565b5050505050565b606060006200220783600262003515565b6200221490600262003425565b6001600160401b038111156200222e576200222e62002d10565b6040519080825280601f01601f19166020018201604052801562002259576020820181803683370190505b509050600360fc1b8160008151811062002277576200227762003451565b60200101906001600160f81b031916908160001a905350600f60fb1b81600181518110620022a957620022a962003451565b60200101906001600160f81b031916908160001a9053506000620022cf84600262003515565b620022dc90600162003425565b90505b60018111156200235e576f181899199a1a9b1b9c1cb0b131b232b360811b85600f166010811062002314576200231462003451565b1a60f81b8282815181106200232d576200232d62003451565b60200101906001600160f81b031916908160001a90535060049490941c93620023568162003537565b9050620022df565b508315620023af5760405162461bcd60e51b815260206004820181905260248201527f537472696e67733a20686578206c656e67746820696e73756666696369656e7460448201526064016200097f565b9392505050565b60006001600160e01b03198216637965db0b60e01b14806200094757506301ffc9a760e01b6001600160e01b031983161462000947565b3360009081526003602052604090205460ff166200241f5760405162461bcd60e51b81526004016200097f90620032a1565b6040516323b872dd60e01b81526001600160a01b038416906323b872dd9062001ff990859030908690600401620034f1565b6000620023af836001600160a01b03841662002972565b8160006200247682620015b6565b6000838152600a602052604081205491925003620024a85760405162461bcd60e51b81526004016200097f90620032e8565b6000848152600a6020526040902054620024c49084906200343b565b6000948552600a602052604090942093909355505050565b6007546000906001600160a01b031663bde87f2e620024fb8662001939565b6040518263ffffffff1660e01b81526004016200251a91815260200190565b602060405180830381865afa15801562002538573d6000803e3d6000fd5b505050506040513d601f19601f820116820180604052508101906200255e9190620033ef565b6006546007549192506001600160a01b038084169263f5537ede928216911663bde87f2e6200258d88620015b6565b6040518263ffffffff1660e01b8152600401620025ac91815260200190565b602060405180830381865afa158015620025ca573d6000803e3d6000fd5b505050506040513d601f19601f82011682018060405250810190620025f09190620033ef565b856040518463ffffffff1660e01b81526004016200261193929190620034f1565b600060405180830381600087803b1580156200262c57600080fd5b505af115801562002641573d6000803e3d6000fd5b5050505050505050565b62002657828262001910565b620013da5762002672816001600160a01b03166014620021f6565b6200267f836020620021f6565b6040516020016200269292919062003551565b60408051601f198184030181529082905262461bcd60e51b82526200097f91600401620035c4565b620026c6828262001910565b620013da576000828152602081815260408083206001600160a01b03851684529091529020805460ff19166001179055620026fe3390565b6001600160a01b0316816001600160a01b0316837f2f8788117e7eff1d82e926ec794901d17c78024a50270940304540a733656f0d60405160405180910390a45050565b6200274e828262001910565b15620013da576000828152602081815260408083206001600160a01b0385168085529252808320805460ff1916905551339285917ff6391f5c32d9c69d2a47ea670b442974b53935d1edc7fd64eb21e047a839171b9190a45050565b606081600003620027d25750506040805180820190915260018152600360fc1b602082015290565b8160005b8115620028025780620027e98162003467565b9150620027fa9050600a83620035ef565b9150620027d6565b6000816001600160401b038111156200281f576200281f62002d10565b6040519080825280601f01601f1916602001820160405280156200284a576020820181803683370190505b5090505b8415620028c257620028626001836200343b565b915062002871600a8662003606565b6200287e90603062003425565b60f81b81838151811062002896576200289662003451565b60200101906001600160f81b031916908160001a905350620028ba600a86620035ef565b94506200284e565b949350505050565b6000620023af836001600160a01b03841662002a76565b60606000620023af8362002ac8565b6060620023af838360405180606001604052806027815260200162003f406027913962002b26565b6000828152600a60205260409020546200293490829062003425565b6000838152600a60209081526040808320939093556009905220546200295c90829062003425565b6000928352600960205260409092209190915550565b6000818152600183016020526040812054801562002a6b576000620029996001836200343b565b8554909150600090620029af906001906200343b565b905081811462002a1b576000866000018281548110620029d357620029d362003451565b9060005260206000200154905080876000018481548110620029f957620029f962003451565b6000918252602080832090910192909255918252600188019052604090208390555b855486908062002a2f5762002a2f6200361d565b60019003818190600052602060002001600090559055856001016000868152602001908152602001600020600090556001935050505062000947565b600091505062000947565b600081815260018301602052604081205462002abf5750815460018181018455600084815260208082209093018490558454848252828601909352604090209190915562000947565b50600062000947565b60608160000180548060200260200160405190810160405280929190818152602001828054801562002b1a57602002820191906000526020600020905b81548152602001906001019080831162002b05575b50505050509050919050565b6060833b62002b875760405162461bcd60e51b815260206004820152602660248201527f416464726573733a2064656c65676174652063616c6c20746f206e6f6e2d636f6044820152651b9d1c9858dd60d21b60648201526084016200097f565b600080856001600160a01b03168560405162002ba4919062003483565b600060405180830381855af49150503d806000811462002be1576040519150601f19603f3d011682016040523d82523d6000602084013e62002be6565b606091505b509150915062002bf882828662002c02565b9695505050505050565b6060831562002c13575081620023af565b82511562002c245782518084602001fd5b8160405162461bcd60e51b81526004016200097f9190620035c4565b6108cc806200363483390190565b60006020828403121562002c6157600080fd5b81356001600160e01b031981168114620023af57600080fd5b60006020828403121562002c8d57600080fd5b5035919050565b6001600160a01b0381168114620017e957600080fd5b60008060006060848603121562002cc057600080fd5b833562002ccd8162002c94565b9250602084013562002cdf8162002c94565b929592945050506040919091013590565b60006020828403121562002d0357600080fd5b8135620023af8162002c94565b634e487b7160e01b600052604160045260246000fd5b604051601f8201601f191681016001600160401b038111828210171562002d515762002d5162002d10565b604052919050565b600082601f83011262002d6b57600080fd5b81356001600160401b0381111562002d875762002d8762002d10565b62002d9c601f8201601f191660200162002d26565b81815284602083860101111562002db257600080fd5b816020850160208301376000918101602001919091529392505050565b6000806040838503121562002de357600080fd5b8235915060208301356001600160401b0381111562002e0157600080fd5b62002e0f8582860162002d59565b9150509250929050565b6000806040838503121562002e2d57600080fd5b823562002e3a8162002c94565b946020939093013593505050565b6000806040838503121562002e5c57600080fd5b50508035926020909101359150565b6000806000806080858703121562002e8257600080fd5b843562002e8f8162002c94565b966020860135965060408601359560600135945092505050565b6000806040838503121562002ebd57600080fd5b82359150602083013562002ed18162002c94565b809150509250929050565b6000602080838503121562002ef057600080fd5b82356001600160401b038082111562002f0857600080fd5b818501915085601f83011262002f1d57600080fd5b81358181111562002f325762002f3262002d10565b8060051b915062002f4584830162002d26565b818152918301840191848101908884111562002f6057600080fd5b938501935b8385101562002f805784358252938501939085019062002f65565b98975050505050505050565b6001600160a01b0391909116815260200190565b8015158114620017e957600080fd5b6000806040838503121562002fc357600080fd5b82359150602083013562002ed18162002fa0565b60008060006060848603121562002fed57600080fd5b83359250602084013562002cdf8162002c94565b6000602082840312156200301457600080fd5b81356001600160401b038111156200302b57600080fd5b620028c28482850162002d59565b6020808252825182820181905260009190848201906040850190845b818110156200307c5783516001600160a01b03168352928401929184019160010162003055565b50909695505050505050565b600080602083850312156200309c57600080fd5b82356001600160401b0380821115620030b457600080fd5b818501915085601f830112620030c957600080fd5b813581811115620030d957600080fd5b8660208260051b8501011115620030ef57600080fd5b60209290920196919550909350505050565b60005b838110156200311e57818101518382015260200162003104565b50506000910152565b600081518084526200314181602086016020860162003101565b601f01601f19169290920160200192915050565b6000602080830181845280855180835260408601915060408160051b870101925083870160005b82811015620031ae57603f198886030184526200319b85835162003127565b945092850192908501906001016200317c565b5092979650505050505050565b600080600060608486031215620031d157600080fd5b83356001600160401b03811115620031e857600080fd5b620031f68682870162002d59565b9660208601359650604090950135949350505050565b600080604083850312156200322057600080fd5b82356200322d8162002c94565b915060208301356001600160401b0381111562002e0157600080fd5b600080600080608085870312156200326057600080fd5b84356200326d8162002c94565b935060208501356200327f8162002c94565b92506040850135620032918162002c94565b9396929550929360600135925050565b60208082526027908201527f4f6e6c79206f776e65722063616e20657865637574652074686973207472616e60408201526639b0b1ba34b7b760c91b606082015260800190565b6020808252602d908201527f52414841543a204e6f20616e7920746f6b656e2077617320697373756564207460408201526c37903a3434b990373ab6b132b960991b606082015260800190565b6020808252602a908201527f52414841543a2053656e646572204d757374206265206120726567697374657260408201526932b2103b32b73237b91760b11b606082015260800190565b6001600160a01b03929092168252602082015260400190565b600060208284031215620033ab57600080fd5b8151620023af8162002fa0565b6020808252601f908201527f52414841543a2053656e646572206d75737420626520616e2061646d696e2e00604082015260600190565b6000602082840312156200340257600080fd5b8151620023af8162002c94565b634e487b7160e01b600052601160045260246000fd5b808201808211156200094757620009476200340f565b818103818111156200094757620009476200340f565b634e487b7160e01b600052603260045260246000fd5b6000600182016200347c576200347c6200340f565b5060010190565b600082516200349781846020870162003101565b9190910192915050565b6000808335601e19843603018112620034b957600080fd5b8301803591506001600160401b03821115620034d457600080fd5b602001915036819003821315620034ea57600080fd5b9250929050565b6001600160a01b039384168152919092166020820152604081019190915260600190565b60008160001904831182151516156200353257620035326200340f565b500290565b6000816200354957620035496200340f565b506000190190565b76020b1b1b2b9b9a1b7b73a3937b61d1030b1b1b7bab73a1604d1b8152600083516200358581601785016020880162003101565b7001034b99036b4b9b9b4b733903937b6329607d1b6017918401918201528351620035b881602884016020880162003101565b01602801949350505050565b602081526000620023af602083018462003127565b634e487b7160e01b600052601260045260246000fd5b600082620036015762003601620035d9565b500490565b600082620036185762003618620035d9565b500690565b634e487b7160e01b600052603160045260246000fdfe608060405234801561001057600080fd5b506040516108cc3803806108cc83398101604081905261002f91610056565b6001600160a01b03166000908152600260205260409020805460ff19166001179055610086565b60006020828403121561006857600080fd5b81516001600160a01b038116811461007f57600080fd5b9392505050565b610837806100956000396000f3fe608060405234801561001057600080fd5b50600436106100785760003560e01c8063125bfb661461007d578063173825d914610092578063666e1b39146100ba5780637065cb48146100dd578063a591afbe146100f0578063da3e339714610105578063f5537ede14610118578063fb3c0d701461012b575b600080fd5b61009061008b36600461061f565b61013e565b005b6100a56100a036600461065b565b6101ef565b60405190151581526020015b60405180910390f35b6100a56100c836600461065b565b60026020526000908152604090205460ff1681565b6100a56100eb36600461065b565b610253565b6100f86102af565b6040516100b19190610676565b61009061011336600461061f565b6102c0565b61009061012636600461061f565b61031d565b6100906101393660046106c3565b61037a565b3360009081526002602052604090205460ff166101765760405162461bcd60e51b815260040161016d9061070e565b60405180910390fd5b6040516323b872dd60e01b81526001600160a01b038416906323b872dd906101a690859030908690600401610755565b6020604051808303816000875af11580156101c5573d6000803e3d6000fd5b505050506040513d601f19601f820116820180604052508101906101e99190610779565b50505050565b3360009081526002602052604081205460ff1661021e5760405162461bcd60e51b815260040161016d9061070e565b6001600160a01b0382166000908152600260205260408120805460ff191690556102489083610423565b50600190505b919050565b3360009081526002602052604081205460ff166102825760405162461bcd60e51b815260040161016d9061070e565b6001600160a01b0382166000908152600260205260408120805460ff191660011790556102489083610441565b60606102bb6000610456565b905090565b3360009081526002602052604090205460ff166102ef5760405162461bcd60e51b815260040161016d9061070e565b60405163095ea7b360e01b81526001600160a01b0384169063095ea7b3906101a6908590859060040161079b565b3360009081526002602052604090205460ff1661034c5760405162461bcd60e51b815260040161016d9061070e565b60405163a9059cbb60e01b81526001600160a01b0384169063a9059cbb906101a6908590859060040161079b565b3360009081526002602052604090205460ff166103a95760405162461bcd60e51b815260040161016d9061070e565b6040516323b872dd60e01b81526001600160a01b038516906323b872dd906103d990869086908690600401610755565b6020604051808303816000875af11580156103f8573d6000803e3d6000fd5b505050506040513d601f19601f8201168201806040525081019061041c9190610779565b5050505050565b6000610438836001600160a01b03841661046a565b90505b92915050565b6000610438836001600160a01b03841661055d565b60606000610463836105ac565b9392505050565b6000818152600183016020526040812054801561055357600061048e6001836107b4565b85549091506000906104a2906001906107b4565b90508181146105075760008660000182815481106104c2576104c26107d5565b90600052602060002001549050808760000184815481106104e5576104e56107d5565b6000918252602080832090910192909255918252600188019052604090208390555b8554869080610518576105186107eb565b60019003818190600052602060002001600090559055856001016000868152602001908152602001600020600090556001935050505061043b565b600091505061043b565b60008181526001830160205260408120546105a45750815460018181018455600084815260208082209093018490558454848252828601909352604090209190915561043b565b50600061043b565b6060816000018054806020026020016040519081016040528092919081815260200182805480156105fc57602002820191906000526020600020905b8154815260200190600101908083116105e8575b50505050509050919050565b80356001600160a01b038116811461024e57600080fd5b60008060006060848603121561063457600080fd5b61063d84610608565b925061064b60208501610608565b9150604084013590509250925092565b60006020828403121561066d57600080fd5b61043882610608565b6020808252825182820181905260009190848201906040850190845b818110156106b75783516001600160a01b031683529284019291840191600101610692565b50909695505050505050565b600080600080608085870312156106d957600080fd5b6106e285610608565b93506106f060208601610608565b92506106fe60408601610608565b9396929550929360600135925050565b60208082526027908201527f4f6e6c79206f776e65722063616e20657865637574652074686973207472616e60408201526639b0b1ba34b7b760c91b606082015260800190565b6001600160a01b039384168152919092166020820152604081019190915260600190565b60006020828403121561078b57600080fd5b8151801515811461046357600080fd5b6001600160a01b03929092168252602082015260400190565b8181038181111561043b57634e487b7160e01b600052601160045260246000fd5b634e487b7160e01b600052603260045260246000fd5b634e487b7160e01b600052603160045260246000fdfea2646970667358221220904a99079b1f655c867f9a9730dd42d34d04d7666bcea7dce847d3be6c11fc5764736f6c634300081000330aaf57387812c7f832412470a57567b5648a930069be49aa9c98d04f88520d34caa7f6290f33308266ee2988386694ac9bc3612b5df272e3502129925a64f997416464726573733a206c6f772d6c6576656c2064656c65676174652063616c6c206661696c6564a26469706673582212202e7855fd6a2a667b67150ab1cace176934fa16ca30504fcbbcdc450ab89ff7d264736f6c63430008100033caa7f6290f33308266ee2988386694ac9bc3612b5df272e3502129925a64f997",
  "immutableReferences": {},
  "source": "//SPDX-License-Identifier: LGPL-3.0\r\n//TODO add balance of beneficiary per project\r\n//TODO suspend mobilizer and vendor\r\n//TODO test tokenissue by mobilizer\r\n//TODO test otp set by server account and otp submission by vendor account\r\n//TODO revole roles\r\n\r\npragma solidity ^0.8.16;\r\nimport \"./RahatERC20.sol\";\r\nimport \"./RahatRegistry.sol\";\r\nimport \"./RahatWallet.sol\";\r\nimport \"./RahatTriggerResponse.sol\";\r\nimport \"../libraries/AbstractERC20Func.sol\";\r\n\r\nimport \"@openzeppelin/contracts/access/AccessControl.sol\";\r\nimport \"@openzeppelin/contracts/utils/structs/EnumerableSet.sol\";\r\nimport \"@openzeppelin/contracts/utils/cryptography/ECDSA.sol\";\r\nimport \"@openzeppelin/contracts/utils/Multicall.sol\";\r\n\r\ncontract Rahat is AccessControl, AbstractERC20Func, Multicall {\r\n  using Strings for uint256;\r\n  using EnumerableSet for EnumerableSet.Bytes32Set;\r\n  using EnumerableSet for EnumerableSet.AddressSet;\r\n  using EnumerableSet for EnumerableSet.UintSet;\r\n  using ECDSA for bytes32;\r\n\r\n  //***** Events *********//\r\n  event ClaimedERC20(\r\n    address indexed vendor,\r\n    uint256 indexed beneficiary,\r\n    uint256 amount\r\n  );\r\n  event ClaimApproved(\r\n    address indexed vendor,\r\n    uint256 indexed phone,\r\n    uint256 amount\r\n  );\r\n  event IssuedERC20(\r\n    bytes32 indexed projectId,\r\n    uint256 indexed phone,\r\n    uint256 amount\r\n  );\r\n  event ClaimAcquiredERC20(\r\n    address indexed vendor,\r\n    uint256 indexed beneficiary,\r\n    uint256 amount\r\n  );\r\n  event InvalidSignature(\r\n    bytes signature,\r\n    bytes32 digest,\r\n    address expectedSigner,\r\n    address recoveredSigner\r\n  );\r\n\r\n  //event BalanceAdjusted(uint256 indexed phone, uint256 amount, string reason);\r\n\r\n  //***** Constant Variables (Roles) *********//\r\n  bytes32 public constant SERVER_ROLE = keccak256(\"SERVER\");\r\n  bytes32 public constant VENDOR_ROLE = keccak256(\"VENDOR\");\r\n  bytes32 public constant MANAGER_ROLE = keccak256(\"MANAGER\");\r\n  bytes32 public constant MOBILIZER_ROLE = keccak256(\"MOBILIZER\");\r\n  bytes32 public constant ISSUE_TOKEN = keccak256(\"issueToken\");\r\n  bytes32 public constant CREATE_CLAIM = keccak256(\"createClaim\");\r\n  bytes32 public constant GET_TOKENS_FROM_CLAIM = keccak256(\r\n    \"getTokensFromClaim\"\r\n  );\r\n\r\n  mapping(address => uint256) public nonces; //delegated users nonces\r\n\r\n  //***** Variables (State) *********//\r\n  //AidToken public tokenContract;\r\n  RahatERC20 public erc20;\r\n  RahatERC20 public cashToken;\r\n  RahatRegistry public registry;\r\n  RahatTriggerResponse public triggerResponse;\r\n\r\n  ///@notice track total issued tokens of each benefiicary phone\r\n  mapping(uint256 => uint256) public erc20Issued; //phone=>balance\r\n\r\n  /// @notice track balances of each beneficiary phone\r\n  mapping(uint256 => uint256) public erc20Balance; //phone=>balance\r\n\r\n  mapping(uint256 => bool) public isBanked;\r\n\r\n  /// @notice track projectBalances\r\n  //bytes32[] public projectId;\r\n  EnumerableSet.Bytes32Set private projectId;\r\n  mapping(bytes32 => uint256) public totalProjectErc20Issued;\r\n  mapping(bytes32 => uint256) public remainingProjectErc20Balances;\r\n  mapping(bytes32 => EnumerableSet.AddressSet) projectMobilizers;\r\n  mapping(bytes32 => EnumerableSet.AddressSet) projectVendors;\r\n\r\n  mapping(address => uint256) public erc20IssuedBy;\r\n\r\n  struct claim {\r\n    uint256 amount;\r\n    bytes32 otpHash;\r\n    bool isReleased;\r\n    uint256 date;\r\n  }\r\n  /// @dev vendorAddress => phone => claim\r\n  mapping(address => mapping(bytes32 => claim)) public recentERC20Claims;\r\n\r\n  //***** Constructor *********//\r\n  constructor(\r\n    RahatERC20 _erc20,\r\n    RahatRegistry _registry,\r\n    RahatTriggerResponse _triggerResponse,\r\n    address _admin\r\n  ) {\r\n    _setupRole(DEFAULT_ADMIN_ROLE, msg.sender);\r\n    _setupRole(DEFAULT_ADMIN_ROLE, _admin);\r\n    _setRoleAdmin(SERVER_ROLE, DEFAULT_ADMIN_ROLE);\r\n    _setRoleAdmin(VENDOR_ROLE, DEFAULT_ADMIN_ROLE);\r\n    grantRole(SERVER_ROLE, msg.sender);\r\n    erc20 = _erc20;\r\n    registry = _registry;\r\n    triggerResponse = _triggerResponse;\r\n    owner[_admin] = true;\r\n  }\r\n\r\n  function supportsInterface(bytes4 interfaceId)\r\n    public\r\n    view\r\n    virtual\r\n    override(AccessControl)\r\n    returns (bool)\r\n  {\r\n    return super.supportsInterface(interfaceId);\r\n  }\r\n\r\n  //***** Modifiers *********//\r\n  modifier OnlyServer() {\r\n    require(\r\n      hasRole(SERVER_ROLE, msg.sender),\r\n      \"RAHAT: Sender must be an authorized server\"\r\n    );\r\n    _;\r\n  }\r\n  modifier OnlyAdmin {\r\n    require(\r\n      hasRole(DEFAULT_ADMIN_ROLE, msg.sender),\r\n      \"RAHAT: Sender must be an admin.\"\r\n    );\r\n    _;\r\n  }\r\n  modifier IsBeneficiary(uint256 _phone) {\r\n    bytes32 _benId = findHash(_phone);\r\n    require(\r\n      erc20Balance[_phone] != 0,\r\n      \"RAHAT: No any token was issued to this number\"\r\n    );\r\n    _;\r\n  }\r\n  modifier OnlyVendor {\r\n    require(\r\n      hasRole(VENDOR_ROLE, msg.sender),\r\n      \"RAHAT: Sender Must be a registered vendor.\"\r\n    );\r\n    _;\r\n  }\r\n  modifier OnlyAdminOrMobilizer {\r\n    require(\r\n      (hasRole(DEFAULT_ADMIN_ROLE, msg.sender) ||\r\n        hasRole(MOBILIZER_ROLE, msg.sender)),\r\n      \"RAHAT: Sender Must be a registered Admin Or Mobilizer.\"\r\n    );\r\n    _;\r\n  }\r\n\r\n  //***** Methods *********//\r\n  //Access Control Management\r\n  /// @notice add admin of the this contract\r\n  /// @param _account address of the new admin\r\n  function addAdmin(address _account) external OnlyAdmin {\r\n    grantRole(DEFAULT_ADMIN_ROLE, _account);\r\n    owner[_account] = true;\r\n  }\r\n\r\n  function isAdmin(address _account) external view returns(bool){\r\n    return hasRole(DEFAULT_ADMIN_ROLE, _account);\r\n  }\r\n\r\n  /// @notice add server account for this contract\r\n  /// @param _account address of the new server account\r\n  function addServer(address _account) external OnlyAdmin {\r\n    grantRole(SERVER_ROLE, _account);\r\n  }\r\n\r\n  /// @notice add vendors\r\n  /// @param _account address of the new vendor\r\n  function addVendor(address _account) external OnlyAdmin returns (address) {\r\n    RahatWallet vWallet = new RahatWallet(address(this));\r\n    vWallet.addOwner(_account);\r\n    registry.addId2AddressMap(findHash(_account), address(vWallet));\r\n    grantRole(VENDOR_ROLE, _account);\r\n    return address(vWallet);\r\n  }\r\n\r\n  function isVendor(address _account) public view returns(bool){\r\n    return hasRole(VENDOR_ROLE, _account);\r\n  }\r\n\r\n  /// @notice add vendors\r\n  /// @param _account address of the new vendor\r\n  /// @param _projectId projectId\r\n  function addMobilizer(address _account, string memory _projectId)\r\n    external\r\n    OnlyAdmin\r\n  {\r\n    bytes32 _id = findHash(_projectId);\r\n    grantRole(MOBILIZER_ROLE, _account);\r\n    projectMobilizers[_id].add(_account);\r\n  }\r\n\r\n  /// @notice set IsBanked Beneficiary\r\n  /// @param _phone beneficiary phone number\r\n  /// @param _isBanked true/false\r\n  function setAsBankedBeneficiary(uint256 _phone, bool _isBanked)\r\n    external\r\n    OnlyAdmin\r\n  {\r\n    isBanked[_phone] = _isBanked;\r\n  }\r\n\r\n  // function suspendMobilizer() public {}\r\n\r\n  // function suspendVendor() public {}\r\n\r\n  //Beneficiary Management\r\n  /// @notice suspend the benficiary by deducting all the balance beneficiary owns\r\n  /// @param _phone phone number of the Beneficiary\r\n  /// @param _projectId projectId beneficiary is involved in\r\n  function suspendBeneficiary(uint256 _phone, bytes32 _projectId)\r\n    public\r\n    OnlyAdmin\r\n    IsBeneficiary(_phone)\r\n  {\r\n    //  bytes32 _benId = findHash(_phone);\r\n\r\n    uint256 _balance = erc20Balance[_phone];\r\n    remainingProjectErc20Balances[_projectId] += _balance;\r\n    erc20Balance[_phone] = 0;\r\n    erc20Issued[_phone] = erc20Issued[_phone] - _balance;\r\n  }\r\n\r\n  /// @notice adds the token from beneficiary\r\n  function adjustTokenAdd(uint256 _phone, uint256 _amount) private {\r\n    // bytes32 _benId = findHash(_phone);\r\n    erc20Balance[_phone] = erc20Balance[_phone] + _amount;\r\n    erc20Issued[_phone] = erc20Issued[_phone] + _amount;\r\n    //emit BalanceAdjusted(_phone, _amount, _reason);\r\n  }\r\n\r\n  /// @notice deducts the token from beneficiary\r\n  function adjustTokenDeduct(uint256 _phone, uint256 _amount)\r\n    private\r\n    IsBeneficiary(_phone)\r\n  {\r\n    //bytes32 _benId = findHash(_phone);\r\n    erc20Balance[_phone] = erc20Balance[_phone] - _amount;\r\n    //emit BalanceAdjusted(_phone, _amount, _reason);\r\n  }\r\n\r\n  /// @notice update a project balance.\r\n  /// @notice called by rahatdmin contract\r\n  /// @param _projectId Id of the project to assign budget\r\n  /// @param _projectCapital amount of budget to be added to project\r\n  function updateProjectBudget(bytes32 _projectId, uint256 _projectCapital)\r\n    external\r\n  {\r\n    remainingProjectErc20Balances[_projectId] += _projectCapital;\r\n    totalProjectErc20Issued[_projectId] += _projectCapital;\r\n  }\r\n\r\n  /// @notice get the current balance of project\r\n  function getProjectBalance(bytes32 _projectId)\r\n    external\r\n    view\r\n    returns (uint256 _balance)\r\n  {\r\n    return remainingProjectErc20Balances[_projectId];\r\n  }\r\n\r\n  function verifyVendor(bytes32 _hash, bytes memory _signature)\r\n    internal\r\n    view\r\n    returns (address)\r\n  {\r\n    address _signer = _hash.recover(_signature);\r\n    require(hasRole(VENDOR_ROLE, _signer), \"Signer should be Mobilizer\");\r\n    return _signer;\r\n  }\r\n\r\n  function verifyMobilizer(bytes32 _hash, bytes memory _signature)\r\n    internal\r\n    view\r\n    returns (address)\r\n  {\r\n    address _signer = _hash.recover(_signature);\r\n    require(hasRole(MOBILIZER_ROLE, _signer), \"Signer should be Mobilizer\");\r\n    return _signer;\r\n  }\r\n\r\n  /// @notice Issue tokens to beneficiary\r\n  /// @param _projectId Id of the project beneficiary is involved in\r\n  /// @param _phone phone number of the beneficiary\r\n  /// @param _amount Amount of token to be assigned to beneficiary\r\n  function issueERC20ToBeneficiary(\r\n    string memory _projectId,\r\n    uint256 _phone,\r\n    uint256 _amount\r\n  ) public OnlyAdmin {\r\n    bytes32 _id = findHash(_projectId);\r\n\r\n    //check beneficiary in registry;\r\n    require(registry.exists(findHash(_phone)), \"Beneficiary not registered.\");\r\n    erc20IssuedBy[msg.sender] += _amount;\r\n    require(\r\n      remainingProjectErc20Balances[_id] >= _amount,\r\n      \"RAHAT: Amount is greater than remaining Project Budget\"\r\n    );\r\n    remainingProjectErc20Balances[_id] -= _amount;\r\n    adjustTokenAdd(_phone, _amount);\r\n\r\n    emit IssuedERC20(_id, _phone, _amount);\r\n  }\r\n\r\n  /// @notice request a token to beneficiary by vendor\r\n  /// @param _phone Phone number of beneficiary to whom token is requested\r\n  /// @param _tokens Number of tokens to request\r\n  function createERC20Claim(uint256 _phone, uint256 _tokens)\r\n    public\r\n    IsBeneficiary(_phone)\r\n    OnlyVendor\r\n  {\r\n    require(\r\n      triggerResponse.isLive(),\r\n      \"This response has not been activated yet, please contact admin.\"\r\n    );\r\n    require(!isBanked[_phone], \"Cannot claim from banked beneficiary\");\r\n\r\n    bytes32 _benId = findHash(_phone);\r\n    require(\r\n      erc20Balance[_phone] >= _tokens,\r\n      \"RAHAT: Amount requested is greater than beneficiary balance.\"\r\n    );\r\n\r\n    claim storage ac = recentERC20Claims[msg.sender][_benId];\r\n    ac.isReleased = false;\r\n    ac.amount = _tokens;\r\n    ac.date = block.timestamp;\r\n    emit ClaimedERC20(tx.origin, _phone, _tokens);\r\n  }\r\n\r\n  /// @notice Approve the requested claim from serverside and set the otp hash\r\n  /// @param _vendor Address of the vendor who requested the token from beneficiary\r\n  /// @param _phone Phone number of the beneficiary, to whom token request was sent\r\n  /// @param _otpHash Hash of OTP sent to beneficiary by server\r\n  /// @param _timeToLive Validity of OTP in seconds\r\n  function approveERC20Claim(\r\n    address _vendor,\r\n    uint256 _phone,\r\n    bytes32 _otpHash,\r\n    uint256 _timeToLive\r\n  ) public IsBeneficiary(_phone) OnlyServer {\r\n    bytes32 _benId = findHash(_phone);\r\n    claim storage ac = recentERC20Claims[_vendor][_benId];\r\n    require(ac.date != 0, \"RAHAT: Claim has not been created yet\");\r\n    require(\r\n      _timeToLive <= 86400,\r\n      \"RAHAT:Time To Live should be less than 24 hours\"\r\n    );\r\n    require(\r\n      block.timestamp <= ac.date + 86400,\r\n      \"RAHAT: Claim is older than 24 hours\"\r\n    );\r\n    require(!ac.isReleased, \"RAHAT: Claim has already been released.\");\r\n    ac.otpHash = _otpHash;\r\n    ac.isReleased = true;\r\n    ac.date = block.timestamp + _timeToLive;\r\n    emit ClaimApproved(_vendor, _phone, ac.amount);\r\n  }\r\n\r\n  /// @notice Retrieve tokens that was requested to beneficiary by entering OTP\r\n  /// @param _phone Phone Number of the beneficiary, to whom token request was sent\r\n  /// @param _otp OTP sent by the server\r\n  function getERC20FromClaim(uint256 _phone, string memory _otp)\r\n    public\r\n    IsBeneficiary(_phone)\r\n    OnlyVendor\r\n  {\r\n    bytes32 _benId = findHash(_phone);\r\n    claim storage ac = recentERC20Claims[msg.sender][_benId];\r\n    require(ac.isReleased, \"RAHAT: Claim has not been released.\");\r\n    require(ac.date >= block.timestamp, \"RAHAT: Claim has already expired.\");\r\n    bytes32 otpHash = findHash(_otp);\r\n    require(\r\n      recentERC20Claims[msg.sender][_benId].otpHash == otpHash,\r\n      \"RAHAT: OTP did not match.\"\r\n    );\r\n    adjustTokenDeduct(_phone, ac.amount);\r\n    uint256 amt = ac.amount;\r\n    ac.isReleased = false;\r\n    ac.amount = 0;\r\n    ac.date = 0;\r\n    erc20.transfer(msg.sender, amt);\r\n    _transferCashFromVendor(msg.sender, _phone, amt);\r\n    emit ClaimAcquiredERC20(msg.sender, _phone, amt);\r\n  }\r\n\r\n  /// @notice Admin function to transfer beneficiary token to vendor\r\n  /// @param _phone Phone number of beneficiary to whom token is requested\r\n  /// @param _vendorAddress vendor's address\r\n  /// @param _amount Number of tokens to request\r\n  function transferTokenToVendorByAdmin(uint256 _phone, address _vendorAddress, uint256 _amount) \r\n    public IsBeneficiary(_phone) OnlyAdmin {\r\n      require(isVendor(_vendorAddress), \"Transfer to must be vendor address\");\r\n      adjustTokenDeduct(_phone, _amount);\r\n      _transferCashFromVendor(_vendorAddress, _phone, _amount);\r\n      erc20.transfer(_vendorAddress, _amount);\r\n      emit ClaimAcquiredERC20(_vendorAddress, _phone, _amount);\r\n  }\r\n  \r\n  function transferCashToVendor(address _vendorAddress, uint _amount) public OnlyAdmin {\r\n    require(registry.exists(findHash(_vendorAddress)), \"vendor wallet not registered.\");\r\n    cashToken.approve(registry.id2Address(findHash(_vendorAddress)), _amount);\r\n  }\r\n\r\n  function _transferCashFromVendor(address _vendorAddress, uint256 _phone, uint _amount) private {\r\n    RahatWallet vendorWallet = RahatWallet(registry.id2Address(findHash(_vendorAddress)));\r\n    vendorWallet.transferToken(address(cashToken), registry.id2Address(findHash(_phone)), _amount);\r\n  }\r\n\r\n  function claimToken(address _token, address _from, uint256 _amount) public override OnlyOwner {\r\n    if(address(cashToken) == address(0)) cashToken = RahatERC20(_token);\r\n    super.claimToken(_token, _from, _amount);\r\n  }\r\n\r\n  /// @notice generates the hash of the given string\r\n  /// @param _data String of which hash is to be generated\r\n  function findHash(string memory _data) public pure returns (bytes32) {\r\n    return keccak256(abi.encodePacked(_data));\r\n  }\r\n\r\n  /// @notice generates the hash of the given string\r\n  function findHash(uint256 _data) public pure returns (bytes32) {\r\n    return keccak256(abi.encodePacked(_data.toString()));\r\n  }\r\n\r\n  function findHash(address _data) public pure returns (bytes32) {\r\n    return keccak256(abi.encodePacked(_data));\r\n  }\r\n\r\n  /// @notice Generates the sum of all the integers in array\r\n  /// @param _array Array of uint\r\n  function getArraySum(uint256[] memory _array)\r\n    public\r\n    pure\r\n    returns (uint256 sum)\r\n  {\r\n    sum = 0;\r\n    for (uint256 i = 0; i < _array.length; i++) {\r\n      sum += _array[i];\r\n    }\r\n    return sum;\r\n  }\r\n}\r\n",
  "sourcePath": "S:\\Projects\\rahat\\unicef-np\\rahat-contracts\\src\\contracts\\Rahat.sol",
  "compiler": {
    "name": "solc",
    "version": "0.8.16+commit.07a7930e.Emscripten.clang"
  },
  "schemaVersion": "3.4.10",
  "updatedAt": "2022-11-29T09:54:09.658Z",
  "devdoc": {
    "kind": "dev",
    "methods": {
      "addAdmin(address)": {
        "params": {
          "_account": "address of the new admin"
        }
      },
      "addMobilizer(address,string)": {
        "params": {
          "_account": "address of the new vendor",
          "_projectId": "projectId"
        }
      },
      "addOwner(address)": {
        "params": {
          "_account": "address of new owner"
        }
      },
      "addServer(address)": {
        "params": {
          "_account": "address of the new server account"
        }
      },
      "addVendor(address)": {
        "params": {
          "_account": "address of the new vendor"
        }
      },
      "approveERC20Claim(address,uint256,bytes32,uint256)": {
        "params": {
          "_otpHash": "Hash of OTP sent to beneficiary by server",
          "_phone": "Phone number of the beneficiary, to whom token request was sent",
          "_timeToLive": "Validity of OTP in seconds",
          "_vendor": "Address of the vendor who requested the token from beneficiary"
        }
      },
      "createERC20Claim(uint256,uint256)": {
        "params": {
          "_phone": "Phone number of beneficiary to whom token is requested",
          "_tokens": "Number of tokens to request"
        }
      },
      "findHash(string)": {
        "params": {
          "_data": "String of which hash is to be generated"
        }
      },
      "getArraySum(uint256[])": {
        "params": {
          "_array": "Array of uint"
        }
      },
      "getERC20FromClaim(uint256,string)": {
        "params": {
          "_otp": "OTP sent by the server",
          "_phone": "Phone Number of the beneficiary, to whom token request was sent"
        }
      },
      "getRoleAdmin(bytes32)": {
        "details": "Returns the admin role that controls `role`. See {grantRole} and {revokeRole}. To change a role's admin, use {_setRoleAdmin}."
      },
      "grantRole(bytes32,address)": {
        "details": "Grants `role` to `account`. If `account` had not been already granted `role`, emits a {RoleGranted} event. Requirements: - the caller must have ``role``'s admin role."
      },
      "hasRole(bytes32,address)": {
        "details": "Returns `true` if `account` has been granted `role`."
      },
      "issueERC20ToBeneficiary(string,uint256,uint256)": {
        "params": {
          "_amount": "Amount of token to be assigned to beneficiary",
          "_phone": "phone number of the beneficiary",
          "_projectId": "Id of the project beneficiary is involved in"
        }
      },
      "multicall(bytes[])": {
        "details": "Receives and executes a batch of function calls on this contract."
      },
      "removeOwner(address)": {
        "params": {
          "_account": "address of existing owner"
        }
      },
      "renounceRole(bytes32,address)": {
        "details": "Revokes `role` from the calling account. Roles are often managed via {grantRole} and {revokeRole}: this function's purpose is to provide a mechanism for accounts to lose their privileges if they are compromised (such as when a trusted device is misplaced). If the calling account had been revoked `role`, emits a {RoleRevoked} event. Requirements: - the caller must be `account`."
      },
      "revokeRole(bytes32,address)": {
        "details": "Revokes `role` from `account`. If `account` had been granted `role`, emits a {RoleRevoked} event. Requirements: - the caller must have ``role``'s admin role."
      },
      "setAsBankedBeneficiary(uint256,bool)": {
        "params": {
          "_isBanked": "true/false",
          "_phone": "beneficiary phone number"
        }
      },
      "supportsInterface(bytes4)": {
        "details": "See {IERC165-supportsInterface}."
      },
      "suspendBeneficiary(uint256,bytes32)": {
        "params": {
          "_phone": "phone number of the Beneficiary",
          "_projectId": "projectId beneficiary is involved in"
        }
      },
      "transferTokenToVendorByAdmin(uint256,address,uint256)": {
        "params": {
          "_amount": "Number of tokens to request",
          "_phone": "Phone number of beneficiary to whom token is requested",
          "_vendorAddress": "vendor's address"
        }
      },
      "updateProjectBudget(bytes32,uint256)": {
        "params": {
          "_projectCapital": "amount of budget to be added to project",
          "_projectId": "Id of the project to assign budget"
        }
      }
    },
    "stateVariables": {
      "recentERC20Claims": {
        "details": "vendorAddress => phone => claim"
      }
    },
    "version": 1
  },
  "userdoc": {
    "kind": "user",
    "methods": {
      "addAdmin(address)": {
        "notice": "add admin of the this contract"
      },
      "addMobilizer(address,string)": {
        "notice": "add vendors"
      },
      "addOwner(address)": {
        "notice": "Add an account to the owner role"
      },
      "addServer(address)": {
        "notice": "add server account for this contract"
      },
      "addVendor(address)": {
        "notice": "add vendors"
      },
      "approveERC20Claim(address,uint256,bytes32,uint256)": {
        "notice": "Approve the requested claim from serverside and set the otp hash"
      },
      "createERC20Claim(uint256,uint256)": {
        "notice": "request a token to beneficiary by vendor"
      },
      "erc20Balance(uint256)": {
        "notice": "track balances of each beneficiary phone"
      },
      "erc20Issued(uint256)": {
        "notice": "track total issued tokens of each benefiicary phone"
      },
      "findHash(string)": {
        "notice": "generates the hash of the given string"
      },
      "findHash(uint256)": {
        "notice": "generates the hash of the given string"
      },
      "getArraySum(uint256[])": {
        "notice": "Generates the sum of all the integers in array"
      },
      "getERC20FromClaim(uint256,string)": {
        "notice": "Retrieve tokens that was requested to beneficiary by entering OTP"
      },
      "getProjectBalance(bytes32)": {
        "notice": "get the current balance of project"
      },
      "issueERC20ToBeneficiary(string,uint256,uint256)": {
        "notice": "Issue tokens to beneficiary"
      },
      "removeOwner(address)": {
        "notice": "Remove an account from the owner role"
      },
      "setAsBankedBeneficiary(uint256,bool)": {
        "notice": "set IsBanked Beneficiary"
      },
      "suspendBeneficiary(uint256,bytes32)": {
        "notice": "suspend the benficiary by deducting all the balance beneficiary owns"
      },
      "transferTokenToVendorByAdmin(uint256,address,uint256)": {
        "notice": "Admin function to transfer beneficiary token to vendor"
      },
      "updateProjectBudget(bytes32,uint256)": {
        "notice": "update a project balance.called by rahatdmin contract"
      }
    },
    "version": 1
  }
}