{
  "contractName": "RahatTriggerResponse",
  "abi": [
    {
      "inputs": [
        {
          "internalType": "address",
          "name": "_adminAddress",
          "type": "address"
        },
        {
          "internalType": "uint128",
          "name": "_requiredConfirmations",
          "type": "uint128"
        }
      ],
      "stateMutability": "nonpayable",
      "type": "constructor"
    },
    {
      "inputs": [
        {
          "internalType": "bytes32",
          "name": "",
          "type": "bytes32"
        },
        {
          "internalType": "address",
          "name": "",
          "type": "address"
        }
      ],
      "name": "adminConfirmations",
      "outputs": [
        {
          "internalType": "bool",
          "name": "",
          "type": "bool"
        }
      ],
      "stateMutability": "view",
      "type": "function"
    },
    {
      "inputs": [
        {
          "internalType": "address",
          "name": "",
          "type": "address"
        }
      ],
      "name": "isAdmin",
      "outputs": [
        {
          "internalType": "bool",
          "name": "",
          "type": "bool"
        }
      ],
      "stateMutability": "view",
      "type": "function"
    },
    {
      "inputs": [],
      "name": "isLive",
      "outputs": [
        {
          "internalType": "bool",
          "name": "",
          "type": "bool"
        }
      ],
      "stateMutability": "view",
      "type": "function"
    },
    {
      "inputs": [],
      "name": "requiredConfirmations",
      "outputs": [
        {
          "internalType": "uint128",
          "name": "",
          "type": "uint128"
        }
      ],
      "stateMutability": "view",
      "type": "function"
    },
    {
      "stateMutability": "payable",
      "type": "receive"
    },
    {
      "inputs": [
        {
          "internalType": "address",
          "name": "_adminAddress",
          "type": "address"
        }
      ],
      "name": "addAdmin",
      "outputs": [],
      "stateMutability": "nonpayable",
      "type": "function"
    },
    {
      "inputs": [
        {
          "internalType": "address",
          "name": "_adminAddress",
          "type": "address"
        }
      ],
      "name": "removeAdmin",
      "outputs": [],
      "stateMutability": "nonpayable",
      "type": "function"
    },
    {
      "inputs": [],
      "name": "deactivateResponse",
      "outputs": [],
      "stateMutability": "nonpayable",
      "type": "function"
    },
    {
      "inputs": [
        {
          "internalType": "string",
          "name": "_projectId",
          "type": "string"
        }
      ],
      "name": "activateResponse",
      "outputs": [],
      "stateMutability": "nonpayable",
      "type": "function"
    },
    {
      "inputs": [
        {
          "internalType": "bytes32",
          "name": "_hash",
          "type": "bytes32"
        }
      ],
      "name": "isConfirmed",
      "outputs": [
        {
          "internalType": "bool",
          "name": "_confirmed",
          "type": "bool"
        }
      ],
      "stateMutability": "view",
      "type": "function"
    },
    {
      "inputs": [
        {
          "internalType": "address payable",
          "name": "_destAddress",
          "type": "address"
        },
        {
          "internalType": "uint256",
          "name": "_amount",
          "type": "uint256"
        }
      ],
      "name": "transferEther",
      "outputs": [
        {
          "internalType": "bool",
          "name": "",
          "type": "bool"
        }
      ],
      "stateMutability": "nonpayable",
      "type": "function"
    }
  ],
  "bytecode": "0x608060405234801561001057600080fd5b50604051610b1a380380610b1a83398101604081905261002f91610102565b61004782600261009560201b6105371790919060201c565b506001600160a01b039091166000908152600460205260408120805460ff1916600117905580546001600160801b0390921661010002610100600160881b0319909216919091179055610154565b60006100aa836001600160a01b0384166100b3565b90505b92915050565b60008181526001830160205260408120546100fa575081546001818101845560008481526020808220909301849055845484825282860190935260409020919091556100ad565b5060006100ad565b6000806040838503121561011557600080fd5b82516001600160a01b038116811461012c57600080fd5b60208401519092506001600160801b038116811461014957600080fd5b809150509250929050565b6109b7806101636000396000f3fe6080604052600436106100855760003560e01c806305b1137b146100915780631785f53c146100c657806324d7806c146100e85780633204d1e5146101185780636486aa5114610153578063704802751461017357806382e717f714610193578063b8f7a665146101d0578063c3f10d74146101ea578063d89008d0146101ff57600080fd5b3661008c57005b600080fd5b34801561009d57600080fd5b506100b16100ac3660046106ff565b61021f565b60405190151581526020015b60405180910390f35b3480156100d257600080fd5b506100e66100e136600461072b565b6102b6565b005b3480156100f457600080fd5b506100b161010336600461072b565b60046020526000908152604090205460ff1681565b34801561012457600080fd5b506100b1610133366004610748565b600160209081526000928352604080842090915290825290205460ff1681565b34801561015f57600080fd5b506100b161016e366004610778565b610312565b34801561017f57600080fd5b506100e661018e36600461072b565b6103a8565b34801561019f57600080fd5b506000546101b89061010090046001600160801b031681565b6040516001600160801b0390911681526020016100bd565b3480156101dc57600080fd5b506000546100b19060ff1681565b3480156101f657600080fd5b506100e6610407565b34801561020b57600080fd5b506100e661021a3660046107a7565b610442565b3360009081526004602052604081205460ff166102575760405162461bcd60e51b815260040161024e90610858565b60405180910390fd5b6000836001600160a01b03168360405160006040518083038185875af1925050503d80600081146102a4576040519150601f19603f3d011682016040523d82523d6000602084013e6102a9565b606091505b5090925050505b92915050565b3360009081526004602052604090205460ff166102e55760405162461bcd60e51b815260040161024e90610858565b6102f0600282610553565b506001600160a01b03166000908152600460205260409020805460ff19169055565b60008060005b6103226002610568565b8110156103a157600084815260016020526040812090610343600284610572565b6001600160a01b0316815260208101919091526040016000205460ff1615610373576103706001836108c5565b91505b60005461010090046001600160801b0316820361038f57600192505b80610399816108d8565b915050610318565b5050919050565b3360009081526004602052604090205460ff166103d75760405162461bcd60e51b815260040161024e90610858565b6103e2600282610537565b506001600160a01b03166000908152600460205260409020805460ff19166001179055565b3360009081526004602052604090205460ff166104365760405162461bcd60e51b815260040161024e90610858565b6000805460ff19169055565b3360009081526004602052604090205460ff166104715760405162461bcd60e51b815260040161024e90610858565b60008160405160200161048491906108f1565b60408051808303601f1901815282825280516020918201206000818152600180845284822033835290935292909220805460ff19169091179055636486aa5160e01b82526004820181905291503090636486aa5190602401602060405180830381865afa1580156104f9573d6000803e3d6000fd5b505050506040513d601f19601f8201168201806040525081019061051d9190610920565b610525575050565b506000805460ff191660011790555b50565b600061054c836001600160a01b03841661057e565b9392505050565b600061054c836001600160a01b0384166105cd565b60006102b0825490565b600061054c83836106c0565b60008181526001830160205260408120546105c5575081546001818101845560008481526020808220909301849055845484825282860190935260409020919091556102b0565b5060006102b0565b600081815260018301602052604081205480156106b65760006105f1600183610942565b855490915060009061060590600190610942565b905081811461066a57600086600001828154811061062557610625610955565b906000526020600020015490508087600001848154811061064857610648610955565b6000918252602080832090910192909255918252600188019052604090208390555b855486908061067b5761067b61096b565b6001900381819060005260206000200160009055905585600101600086815260200190815260200160002060009055600193505050506102b0565b60009150506102b0565b60008260000182815481106106d7576106d7610955565b9060005260206000200154905092915050565b6001600160a01b038116811461053457600080fd5b6000806040838503121561071257600080fd5b823561071d816106ea565b946020939093013593505050565b60006020828403121561073d57600080fd5b813561054c816106ea565b6000806040838503121561075b57600080fd5b82359150602083013561076d816106ea565b809150509250929050565b60006020828403121561078a57600080fd5b5035919050565b634e487b7160e01b600052604160045260246000fd5b6000602082840312156107b957600080fd5b813567ffffffffffffffff808211156107d157600080fd5b818401915084601f8301126107e557600080fd5b8135818111156107f7576107f7610791565b604051601f8201601f19908116603f0116810190838211818310171561081f5761081f610791565b8160405282815287602084870101111561083857600080fd5b826020860160208301376000928101602001929092525095945050505050565b60208082526037908201527f54726967676572526573706f73653a204f6e6c792041646d696e2063616e20656040820152763c32b1baba32903a3434b9903a3930b739b0b1ba34b7b760491b606082015260800190565b634e487b7160e01b600052601160045260246000fd5b808201808211156102b0576102b06108af565b6000600182016108ea576108ea6108af565b5060010190565b6000825160005b8181101561091257602081860181015185830152016108f8565b506000920191825250919050565b60006020828403121561093257600080fd5b8151801515811461054c57600080fd5b818103818111156102b0576102b06108af565b634e487b7160e01b600052603260045260246000fd5b634e487b7160e01b600052603160045260246000fdfea264697066735822122099af5690ac541d20c08695a8d20375994005e52e43d90b03f8cda9dadf059b5b64736f6c63430008100033",
  "immutableReferences": {},
  "source": "//SPDX-License-Identifier: LGPL-3.0\r\npragma solidity ^0.8.16;\r\n\r\nimport \"@openzeppelin/contracts/utils/structs/EnumerableSet.sol\";\r\n\r\ncontract RahatTriggerResponse {\r\n  using EnumerableSet for EnumerableSet.AddressSet;\r\n\r\n  bool public isLive;\r\n  uint128 public requiredConfirmations;\r\n  mapping(bytes32 => mapping(address => bool)) public adminConfirmations; //TxHash > Admin > bool\r\n  EnumerableSet.AddressSet internal _adminSet;\r\n  mapping(address => bool) public isAdmin;\r\n\r\n  //Modifiers\r\n  modifier OnlyAdmin() {\r\n    require(\r\n      isAdmin[msg.sender],\r\n      \"TriggerRespose: Only Admin can execute this transaction\"\r\n    );\r\n    _;\r\n  }\r\n\r\n  constructor(address _adminAddress, uint128 _requiredConfirmations) {\r\n    _adminSet.add(_adminAddress);\r\n    isAdmin[_adminAddress] = true;\r\n    requiredConfirmations = _requiredConfirmations;\r\n  }\r\n\r\n  // Admin manage\r\n  function addAdmin(address _adminAddress) public OnlyAdmin {\r\n    _adminSet.add(_adminAddress);\r\n    isAdmin[_adminAddress] = true;\r\n  }\r\n\r\n  function removeAdmin(address _adminAddress) public OnlyAdmin {\r\n    _adminSet.remove(_adminAddress);\r\n    isAdmin[_adminAddress] = false;\r\n  }\r\n\r\n  function deactivateResponse() public OnlyAdmin {\r\n    isLive = false;\r\n  }\r\n\r\n  function activateResponse(string memory _projectId) public OnlyAdmin {\r\n    bytes32 _hash = keccak256(abi.encodePacked(_projectId));\r\n    adminConfirmations[_hash][msg.sender] = true;\r\n    if (!this.isConfirmed(_hash)) return;\r\n    isLive = true;\r\n  }\r\n\r\n  function isConfirmed(bytes32 _hash) public view returns (bool _confirmed) {\r\n    _confirmed = false;\r\n    uint256 count = 0;\r\n    for (uint256 i = 0; i < _adminSet.length(); i++) {\r\n      if (adminConfirmations[_hash][_adminSet.at(i)]) count += 1;\r\n      if (count == requiredConfirmations) _confirmed = true;\r\n    }\r\n  }\r\n\r\n  //#region Token manage\r\n\r\n  function transferEther(address payable _destAddress, uint256 _amount)\r\n    public\r\n    OnlyAdmin\r\n    returns (bool)\r\n  {\r\n    (bool success, ) = _destAddress.call{ value: _amount }(\"\");\r\n    return success;\r\n  }\r\n\r\n  receive() external payable {}\r\n  //#endregion\r\n}\r\n",
  "sourcePath": "D:\\projects\\Rahat\\unicef-rumsan\\rahat-contracts\\src\\contracts\\RahatTriggerResponse.sol",
  "compiler": {
    "name": "solc",
    "version": "0.8.16+commit.07a7930e.Emscripten.clang"
  },
  "schemaVersion": "3.4.9",
  "updatedAt": "2022-08-31T02:40:26.623Z",
  "devdoc": {
    "kind": "dev",
    "methods": {},
    "version": 1
  },
  "userdoc": {
    "kind": "user",
    "methods": {},
    "version": 1
  }
}